{
  "_format": "hh-sol-artifact-1",
  "contractName": "TimeLock",
  "sourceName": "contracts/TimeLock.sol",
  "abi": [
    {
      "inputs": [
        {
          "internalType": "address",
          "name": "",
          "type": "address"
        },
        {
          "internalType": "uint256",
          "name": "",
          "type": "uint256"
        }
      ],
      "name": "AddressIds",
      "outputs": [
        {
          "internalType": "uint256",
          "name": "",
          "type": "uint256"
        }
      ],
      "stateMutability": "view",
      "type": "function"
    },
    {
      "inputs": [
        {
          "internalType": "uint256",
          "name": "_id",
          "type": "uint256"
        }
      ],
      "name": "CheckAmountDeposited",
      "outputs": [
        {
          "internalType": "uint256",
          "name": "",
          "type": "uint256"
        }
      ],
      "stateMutability": "view",
      "type": "function"
    },
    {
      "inputs": [
        {
          "internalType": "address",
          "name": "_address",
          "type": "address"
        }
      ],
      "name": "CheckId",
      "outputs": [
        {
          "internalType": "uint256[]",
          "name": "",
          "type": "uint256[]"
        }
      ],
      "stateMutability": "view",
      "type": "function"
    },
    {
      "inputs": [
        {
          "internalType": "uint256",
          "name": "_id",
          "type": "uint256"
        },
        {
          "internalType": "address[]",
          "name": "_address",
          "type": "address[]"
        }
      ],
      "name": "SetupRecover",
      "outputs": [],
      "stateMutability": "nonpayable",
      "type": "function"
    },
    {
      "inputs": [
        {
          "internalType": "uint256",
          "name": "_id",
          "type": "uint256"
        }
      ],
      "name": "TimeLeft",
      "outputs": [
        {
          "internalType": "uint256",
          "name": "",
          "type": "uint256"
        }
      ],
      "stateMutability": "view",
      "type": "function"
    },
    {
      "inputs": [
        {
          "internalType": "uint256",
          "name": "_SecondsToDeposit",
          "type": "uint256"
        }
      ],
      "name": "deposit",
      "outputs": [],
      "stateMutability": "payable",
      "type": "function"
    },
    {
      "inputs": [
        {
          "internalType": "uint256",
          "name": "_id",
          "type": "uint256"
        }
      ],
      "name": "withdraw",
      "outputs": [],
      "stateMutability": "nonpayable",
      "type": "function"
    }
  ],
  "bytecode": "0x6080604052600160025534801561001557600080fd5b50610c08806100256000396000f3fe6080604052600436106100705760003560e01c8063b0714e771161004e578063b0714e7714610104578063b6b55f2514610141578063d7e48ac51461015d578063eddf6c541461019a57610070565b80632e1a7d4d146100755780633c0af5791461009e57806379dd902b146100db575b600080fd5b34801561008157600080fd5b5061009c60048036038101906100979190610691565b6101d7565b005b3480156100aa57600080fd5b506100c560048036038101906100c0919061071c565b6103b2565b6040516100d29190610807565b60405180910390f35b3480156100e757600080fd5b5061010260048036038101906100fd919061088e565b610449565b005b34801561011057600080fd5b5061012b60048036038101906101269190610691565b6104bb565b60405161013891906108fd565b60405180910390f35b61015b60048036038101906101569190610691565b6104e5565b005b34801561016957600080fd5b50610184600480360381019061017f9190610918565b610601565b60405161019191906108fd565b60405180910390f35b3480156101a657600080fd5b506101c160048036038101906101bc9190610691565b610632565b6040516101ce91906108fd565b60405180910390f35b3373ffffffffffffffffffffffffffffffffffffffff1660008083815260200190815260200160002060000160009054906101000a900473ffffffffffffffffffffffffffffffffffffffff1673ffffffffffffffffffffffffffffffffffffffff161461027a576040517f08c379a0000000000000000000000000000000000000000000000000000000008152600401610271906109b5565b60405180910390fd5b426000808381526020019081526020016000206001015411156102d2576040517f08c379a00000000000000000000000000000000000000000000000000000000081526004016102c990610a21565b60405180910390fd5b60008060008381526020019081526020016000206002018190555060003373ffffffffffffffffffffffffffffffffffffffff166000808481526020019081526020016000206002015460405161032890610a72565b60006040518083038185875af1925050503d8060008114610365576040519150601f19603f3d011682016040523d82523d6000602084013e61036a565b606091505b50509050806103ae576040517f08c379a00000000000000000000000000000000000000000000000000000000081526004016103a590610ad3565b60405180910390fd5b5050565b6060600160008373ffffffffffffffffffffffffffffffffffffffff1673ffffffffffffffffffffffffffffffffffffffff16815260200190815260200160002080548060200260200160405190810160405280929190818152602001828054801561043d57602002820191906000526020600020905b815481526020019060010190808311610429575b50505050509050919050565b3373ffffffffffffffffffffffffffffffffffffffff1660008085815260200190815260200160002060000160009054906101000a900473ffffffffffffffffffffffffffffffffffffffff1673ffffffffffffffffffffffffffffffffffffffff16146104b657600080fd5b505050565b600042600080848152602001908152602001600020600101546104de9190610b22565b9050919050565b33600080600254815260200190815260200160002060000160006101000a81548173ffffffffffffffffffffffffffffffffffffffff021916908373ffffffffffffffffffffffffffffffffffffffff16021790555080426105479190610b56565b60008060025481526020019081526020016000206001018190555034600080600254815260200190815260200160002060020181905550600160003373ffffffffffffffffffffffffffffffffffffffff1673ffffffffffffffffffffffffffffffffffffffff1681526020019081526020016000206002549080600181540180825580915050600190039060005260206000200160009091909190915055600260008154809291906105f990610b8a565b919050555050565b6001602052816000526040600020818154811061061d57600080fd5b90600052602060002001600091509150505481565b6000806000838152602001908152602001600020600201549050919050565b600080fd5b600080fd5b6000819050919050565b61066e8161065b565b811461067957600080fd5b50565b60008135905061068b81610665565b92915050565b6000602082840312156106a7576106a6610651565b5b60006106b58482850161067c565b91505092915050565b600073ffffffffffffffffffffffffffffffffffffffff82169050919050565b60006106e9826106be565b9050919050565b6106f9816106de565b811461070457600080fd5b50565b600081359050610716816106f0565b92915050565b60006020828403121561073257610731610651565b5b600061074084828501610707565b91505092915050565b600081519050919050565b600082825260208201905092915050565b6000819050602082019050919050565b61077e8161065b565b82525050565b60006107908383610775565b60208301905092915050565b6000602082019050919050565b60006107b482610749565b6107be8185610754565b93506107c983610765565b8060005b838110156107fa5781516107e18882610784565b97506107ec8361079c565b9250506001810190506107cd565b5085935050505092915050565b6000602082019050818103600083015261082181846107a9565b905092915050565b600080fd5b600080fd5b600080fd5b60008083601f84011261084e5761084d610829565b5b8235905067ffffffffffffffff81111561086b5761086a61082e565b5b60208301915083602082028301111561088757610886610833565b5b9250929050565b6000806000604084860312156108a7576108a6610651565b5b60006108b58682870161067c565b935050602084013567ffffffffffffffff8111156108d6576108d5610656565b5b6108e286828701610838565b92509250509250925092565b6108f78161065b565b82525050565b600060208201905061091260008301846108ee565b92915050565b6000806040838503121561092f5761092e610651565b5b600061093d85828601610707565b925050602061094e8582860161067c565b9150509250929050565b600082825260208201905092915050565b7f7065726d697373696f6e2064656e696564000000000000000000000000000000600082015250565b600061099f601183610958565b91506109aa82610969565b602082019050919050565b600060208201905081810360008301526109ce81610992565b9050919050565b7f456e6f7567682074696d6520686173206e6f7420706173736564000000000000600082015250565b6000610a0b601a83610958565b9150610a16826109d5565b602082019050919050565b60006020820190508181036000830152610a3a816109fe565b9050919050565b600081905092915050565b50565b6000610a5c600083610a41565b9150610a6782610a4c565b600082019050919050565b6000610a7d82610a4f565b9150819050919050565b7f5472616e73666572204661696c65640000000000000000000000000000000000600082015250565b6000610abd600f83610958565b9150610ac882610a87565b602082019050919050565b60006020820190508181036000830152610aec81610ab0565b9050919050565b7f4e487b7100000000000000000000000000000000000000000000000000000000600052601160045260246000fd5b6000610b2d8261065b565b9150610b388361065b565b9250828203905081811115610b5057610b4f610af3565b5b92915050565b6000610b618261065b565b9150610b6c8361065b565b9250828201905080821115610b8457610b83610af3565b5b92915050565b6000610b958261065b565b91507fffffffffffffffffffffffffffffffffffffffffffffffffffffffffffffffff8203610bc757610bc6610af3565b5b60018201905091905056fea26469706673582212207596dda5e11da27abe88704e3f105422c03a0411f8b2e400bf9886b04fad6abe64736f6c63430008110033",
  "linkReferences": {},
  "deployedLinkReferences": {}
}