{
  "_format": "hh-sol-artifact-1",
  "contractName": "TimeLock",
  "sourceName": "contracts/TimeLock.sol",
  "abi": [
    {
      "anonymous": false,
      "inputs": [
        {
          "indexed": true,
          "internalType": "bytes32",
          "name": "role",
          "type": "bytes32"
        },
        {
          "indexed": true,
          "internalType": "bytes32",
          "name": "previousAdminRole",
          "type": "bytes32"
        },
        {
          "indexed": true,
          "internalType": "bytes32",
          "name": "newAdminRole",
          "type": "bytes32"
        }
      ],
      "name": "RoleAdminChanged",
      "type": "event"
    },
    {
      "anonymous": false,
      "inputs": [
        {
          "indexed": true,
          "internalType": "bytes32",
          "name": "role",
          "type": "bytes32"
        },
        {
          "indexed": true,
          "internalType": "address",
          "name": "account",
          "type": "address"
        },
        {
          "indexed": true,
          "internalType": "address",
          "name": "sender",
          "type": "address"
        }
      ],
      "name": "RoleGranted",
      "type": "event"
    },
    {
      "anonymous": false,
      "inputs": [
        {
          "indexed": true,
          "internalType": "bytes32",
          "name": "role",
          "type": "bytes32"
        },
        {
          "indexed": true,
          "internalType": "address",
          "name": "account",
          "type": "address"
        },
        {
          "indexed": true,
          "internalType": "address",
          "name": "sender",
          "type": "address"
        }
      ],
      "name": "RoleRevoked",
      "type": "event"
    },
    {
      "stateMutability": "payable",
      "type": "fallback"
    },
    {
      "inputs": [
        {
          "internalType": "uint256",
          "name": "_id",
          "type": "uint256"
        },
        {
          "internalType": "address[]",
          "name": "_address",
          "type": "address[]"
        },
        {
          "internalType": "uint256",
          "name": "_MinimumSignatures",
          "type": "uint256"
        }
      ],
      "name": "AddSigners",
      "outputs": [],
      "stateMutability": "nonpayable",
      "type": "function"
    },
    {
      "inputs": [
        {
          "internalType": "uint256",
          "name": "_id",
          "type": "uint256"
        }
      ],
      "name": "CheckAmountDeposited",
      "outputs": [
        {
          "internalType": "uint256",
          "name": "",
          "type": "uint256"
        }
      ],
      "stateMutability": "view",
      "type": "function"
    },
    {
      "inputs": [
        {
          "internalType": "uint256",
          "name": "_id",
          "type": "uint256"
        }
      ],
      "name": "CheckDeposit",
      "outputs": [
        {
          "internalType": "address",
          "name": "",
          "type": "address"
        }
      ],
      "stateMutability": "view",
      "type": "function"
    },
    {
      "inputs": [
        {
          "internalType": "uint256",
          "name": "_id",
          "type": "uint256"
        },
        {
          "internalType": "address",
          "name": "_address",
          "type": "address"
        }
      ],
      "name": "CheckIsVerified",
      "outputs": [
        {
          "internalType": "bool",
          "name": "",
          "type": "bool"
        }
      ],
      "stateMutability": "view",
      "type": "function"
    },
    {
      "inputs": [
        {
          "internalType": "uint256",
          "name": "_id",
          "type": "uint256"
        },
        {
          "internalType": "uint256",
          "name": "_Nonce",
          "type": "uint256"
        },
        {
          "internalType": "address",
          "name": "_to",
          "type": "address"
        }
      ],
      "name": "CreateMessageToSign",
      "outputs": [
        {
          "internalType": "bytes32",
          "name": "",
          "type": "bytes32"
        }
      ],
      "stateMutability": "view",
      "type": "function"
    },
    {
      "inputs": [],
      "name": "DEFAULT_ADMIN_ROLE",
      "outputs": [
        {
          "internalType": "bytes32",
          "name": "",
          "type": "bytes32"
        }
      ],
      "stateMutability": "view",
      "type": "function"
    },
    {
      "inputs": [],
      "name": "Id",
      "outputs": [
        {
          "internalType": "uint256",
          "name": "",
          "type": "uint256"
        }
      ],
      "stateMutability": "view",
      "type": "function"
    },
    {
      "inputs": [
        {
          "internalType": "uint256",
          "name": "_id",
          "type": "uint256"
        },
        {
          "internalType": "bytes[]",
          "name": "signatures",
          "type": "bytes[]"
        },
        {
          "internalType": "address payable",
          "name": "_ToAddress",
          "type": "address"
        }
      ],
      "name": "RecoveryCall",
      "outputs": [],
      "stateMutability": "nonpayable",
      "type": "function"
    },
    {
      "inputs": [
        {
          "internalType": "uint256",
          "name": "_id",
          "type": "uint256"
        },
        {
          "internalType": "address[]",
          "name": "_address",
          "type": "address[]"
        },
        {
          "internalType": "uint256",
          "name": "_MinimumSignatures",
          "type": "uint256"
        }
      ],
      "name": "RemoveSigners",
      "outputs": [],
      "stateMutability": "nonpayable",
      "type": "function"
    },
    {
      "inputs": [
        {
          "internalType": "uint256",
          "name": "_id",
          "type": "uint256"
        }
      ],
      "name": "TimeLeft",
      "outputs": [
        {
          "internalType": "uint256",
          "name": "",
          "type": "uint256"
        }
      ],
      "stateMutability": "view",
      "type": "function"
    },
    {
      "inputs": [
        {
          "internalType": "uint256",
          "name": "_id",
          "type": "uint256"
        },
        {
          "internalType": "uint256",
          "name": "_MinimumSignatures",
          "type": "uint256"
        }
      ],
      "name": "UpdateSignatures",
      "outputs": [],
      "stateMutability": "nonpayable",
      "type": "function"
    },
    {
      "inputs": [
        {
          "internalType": "uint256",
          "name": "_id",
          "type": "uint256"
        }
      ],
      "name": "ViewMinimumSignatures",
      "outputs": [
        {
          "internalType": "uint256",
          "name": "",
          "type": "uint256"
        }
      ],
      "stateMutability": "view",
      "type": "function"
    },
    {
      "inputs": [
        {
          "internalType": "uint256",
          "name": "_SecondsToDeposit",
          "type": "uint256"
        }
      ],
      "name": "deposit",
      "outputs": [],
      "stateMutability": "payable",
      "type": "function"
    },
    {
      "inputs": [
        {
          "internalType": "bytes32",
          "name": "role",
          "type": "bytes32"
        }
      ],
      "name": "getRoleAdmin",
      "outputs": [
        {
          "internalType": "bytes32",
          "name": "",
          "type": "bytes32"
        }
      ],
      "stateMutability": "view",
      "type": "function"
    },
    {
      "inputs": [
        {
          "internalType": "bytes32",
          "name": "role",
          "type": "bytes32"
        },
        {
          "internalType": "address",
          "name": "account",
          "type": "address"
        }
      ],
      "name": "grantRole",
      "outputs": [],
      "stateMutability": "nonpayable",
      "type": "function"
    },
    {
      "inputs": [
        {
          "internalType": "bytes32",
          "name": "role",
          "type": "bytes32"
        },
        {
          "internalType": "address",
          "name": "account",
          "type": "address"
        }
      ],
      "name": "hasRole",
      "outputs": [
        {
          "internalType": "bool",
          "name": "",
          "type": "bool"
        }
      ],
      "stateMutability": "view",
      "type": "function"
    },
    {
      "inputs": [
        {
          "internalType": "bytes32",
          "name": "role",
          "type": "bytes32"
        },
        {
          "internalType": "address",
          "name": "account",
          "type": "address"
        }
      ],
      "name": "renounceRole",
      "outputs": [],
      "stateMutability": "nonpayable",
      "type": "function"
    },
    {
      "inputs": [
        {
          "internalType": "bytes32",
          "name": "role",
          "type": "bytes32"
        },
        {
          "internalType": "address",
          "name": "account",
          "type": "address"
        }
      ],
      "name": "revokeRole",
      "outputs": [],
      "stateMutability": "nonpayable",
      "type": "function"
    },
    {
      "inputs": [
        {
          "internalType": "bytes4",
          "name": "interfaceId",
          "type": "bytes4"
        }
      ],
      "name": "supportsInterface",
      "outputs": [
        {
          "internalType": "bool",
          "name": "",
          "type": "bool"
        }
      ],
      "stateMutability": "view",
      "type": "function"
    },
    {
      "inputs": [
        {
          "internalType": "uint256",
          "name": "_id",
          "type": "uint256"
        }
      ],
      "name": "withdraw",
      "outputs": [],
      "stateMutability": "nonpayable",
      "type": "function"
    },
    {
      "stateMutability": "payable",
      "type": "receive"
    }
  ],
  "bytecode": "0x6080604052600160035534801561001557600080fd5b506001600055611c4b8061002a6000396000f3fe6080604052600436106101635760003560e01c80636a6e804e116100c0578063b0714e7711610074578063d547741f11610059578063d547741f14610478578063da5b75ba14610498578063eddf6c54146104e6576101a8565b8063b0714e7714610445578063b6b55f2514610465576101a8565b806371ceb24c116100a557806371ceb24c146103ba57806391d14854146103ea578063a217fddf14610430576101a8565b80636a6e804e146103505780636fbd1fc71461039a576101a8565b80632e1a7d4d1161011757806336568abe116100fc57806336568abe146102fa57806339a090c91461031a57806357cd212814610330576101a8565b80632e1a7d4d146102ba5780632f2ff15d146102da576101a8565b806318aefe411161014857806318aefe411461023b578063248a9ca31461025b5780632d1703281461029a576101a8565b806301ffc9a7146101e65780630d7c2a601461021b576101a8565b366101a8576101a66040518060400160405280600481526020017f4865726500000000000000000000000000000000000000000000000000000000815250610517565b005b6101a66040518060400160405280600481526020017f6865726500000000000000000000000000000000000000000000000000000000815250610517565b3480156101f257600080fd5b50610206610201366004611766565b61058b565b60405190151581526020015b60405180910390f35b34801561022757600080fd5b506101a66102363660046117a8565b610624565b34801561024757600080fd5b506101a66102563660046117a8565b6107f8565b34801561026757600080fd5b5061028c61027636600461182d565b6000908152600160208190526040909120015490565b604051908152602001610212565b3480156102a657600080fd5b5061028c6102b536600461185b565b6108d4565b3480156102c657600080fd5b506101a66102d536600461182d565b6109c6565b3480156102e657600080fd5b506101a66102f5366004611894565b610a42565b34801561030657600080fd5b506101a6610315366004611894565b610a6d565b34801561032657600080fd5b5061028c60035481565b34801561033c57600080fd5b506101a661034b36600461191b565b610af5565b34801561035c57600080fd5b5061020661036b366004611894565b60008281526002602090815260408083206001600160a01b038516845260050190915290205460ff1692915050565b3480156103a657600080fd5b506101a66103b5366004611a4f565b610d61565b3480156103c657600080fd5b5061028c6103d536600461182d565b60009081526002602052604090206003015490565b3480156103f657600080fd5b50610206610405366004611894565b60009182526001602090815260408084206001600160a01b0393909316845291905290205460ff1690565b34801561043c57600080fd5b5061028c600081565b34801561045157600080fd5b5061028c61046036600461182d565b610e4a565b6101a661047336600461182d565b610e67565b34801561048457600080fd5b506101a6610493366004611894565b610ee8565b3480156104a457600080fd5b506104ce6104b336600461182d565b6000908152600260205260409020546001600160a01b031690565b6040516001600160a01b039091168152602001610212565b3480156104f257600080fd5b5061028c61050136600461182d565b6000908152600260208190526040909120015490565b6105888160405160240161052b9190611a95565b60408051601f198184030181529190526020810180517bffffffffffffffffffffffffffffffffffffffffffffffffffffffff167f41304fac00000000000000000000000000000000000000000000000000000000179052610f0e565b50565b60007fffffffff0000000000000000000000000000000000000000000000000000000082167f7965db0b00000000000000000000000000000000000000000000000000000000148061061e57507f01ffc9a7000000000000000000000000000000000000000000000000000000007fffffffff000000000000000000000000000000000000000000000000000000008316145b92915050565b60008481526002602052604090205484906001600160a01b031633146106855760405162461bcd60e51b815260206004820152601160248201527014195c9b5a5cdcda5bdb8811195b9a5959607a1b60448201526064015b60405180910390fd5b60008390036106d65760405162461bcd60e51b815260206004820152601260248201527f4164647265737320617272617920697320300000000000000000000000000000604482015260640161067c565b60005b8381116107dc5760008585838181106106f4576106f4611ac8565b90506020020160208101906107099190611ade565b6001600160a01b03160361075f5760405162461bcd60e51b815260206004820152601260248201527f3020616464726573732064657465637465640000000000000000000000000000604482015260640161067c565b6001600260006003548152602001908152602001600020600501600087878581811061078d5761078d611ac8565b90506020020160208101906107a29190611ade565b6001600160a01b031681526020810191909152604001600020805460ff1916911515919091179055806107d481611b11565b9150506106d9565b5050600093845260026020526040909320600301929092555050565b60008481526002602052604090205484906001600160a01b031633146108545760405162461bcd60e51b815260206004820152601160248201527014195c9b5a5cdcda5bdb8811195b9a5959607a1b604482015260640161067c565b60005b8381116107dc5760035460009081526002602052604081206005018187878581811061088557610885611ac8565b905060200201602081019061089a9190611ade565b6001600160a01b031681526020810191909152604001600020805460ff1916911515919091179055806108cc81611b11565b915050610857565b6000838152600260205260408120546001600160a01b03166109385760405162461bcd60e51b815260206004820152601160248201527f496e76616c69642049642063616c6c6564000000000000000000000000000000604482015260640161067c565b604080516020808201879052818301869052606085811b6bffffffffffffffffffffffff191690830152825180830360540181526074830184528051908201207f19457468657265756d205369676e6564204d6573736167653a0a333200000000609484015260b08084018290528451808503909101815260d0909301909352815191012095945050505050565b60008181526002602052604090205481906001600160a01b03163314610a225760405162461bcd60e51b815260206004820152601160248201527014195c9b5a5cdcda5bdb8811195b9a5959607a1b604482015260640161067c565b610a2a610f2f565b610a348233610f88565b610a3e6001600055565b5050565b60008281526001602081905260409091200154610a5e81611011565b610a68838361101b565b505050565b6001600160a01b0381163314610aeb5760405162461bcd60e51b815260206004820152602f60248201527f416363657373436f6e74726f6c3a2063616e206f6e6c792072656e6f756e636560448201527f20726f6c657320666f722073656c660000000000000000000000000000000000606482015260840161067c565b610a3e82826110a2565b6000838152600260205260409020546001600160a01b0316610b595760405162461bcd60e51b815260206004820152601760248201527f496e76616c6964206964206265696e672063616c6c6564000000000000000000604482015260640161067c565b600083815260026020908152604080832033845260050190915290205460ff16610beb5760405162461bcd60e51b815260206004820152602660248201527f596f7520646f206e6f742068617665207065726d697373696f6e20666f72207460448201527f6869732069640000000000000000000000000000000000000000000000000000606482015260840161067c565b6001600160a01b03811615801590610c155750600083815260026020526040902060030154825110155b610c615760405162461bcd60e51b815260206004820152601860248201527f53656e64696e6720746f2077726f6e6720616464726573730000000000000000604482015260640161067c565b60005b82518111610d34576000610ca985600260008881526020019081526020016000206004015485878681518110610c9c57610c9c611ac8565b6020026020010151611125565b60008681526002602090815260408083206001600160a01b038516845260050190915290205490915060ff16610d215760405162461bcd60e51b815260206004820152601c60248201527f496e76616c6964206164647265737320696e207369676e617475726500000000604482015260640161067c565b5080610d2c81611b11565b915050610c64565b506000838152600260205260408120600401805491610d5283611b11565b9190505550610a688382610f88565b60008281526002602052604090205482906001600160a01b03163314610dbd5760405162461bcd60e51b815260206004820152601160248201527014195c9b5a5cdcda5bdb8811195b9a5959607a1b604482015260640161067c565b6001821015610e345760405162461bcd60e51b815260206004820152602960248201527f4d696e696d756d2031207369676e6174757265732073686f756c64202062652060448201527f6d656e74696f6e65640000000000000000000000000000000000000000000000606482015260840161067c565b5060009182526002602052604090912060030155565b60008181526002602052604081206001015461061e904290611b2a565b600354600090815260026020526040902080547fffffffffffffffffffffffff00000000000000000000000000000000000000001633179055610eaa8142611b3d565b600380546000908152600260208190526040808320600101949094558254825292812034930192909255805491610ee083611b11565b919050555050565b60008281526001602081905260409091200154610f0481611011565b610a6883836110a2565b80516a636f6e736f6c652e6c6f67602083016000808483855afa5050505050565b600260005403610f815760405162461bcd60e51b815260206004820152601f60248201527f5265656e7472616e637947756172643a207265656e7472616e742063616c6c00604482015260640161067c565b6002600055565b600082815260026020526040902060010154421015610fe95760405162461bcd60e51b815260206004820152601a60248201527f456e6f7567682074696d6520686173206e6f7420706173736564000000000000604482015260640161067c565b6000828152600260208190526040822001819055610a3e906001600160a01b0383169061114c565b6105888133611265565b60008281526001602090815260408083206001600160a01b038516845290915290205460ff16610a3e5760008281526001602081815260408084206001600160a01b0386168086529252808420805460ff19169093179092559051339285917f2f8788117e7eff1d82e926ec794901d17c78024a50270940304540a733656f0d9190a45050565b60008281526001602090815260408083206001600160a01b038516845290915290205460ff1615610a3e5760008281526001602090815260408083206001600160a01b0385168085529252808320805460ff1916905551339285917ff6391f5c32d9c69d2a47ea670b442974b53935d1edc7fd64eb21e047a839171b9190a45050565b6000806111338686866108d4565b9050600061114182856112da565b979650505050505050565b8047101561119c5760405162461bcd60e51b815260206004820152601d60248201527f416464726573733a20696e73756666696369656e742062616c616e6365000000604482015260640161067c565b6000826001600160a01b03168260405160006040518083038185875af1925050503d80600081146111e9576040519150601f19603f3d011682016040523d82523d6000602084013e6111ee565b606091505b5050905080610a685760405162461bcd60e51b815260206004820152603a60248201527f416464726573733a20756e61626c6520746f2073656e642076616c75652c207260448201527f6563697069656e74206d61792068617665207265766572746564000000000000606482015260840161067c565b60008281526001602090815260408083206001600160a01b038516845290915290205460ff16610a3e57611298816112fe565b6112a3836020611310565b6040516020016112b4929190611b50565b60408051601f198184030181529082905262461bcd60e51b825261067c91600401611a95565b60008060006112e985856114f8565b915091506112f68161153d565b509392505050565b606061061e6001600160a01b03831660145b6060600061131f836002611bd1565b61132a906002611b3d565b67ffffffffffffffff811115611342576113426118c4565b6040519080825280601f01601f19166020018201604052801561136c576020820181803683370190505b5090507f3000000000000000000000000000000000000000000000000000000000000000816000815181106113a3576113a3611ac8565b60200101906001600160f81b031916908160001a9053507f7800000000000000000000000000000000000000000000000000000000000000816001815181106113ee576113ee611ac8565b60200101906001600160f81b031916908160001a9053506000611412846002611bd1565b61141d906001611b3d565b90505b60018111156114a2577f303132333435363738396162636465660000000000000000000000000000000085600f166010811061145e5761145e611ac8565b1a60f81b82828151811061147457611474611ac8565b60200101906001600160f81b031916908160001a90535060049490941c9361149b81611be8565b9050611420565b5083156114f15760405162461bcd60e51b815260206004820181905260248201527f537472696e67733a20686578206c656e67746820696e73756666696369656e74604482015260640161067c565b9392505050565b600080825160410361152e5760208301516040840151606085015160001a611522878285856116a2565b94509450505050611536565b506000905060025b9250929050565b600081600481111561155157611551611bff565b036115595750565b600181600481111561156d5761156d611bff565b036115ba5760405162461bcd60e51b815260206004820152601860248201527f45434453413a20696e76616c6964207369676e61747572650000000000000000604482015260640161067c565b60028160048111156115ce576115ce611bff565b0361161b5760405162461bcd60e51b815260206004820152601f60248201527f45434453413a20696e76616c6964207369676e6174757265206c656e67746800604482015260640161067c565b600381600481111561162f5761162f611bff565b036105885760405162461bcd60e51b815260206004820152602260248201527f45434453413a20696e76616c6964207369676e6174757265202773272076616c60448201527f7565000000000000000000000000000000000000000000000000000000000000606482015260840161067c565b6000807f7fffffffffffffffffffffffffffffff5d576e7357a4501ddfe92f46681b20a08311156116d9575060009050600361175d565b6040805160008082526020820180845289905260ff881692820192909252606081018690526080810185905260019060a0016020604051602081039080840390855afa15801561172d573d6000803e3d6000fd5b5050604051601f1901519150506001600160a01b0381166117565760006001925092505061175d565b9150600090505b94509492505050565b60006020828403121561177857600080fd5b81357fffffffff00000000000000000000000000000000000000000000000000000000811681146114f157600080fd5b600080600080606085870312156117be57600080fd5b84359350602085013567ffffffffffffffff808211156117dd57600080fd5b818701915087601f8301126117f157600080fd5b81358181111561180057600080fd5b8860208260051b850101111561181557600080fd5b95986020929092019750949560400135945092505050565b60006020828403121561183f57600080fd5b5035919050565b6001600160a01b038116811461058857600080fd5b60008060006060848603121561187057600080fd5b8335925060208401359150604084013561188981611846565b809150509250925092565b600080604083850312156118a757600080fd5b8235915060208301356118b981611846565b809150509250929050565b634e487b7160e01b600052604160045260246000fd5b604051601f8201601f1916810167ffffffffffffffff81118282101715611903576119036118c4565b604052919050565b803561191681611846565b919050565b60008060006060848603121561193057600080fd5b8335925060208085013567ffffffffffffffff8082111561195057600080fd5b818701915087601f83011261196457600080fd5b813581811115611976576119766118c4565b8060051b6119858582016118da565b918252838101850191858101908b84111561199f57600080fd5b86860192505b83831015611a30578235858111156119bd5760008081fd5b8601603f81018d136119cf5760008081fd5b878101356040878211156119e5576119e56118c4565b6119f7601f8301601f19168b016118da565b8281528f82848601011115611a0c5760008081fd5b828285018c83013760009281018b01929092525083525091860191908601906119a5565b80985050505050505050611a466040850161190b565b90509250925092565b60008060408385031215611a6257600080fd5b50508035926020909101359150565b60005b83811015611a8c578181015183820152602001611a74565b50506000910152565b6020815260008251806020840152611ab4816040850160208701611a71565b601f01601f19169190910160400192915050565b634e487b7160e01b600052603260045260246000fd5b600060208284031215611af057600080fd5b81356114f181611846565b634e487b7160e01b600052601160045260246000fd5b600060018201611b2357611b23611afb565b5060010190565b8181038181111561061e5761061e611afb565b8082018082111561061e5761061e611afb565b7f416363657373436f6e74726f6c3a206163636f756e7420000000000000000000815260008351611b88816017850160208801611a71565b7f206973206d697373696e6720726f6c65200000000000000000000000000000006017918401918201528351611bc5816028840160208801611a71565b01602801949350505050565b808202811582820484141761061e5761061e611afb565b600081611bf757611bf7611afb565b506000190190565b634e487b7160e01b600052602160045260246000fdfea2646970667358221220552934d33022b59ffb58b695168cfb2674c02c13ac122f3b4231f4a1c94d506164736f6c63430008110033",
  "linkReferences": {},
  "deployedLinkReferences": {}
}