{
  "_format": "hh-sol-artifact-1",
  "contractName": "TimeLock",
  "sourceName": "contracts/TimeLock.sol",
  "abi": [
    {
      "anonymous": false,
      "inputs": [
        {
          "indexed": true,
          "internalType": "bytes32",
          "name": "role",
          "type": "bytes32"
        },
        {
          "indexed": true,
          "internalType": "bytes32",
          "name": "previousAdminRole",
          "type": "bytes32"
        },
        {
          "indexed": true,
          "internalType": "bytes32",
          "name": "newAdminRole",
          "type": "bytes32"
        }
      ],
      "name": "RoleAdminChanged",
      "type": "event"
    },
    {
      "anonymous": false,
      "inputs": [
        {
          "indexed": true,
          "internalType": "bytes32",
          "name": "role",
          "type": "bytes32"
        },
        {
          "indexed": true,
          "internalType": "address",
          "name": "account",
          "type": "address"
        },
        {
          "indexed": true,
          "internalType": "address",
          "name": "sender",
          "type": "address"
        }
      ],
      "name": "RoleGranted",
      "type": "event"
    },
    {
      "anonymous": false,
      "inputs": [
        {
          "indexed": true,
          "internalType": "bytes32",
          "name": "role",
          "type": "bytes32"
        },
        {
          "indexed": true,
          "internalType": "address",
          "name": "account",
          "type": "address"
        },
        {
          "indexed": true,
          "internalType": "address",
          "name": "sender",
          "type": "address"
        }
      ],
      "name": "RoleRevoked",
      "type": "event"
    },
    {
      "stateMutability": "payable",
      "type": "fallback"
    },
    {
      "inputs": [
        {
          "internalType": "uint256",
          "name": "_id",
          "type": "uint256"
        },
        {
          "internalType": "address[]",
          "name": "_address",
          "type": "address[]"
        },
        {
          "internalType": "uint256",
          "name": "_MinimumSignatures",
          "type": "uint256"
        }
      ],
      "name": "AddSigners",
      "outputs": [],
      "stateMutability": "nonpayable",
      "type": "function"
    },
    {
      "inputs": [
        {
          "internalType": "uint256",
          "name": "_id",
          "type": "uint256"
        }
      ],
      "name": "CheckAmountDeposited",
      "outputs": [
        {
          "internalType": "uint256",
          "name": "",
          "type": "uint256"
        }
      ],
      "stateMutability": "view",
      "type": "function"
    },
    {
      "inputs": [
        {
          "internalType": "uint256",
          "name": "_id",
          "type": "uint256"
        }
      ],
      "name": "CheckDeposit",
      "outputs": [
        {
          "internalType": "address",
          "name": "",
          "type": "address"
        }
      ],
      "stateMutability": "view",
      "type": "function"
    },
    {
      "inputs": [
        {
          "internalType": "uint256",
          "name": "_id",
          "type": "uint256"
        },
        {
          "internalType": "address",
          "name": "_address",
          "type": "address"
        }
      ],
      "name": "CheckIsVerified",
      "outputs": [
        {
          "internalType": "bool",
          "name": "",
          "type": "bool"
        }
      ],
      "stateMutability": "view",
      "type": "function"
    },
    {
      "inputs": [
        {
          "internalType": "uint256",
          "name": "_id",
          "type": "uint256"
        },
        {
          "internalType": "uint256",
          "name": "_Nonce",
          "type": "uint256"
        },
        {
          "internalType": "address",
          "name": "_to",
          "type": "address"
        }
      ],
      "name": "CreateMessageToSign",
      "outputs": [
        {
          "internalType": "bytes32",
          "name": "",
          "type": "bytes32"
        }
      ],
      "stateMutability": "view",
      "type": "function"
    },
    {
      "inputs": [],
      "name": "DEFAULT_ADMIN_ROLE",
      "outputs": [
        {
          "internalType": "bytes32",
          "name": "",
          "type": "bytes32"
        }
      ],
      "stateMutability": "view",
      "type": "function"
    },
    {
      "inputs": [],
      "name": "Id",
      "outputs": [
        {
          "internalType": "uint256",
          "name": "",
          "type": "uint256"
        }
      ],
      "stateMutability": "view",
      "type": "function"
    },
    {
      "inputs": [
        {
          "internalType": "uint256",
          "name": "_id",
          "type": "uint256"
        },
        {
          "internalType": "bytes[]",
          "name": "signatures",
          "type": "bytes[]"
        },
        {
          "internalType": "address payable",
          "name": "_ToAddress",
          "type": "address"
        }
      ],
      "name": "RecoveryCall",
      "outputs": [],
      "stateMutability": "nonpayable",
      "type": "function"
    },
    {
      "inputs": [
        {
          "internalType": "uint256",
          "name": "_id",
          "type": "uint256"
        },
        {
          "internalType": "address[]",
          "name": "_address",
          "type": "address[]"
        },
        {
          "internalType": "uint256",
          "name": "_MinimumSignatures",
          "type": "uint256"
        }
      ],
      "name": "RemoveSigners",
      "outputs": [],
      "stateMutability": "nonpayable",
      "type": "function"
    },
    {
      "inputs": [
        {
          "internalType": "uint256",
          "name": "_id",
          "type": "uint256"
        }
      ],
      "name": "TimeLeft",
      "outputs": [
        {
          "internalType": "uint256",
          "name": "",
          "type": "uint256"
        }
      ],
      "stateMutability": "view",
      "type": "function"
    },
    {
      "inputs": [
        {
          "internalType": "uint256",
          "name": "_id",
          "type": "uint256"
        },
        {
          "internalType": "uint256",
          "name": "_MinimumSignatures",
          "type": "uint256"
        }
      ],
      "name": "UpdateSignatures",
      "outputs": [],
      "stateMutability": "nonpayable",
      "type": "function"
    },
    {
      "inputs": [
        {
          "internalType": "uint256",
          "name": "_id",
          "type": "uint256"
        }
      ],
      "name": "ViewMinimumSignatures",
      "outputs": [
        {
          "internalType": "uint256",
          "name": "",
          "type": "uint256"
        }
      ],
      "stateMutability": "view",
      "type": "function"
    },
    {
      "inputs": [
        {
          "internalType": "uint256",
          "name": "_SecondsToDeposit",
          "type": "uint256"
        }
      ],
      "name": "deposit",
      "outputs": [],
      "stateMutability": "payable",
      "type": "function"
    },
    {
      "inputs": [
        {
          "internalType": "bytes32",
          "name": "role",
          "type": "bytes32"
        }
      ],
      "name": "getRoleAdmin",
      "outputs": [
        {
          "internalType": "bytes32",
          "name": "",
          "type": "bytes32"
        }
      ],
      "stateMutability": "view",
      "type": "function"
    },
    {
      "inputs": [
        {
          "internalType": "bytes32",
          "name": "role",
          "type": "bytes32"
        },
        {
          "internalType": "address",
          "name": "account",
          "type": "address"
        }
      ],
      "name": "grantRole",
      "outputs": [],
      "stateMutability": "nonpayable",
      "type": "function"
    },
    {
      "inputs": [
        {
          "internalType": "bytes32",
          "name": "role",
          "type": "bytes32"
        },
        {
          "internalType": "address",
          "name": "account",
          "type": "address"
        }
      ],
      "name": "hasRole",
      "outputs": [
        {
          "internalType": "bool",
          "name": "",
          "type": "bool"
        }
      ],
      "stateMutability": "view",
      "type": "function"
    },
    {
      "inputs": [
        {
          "internalType": "bytes32",
          "name": "role",
          "type": "bytes32"
        },
        {
          "internalType": "address",
          "name": "account",
          "type": "address"
        }
      ],
      "name": "renounceRole",
      "outputs": [],
      "stateMutability": "nonpayable",
      "type": "function"
    },
    {
      "inputs": [
        {
          "internalType": "bytes32",
          "name": "role",
          "type": "bytes32"
        },
        {
          "internalType": "address",
          "name": "account",
          "type": "address"
        }
      ],
      "name": "revokeRole",
      "outputs": [],
      "stateMutability": "nonpayable",
      "type": "function"
    },
    {
      "inputs": [
        {
          "internalType": "bytes4",
          "name": "interfaceId",
          "type": "bytes4"
        }
      ],
      "name": "supportsInterface",
      "outputs": [
        {
          "internalType": "bool",
          "name": "",
          "type": "bool"
        }
      ],
      "stateMutability": "view",
      "type": "function"
    },
    {
      "inputs": [
        {
          "internalType": "uint256",
          "name": "_id",
          "type": "uint256"
        }
      ],
      "name": "withdraw",
      "outputs": [],
      "stateMutability": "nonpayable",
      "type": "function"
    },
    {
      "stateMutability": "payable",
      "type": "receive"
    }
  ],
  "bytecode": "0x6080604052600160035534801561001557600080fd5b506001600055611c558061002a6000396000f3fe6080604052600436106101635760003560e01c80636a6e804e116100c0578063b0714e7711610074578063d547741f11610059578063d547741f14610482578063da5b75ba146104a2578063eddf6c54146104f0576101b2565b8063b0714e771461044f578063b6b55f251461046f576101b2565b806371ceb24c116100a557806371ceb24c146103c457806391d14854146103f4578063a217fddf1461043a576101b2565b80636a6e804e1461035a5780636fbd1fc7146103a4576101b2565b80632e1a7d4d1161011757806336568abe116100fc57806336568abe1461030457806339a090c91461032457806357cd21281461033a576101b2565b80632e1a7d4d146102c45780632f2ff15d146102e4576101b2565b806318aefe411161014857806318aefe4114610245578063248a9ca3146102655780632d170328146102a4576101b2565b806301ffc9a7146101f05780630d7c2a6014610225576101b2565b366101b2576101a66040518060400160405280600481526020017f4865726500000000000000000000000000000000000000000000000000000000815250610521565b6101b0600a610595565b005b6101a66040518060400160405280600481526020017f6865726500000000000000000000000000000000000000000000000000000000815250610521565b3480156101fc57600080fd5b5061021061020b366004611770565b610616565b60405190151581526020015b60405180910390f35b34801561023157600080fd5b506101b06102403660046117b2565b6106af565b34801561025157600080fd5b506101b06102603660046117b2565b610883565b34801561027157600080fd5b50610296610280366004611837565b6000908152600160208190526040909120015490565b60405190815260200161021c565b3480156102b057600080fd5b506102966102bf366004611865565b61095f565b3480156102d057600080fd5b506101b06102df366004611837565b610a51565b3480156102f057600080fd5b506101b06102ff36600461189e565b610acd565b34801561031057600080fd5b506101b061031f36600461189e565b610af8565b34801561033057600080fd5b5061029660035481565b34801561034657600080fd5b506101b0610355366004611925565b610b80565b34801561036657600080fd5b5061021061037536600461189e565b60008281526002602090815260408083206001600160a01b038516845260050190915290205460ff1692915050565b3480156103b057600080fd5b506101b06103bf366004611a59565b610dec565b3480156103d057600080fd5b506102966103df366004611837565b60009081526002602052604090206003015490565b34801561040057600080fd5b5061021061040f36600461189e565b60009182526001602090815260408084206001600160a01b0393909316845291905290205460ff1690565b34801561044657600080fd5b50610296600081565b34801561045b57600080fd5b5061029661046a366004611837565b610ed5565b6101b061047d366004611837565b610595565b34801561048e57600080fd5b506101b061049d36600461189e565b610ef2565b3480156104ae57600080fd5b506104d86104bd366004611837565b6000908152600260205260409020546001600160a01b031690565b6040516001600160a01b03909116815260200161021c565b3480156104fc57600080fd5b5061029661050b366004611837565b6000908152600260208190526040909120015490565b610592816040516024016105359190611a9f565b60408051601f198184030181529190526020810180517bffffffffffffffffffffffffffffffffffffffffffffffffffffffff167f41304fac00000000000000000000000000000000000000000000000000000000179052610f18565b50565b600354600090815260026020526040902080547fffffffffffffffffffffffff000000000000000000000000000000000000000016331790556105d88142611ae8565b60038054600090815260026020819052604080832060010194909455825482529281203493019290925580549161060e83611afb565b919050555050565b60007fffffffff0000000000000000000000000000000000000000000000000000000082167f7965db0b0000000000000000000000000000000000000000000000000000000014806106a957507f01ffc9a7000000000000000000000000000000000000000000000000000000007fffffffff000000000000000000000000000000000000000000000000000000008316145b92915050565b60008481526002602052604090205484906001600160a01b031633146107105760405162461bcd60e51b815260206004820152601160248201527014195c9b5a5cdcda5bdb8811195b9a5959607a1b60448201526064015b60405180910390fd5b60008390036107615760405162461bcd60e51b815260206004820152601260248201527f41646472657373206172726179206973203000000000000000000000000000006044820152606401610707565b60005b83811161086757600085858381811061077f5761077f611b14565b90506020020160208101906107949190611b2a565b6001600160a01b0316036107ea5760405162461bcd60e51b815260206004820152601260248201527f30206164647265737320646574656374656400000000000000000000000000006044820152606401610707565b6001600260006003548152602001908152602001600020600501600087878581811061081857610818611b14565b905060200201602081019061082d9190611b2a565b6001600160a01b031681526020810191909152604001600020805460ff19169115159190911790558061085f81611afb565b915050610764565b5050600093845260026020526040909320600301929092555050565b60008481526002602052604090205484906001600160a01b031633146108df5760405162461bcd60e51b815260206004820152601160248201527014195c9b5a5cdcda5bdb8811195b9a5959607a1b6044820152606401610707565b60005b8381116108675760035460009081526002602052604081206005018187878581811061091057610910611b14565b90506020020160208101906109259190611b2a565b6001600160a01b031681526020810191909152604001600020805460ff19169115159190911790558061095781611afb565b9150506108e2565b6000838152600260205260408120546001600160a01b03166109c35760405162461bcd60e51b815260206004820152601160248201527f496e76616c69642049642063616c6c65640000000000000000000000000000006044820152606401610707565b604080516020808201879052818301869052606085811b6bffffffffffffffffffffffff191690830152825180830360540181526074830184528051908201207f19457468657265756d205369676e6564204d6573736167653a0a333200000000609484015260b08084018290528451808503909101815260d0909301909352815191012095945050505050565b60008181526002602052604090205481906001600160a01b03163314610aad5760405162461bcd60e51b815260206004820152601160248201527014195c9b5a5cdcda5bdb8811195b9a5959607a1b6044820152606401610707565b610ab5610f39565b610abf8233610f92565b610ac96001600055565b5050565b60008281526001602081905260409091200154610ae98161101b565b610af38383611025565b505050565b6001600160a01b0381163314610b765760405162461bcd60e51b815260206004820152602f60248201527f416363657373436f6e74726f6c3a2063616e206f6e6c792072656e6f756e636560448201527f20726f6c657320666f722073656c6600000000000000000000000000000000006064820152608401610707565b610ac982826110ac565b6000838152600260205260409020546001600160a01b0316610be45760405162461bcd60e51b815260206004820152601760248201527f496e76616c6964206964206265696e672063616c6c65640000000000000000006044820152606401610707565b600083815260026020908152604080832033845260050190915290205460ff16610c765760405162461bcd60e51b815260206004820152602660248201527f596f7520646f206e6f742068617665207065726d697373696f6e20666f72207460448201527f68697320696400000000000000000000000000000000000000000000000000006064820152608401610707565b6001600160a01b03811615801590610ca05750600083815260026020526040902060030154825110155b610cec5760405162461bcd60e51b815260206004820152601860248201527f53656e64696e6720746f2077726f6e67206164647265737300000000000000006044820152606401610707565b60005b82518111610dbf576000610d3485600260008881526020019081526020016000206004015485878681518110610d2757610d27611b14565b602002602001015161112f565b60008681526002602090815260408083206001600160a01b038516845260050190915290205490915060ff16610dac5760405162461bcd60e51b815260206004820152601c60248201527f496e76616c6964206164647265737320696e207369676e6174757265000000006044820152606401610707565b5080610db781611afb565b915050610cef565b506000838152600260205260408120600401805491610ddd83611afb565b9190505550610af38382610f92565b60008281526002602052604090205482906001600160a01b03163314610e485760405162461bcd60e51b815260206004820152601160248201527014195c9b5a5cdcda5bdb8811195b9a5959607a1b6044820152606401610707565b6001821015610ebf5760405162461bcd60e51b815260206004820152602960248201527f4d696e696d756d2031207369676e6174757265732073686f756c64202062652060448201527f6d656e74696f6e656400000000000000000000000000000000000000000000006064820152608401610707565b5060009182526002602052604090912060030155565b6000818152600260205260408120600101546106a9904290611b47565b60008281526001602081905260409091200154610f0e8161101b565b610af383836110ac565b80516a636f6e736f6c652e6c6f67602083016000808483855afa5050505050565b600260005403610f8b5760405162461bcd60e51b815260206004820152601f60248201527f5265656e7472616e637947756172643a207265656e7472616e742063616c6c006044820152606401610707565b6002600055565b600082815260026020526040902060010154421015610ff35760405162461bcd60e51b815260206004820152601a60248201527f456e6f7567682074696d6520686173206e6f74207061737365640000000000006044820152606401610707565b6000828152600260208190526040822001819055610ac9906001600160a01b03831690611156565b610592813361126f565b60008281526001602090815260408083206001600160a01b038516845290915290205460ff16610ac95760008281526001602081815260408084206001600160a01b0386168086529252808420805460ff19169093179092559051339285917f2f8788117e7eff1d82e926ec794901d17c78024a50270940304540a733656f0d9190a45050565b60008281526001602090815260408083206001600160a01b038516845290915290205460ff1615610ac95760008281526001602090815260408083206001600160a01b0385168085529252808320805460ff1916905551339285917ff6391f5c32d9c69d2a47ea670b442974b53935d1edc7fd64eb21e047a839171b9190a45050565b60008061113d86868661095f565b9050600061114b82856112e4565b979650505050505050565b804710156111a65760405162461bcd60e51b815260206004820152601d60248201527f416464726573733a20696e73756666696369656e742062616c616e63650000006044820152606401610707565b6000826001600160a01b03168260405160006040518083038185875af1925050503d80600081146111f3576040519150601f19603f3d011682016040523d82523d6000602084013e6111f8565b606091505b5050905080610af35760405162461bcd60e51b815260206004820152603a60248201527f416464726573733a20756e61626c6520746f2073656e642076616c75652c207260448201527f6563697069656e74206d617920686176652072657665727465640000000000006064820152608401610707565b60008281526001602090815260408083206001600160a01b038516845290915290205460ff16610ac9576112a281611308565b6112ad83602061131a565b6040516020016112be929190611b5a565b60408051601f198184030181529082905262461bcd60e51b825261070791600401611a9f565b60008060006112f38585611502565b9150915061130081611547565b509392505050565b60606106a96001600160a01b03831660145b60606000611329836002611bdb565b611334906002611ae8565b67ffffffffffffffff81111561134c5761134c6118ce565b6040519080825280601f01601f191660200182016040528015611376576020820181803683370190505b5090507f3000000000000000000000000000000000000000000000000000000000000000816000815181106113ad576113ad611b14565b60200101906001600160f81b031916908160001a9053507f7800000000000000000000000000000000000000000000000000000000000000816001815181106113f8576113f8611b14565b60200101906001600160f81b031916908160001a905350600061141c846002611bdb565b611427906001611ae8565b90505b60018111156114ac577f303132333435363738396162636465660000000000000000000000000000000085600f166010811061146857611468611b14565b1a60f81b82828151811061147e5761147e611b14565b60200101906001600160f81b031916908160001a90535060049490941c936114a581611bf2565b905061142a565b5083156114fb5760405162461bcd60e51b815260206004820181905260248201527f537472696e67733a20686578206c656e67746820696e73756666696369656e746044820152606401610707565b9392505050565b60008082516041036115385760208301516040840151606085015160001a61152c878285856116ac565b94509450505050611540565b506000905060025b9250929050565b600081600481111561155b5761155b611c09565b036115635750565b600181600481111561157757611577611c09565b036115c45760405162461bcd60e51b815260206004820152601860248201527f45434453413a20696e76616c6964207369676e617475726500000000000000006044820152606401610707565b60028160048111156115d8576115d8611c09565b036116255760405162461bcd60e51b815260206004820152601f60248201527f45434453413a20696e76616c6964207369676e6174757265206c656e677468006044820152606401610707565b600381600481111561163957611639611c09565b036105925760405162461bcd60e51b815260206004820152602260248201527f45434453413a20696e76616c6964207369676e6174757265202773272076616c60448201527f75650000000000000000000000000000000000000000000000000000000000006064820152608401610707565b6000807f7fffffffffffffffffffffffffffffff5d576e7357a4501ddfe92f46681b20a08311156116e35750600090506003611767565b6040805160008082526020820180845289905260ff881692820192909252606081018690526080810185905260019060a0016020604051602081039080840390855afa158015611737573d6000803e3d6000fd5b5050604051601f1901519150506001600160a01b03811661176057600060019250925050611767565b9150600090505b94509492505050565b60006020828403121561178257600080fd5b81357fffffffff00000000000000000000000000000000000000000000000000000000811681146114fb57600080fd5b600080600080606085870312156117c857600080fd5b84359350602085013567ffffffffffffffff808211156117e757600080fd5b818701915087601f8301126117fb57600080fd5b81358181111561180a57600080fd5b8860208260051b850101111561181f57600080fd5b95986020929092019750949560400135945092505050565b60006020828403121561184957600080fd5b5035919050565b6001600160a01b038116811461059257600080fd5b60008060006060848603121561187a57600080fd5b8335925060208401359150604084013561189381611850565b809150509250925092565b600080604083850312156118b157600080fd5b8235915060208301356118c381611850565b809150509250929050565b634e487b7160e01b600052604160045260246000fd5b604051601f8201601f1916810167ffffffffffffffff8111828210171561190d5761190d6118ce565b604052919050565b803561192081611850565b919050565b60008060006060848603121561193a57600080fd5b8335925060208085013567ffffffffffffffff8082111561195a57600080fd5b818701915087601f83011261196e57600080fd5b813581811115611980576119806118ce565b8060051b61198f8582016118e4565b918252838101850191858101908b8411156119a957600080fd5b86860192505b83831015611a3a578235858111156119c75760008081fd5b8601603f81018d136119d95760008081fd5b878101356040878211156119ef576119ef6118ce565b611a01601f8301601f19168b016118e4565b8281528f82848601011115611a165760008081fd5b828285018c83013760009281018b01929092525083525091860191908601906119af565b80985050505050505050611a5060408501611915565b90509250925092565b60008060408385031215611a6c57600080fd5b50508035926020909101359150565b60005b83811015611a96578181015183820152602001611a7e565b50506000910152565b6020815260008251806020840152611abe816040850160208701611a7b565b601f01601f19169190910160400192915050565b634e487b7160e01b600052601160045260246000fd5b808201808211156106a9576106a9611ad2565b600060018201611b0d57611b0d611ad2565b5060010190565b634e487b7160e01b600052603260045260246000fd5b600060208284031215611b3c57600080fd5b81356114fb81611850565b818103818111156106a9576106a9611ad2565b7f416363657373436f6e74726f6c3a206163636f756e7420000000000000000000815260008351611b92816017850160208801611a7b565b7f206973206d697373696e6720726f6c65200000000000000000000000000000006017918401918201528351611bcf816028840160208801611a7b565b01602801949350505050565b80820281158282048414176106a9576106a9611ad2565b600081611c0157611c01611ad2565b506000190190565b634e487b7160e01b600052602160045260246000fdfea26469706673582212200b8be0c252946cdc0a51ac9d340c33870413d9df11bb970a076f9ca9757fadbd64736f6c63430008110033",
  "linkReferences": {},
  "deployedLinkReferences": {}
}