{
  "_format": "hh-sol-artifact-1",
  "contractName": "TimeLock",
  "sourceName": "contracts/TimeLock.sol",
  "abi": [
    {
      "anonymous": false,
      "inputs": [
        {
          "indexed": true,
          "internalType": "bytes32",
          "name": "role",
          "type": "bytes32"
        },
        {
          "indexed": true,
          "internalType": "bytes32",
          "name": "previousAdminRole",
          "type": "bytes32"
        },
        {
          "indexed": true,
          "internalType": "bytes32",
          "name": "newAdminRole",
          "type": "bytes32"
        }
      ],
      "name": "RoleAdminChanged",
      "type": "event"
    },
    {
      "anonymous": false,
      "inputs": [
        {
          "indexed": true,
          "internalType": "bytes32",
          "name": "role",
          "type": "bytes32"
        },
        {
          "indexed": true,
          "internalType": "address",
          "name": "account",
          "type": "address"
        },
        {
          "indexed": true,
          "internalType": "address",
          "name": "sender",
          "type": "address"
        }
      ],
      "name": "RoleGranted",
      "type": "event"
    },
    {
      "anonymous": false,
      "inputs": [
        {
          "indexed": true,
          "internalType": "bytes32",
          "name": "role",
          "type": "bytes32"
        },
        {
          "indexed": true,
          "internalType": "address",
          "name": "account",
          "type": "address"
        },
        {
          "indexed": true,
          "internalType": "address",
          "name": "sender",
          "type": "address"
        }
      ],
      "name": "RoleRevoked",
      "type": "event"
    },
    {
      "inputs": [
        {
          "internalType": "uint256",
          "name": "_id",
          "type": "uint256"
        }
      ],
      "name": "CheckAmountDeposited",
      "outputs": [
        {
          "internalType": "uint256",
          "name": "",
          "type": "uint256"
        }
      ],
      "stateMutability": "view",
      "type": "function"
    },
    {
      "inputs": [
        {
          "internalType": "uint256",
          "name": "_id",
          "type": "uint256"
        },
        {
          "internalType": "uint256",
          "name": "_Nonce",
          "type": "uint256"
        },
        {
          "internalType": "address",
          "name": "_to",
          "type": "address"
        }
      ],
      "name": "CreateMessageToSign",
      "outputs": [
        {
          "internalType": "bytes32",
          "name": "",
          "type": "bytes32"
        }
      ],
      "stateMutability": "view",
      "type": "function"
    },
    {
      "inputs": [],
      "name": "DEFAULT_ADMIN_ROLE",
      "outputs": [
        {
          "internalType": "bytes32",
          "name": "",
          "type": "bytes32"
        }
      ],
      "stateMutability": "view",
      "type": "function"
    },
    {
      "inputs": [
        {
          "internalType": "uint256",
          "name": "_id",
          "type": "uint256"
        },
        {
          "internalType": "bytes[]",
          "name": "signatures",
          "type": "bytes[]"
        },
        {
          "internalType": "address payable",
          "name": "_ToAddress",
          "type": "address"
        }
      ],
      "name": "RecoveryCall",
      "outputs": [],
      "stateMutability": "nonpayable",
      "type": "function"
    },
    {
      "inputs": [
        {
          "internalType": "uint256",
          "name": "_id",
          "type": "uint256"
        },
        {
          "internalType": "address[]",
          "name": "_address",
          "type": "address[]"
        },
        {
          "internalType": "uint256",
          "name": "_MinimumSignatures",
          "type": "uint256"
        }
      ],
      "name": "SetupRecovery",
      "outputs": [],
      "stateMutability": "nonpayable",
      "type": "function"
    },
    {
      "inputs": [
        {
          "internalType": "uint256",
          "name": "_id",
          "type": "uint256"
        }
      ],
      "name": "TimeLeft",
      "outputs": [
        {
          "internalType": "uint256",
          "name": "",
          "type": "uint256"
        }
      ],
      "stateMutability": "view",
      "type": "function"
    },
    {
      "inputs": [
        {
          "internalType": "uint256",
          "name": "_SecondsToDeposit",
          "type": "uint256"
        }
      ],
      "name": "deposit",
      "outputs": [],
      "stateMutability": "payable",
      "type": "function"
    },
    {
      "inputs": [
        {
          "internalType": "bytes32",
          "name": "role",
          "type": "bytes32"
        }
      ],
      "name": "getRoleAdmin",
      "outputs": [
        {
          "internalType": "bytes32",
          "name": "",
          "type": "bytes32"
        }
      ],
      "stateMutability": "view",
      "type": "function"
    },
    {
      "inputs": [
        {
          "internalType": "bytes32",
          "name": "role",
          "type": "bytes32"
        },
        {
          "internalType": "address",
          "name": "account",
          "type": "address"
        }
      ],
      "name": "grantRole",
      "outputs": [],
      "stateMutability": "nonpayable",
      "type": "function"
    },
    {
      "inputs": [
        {
          "internalType": "bytes32",
          "name": "role",
          "type": "bytes32"
        },
        {
          "internalType": "address",
          "name": "account",
          "type": "address"
        }
      ],
      "name": "hasRole",
      "outputs": [
        {
          "internalType": "bool",
          "name": "",
          "type": "bool"
        }
      ],
      "stateMutability": "view",
      "type": "function"
    },
    {
      "inputs": [
        {
          "internalType": "bytes32",
          "name": "role",
          "type": "bytes32"
        },
        {
          "internalType": "address",
          "name": "account",
          "type": "address"
        }
      ],
      "name": "renounceRole",
      "outputs": [],
      "stateMutability": "nonpayable",
      "type": "function"
    },
    {
      "inputs": [
        {
          "internalType": "bytes32",
          "name": "role",
          "type": "bytes32"
        },
        {
          "internalType": "address",
          "name": "account",
          "type": "address"
        }
      ],
      "name": "revokeRole",
      "outputs": [],
      "stateMutability": "nonpayable",
      "type": "function"
    },
    {
      "inputs": [
        {
          "internalType": "bytes4",
          "name": "interfaceId",
          "type": "bytes4"
        }
      ],
      "name": "supportsInterface",
      "outputs": [
        {
          "internalType": "bool",
          "name": "",
          "type": "bool"
        }
      ],
      "stateMutability": "view",
      "type": "function"
    },
    {
      "inputs": [
        {
          "internalType": "uint256",
          "name": "_id",
          "type": "uint256"
        }
      ],
      "name": "withdraw",
      "outputs": [],
      "stateMutability": "nonpayable",
      "type": "function"
    }
  ],
  "bytecode": "0x6080604052600160035534801561001557600080fd5b506001600081905550612c578061002d6000396000f3fe6080604052600436106100dd5760003560e01c806391d148541161007f578063b6b55f2511610059578063b6b55f25146102e2578063d547741f146102fe578063eddf6c5414610327578063fc9e3bd514610364576100dd565b806391d148541461023d578063a217fddf1461027a578063b0714e77146102a5576100dd565b80632e1a7d4d116100bb5780632e1a7d4d146101995780632f2ff15d146101c257806336568abe146101eb57806357cd212814610214576100dd565b806301ffc9a7146100e2578063248a9ca31461011f5780632d1703281461015c575b600080fd5b3480156100ee57600080fd5b5061010960048036038101906101049190611877565b61038d565b60405161011691906118bf565b60405180910390f35b34801561012b57600080fd5b5061014660048036038101906101419190611910565b610407565b604051610153919061194c565b60405180910390f35b34801561016857600080fd5b50610183600480360381019061017e91906119fb565b610427565b604051610190919061194c565b60405180910390f35b3480156101a557600080fd5b506101c060048036038101906101bb9190611a4e565b61050f565b005b3480156101ce57600080fd5b506101e960048036038101906101e49190611a7b565b6105d0565b005b3480156101f757600080fd5b50610212600480360381019061020d9190611a7b565b6105f1565b005b34801561022057600080fd5b5061023b60048036038101906102369190611d25565b610674565b005b34801561024957600080fd5b50610264600480360381019061025f9190611a7b565b6109c0565b60405161027191906118bf565b60405180910390f35b34801561028657600080fd5b5061028f610a2b565b60405161029c919061194c565b60405180910390f35b3480156102b157600080fd5b506102cc60048036038101906102c79190611a4e565b610a32565b6040516102d99190611da3565b60405180910390f35b6102fc60048036038101906102f79190611a4e565b610a5d565b005b34801561030a57600080fd5b5061032560048036038101906103209190611a7b565b610b14565b005b34801561033357600080fd5b5061034e60048036038101906103499190611a4e565b610b35565b60405161035b9190611da3565b60405180910390f35b34801561037057600080fd5b5061038b60048036038101906103869190611e19565b610b55565b005b60007f7965db0b000000000000000000000000000000000000000000000000000000007bffffffffffffffffffffffffffffffffffffffffffffffffffffffff1916827bffffffffffffffffffffffffffffffffffffffffffffffffffffffff1916148061040057506103ff82610dac565b5b9050919050565b600060016000838152602001908152602001600020600101549050919050565b60008073ffffffffffffffffffffffffffffffffffffffff166002600086815260200190815260200160002060000160009054906101000a900473ffffffffffffffffffffffffffffffffffffffff1673ffffffffffffffffffffffffffffffffffffffff16036104cd576040517f08c379a00000000000000000000000000000000000000000000000000000000081526004016104c490611eea565b60405180910390fd5b60008484846040516020016104e493929190611f73565b60405160208183030381529060405280519060200120905061050581610e16565b9150509392505050565b610517610e46565b3373ffffffffffffffffffffffffffffffffffffffff166002600083815260200190815260200160002060000160009054906101000a900473ffffffffffffffffffffffffffffffffffffffff1673ffffffffffffffffffffffffffffffffffffffff16146105bb576040517f08c379a00000000000000000000000000000000000000000000000000000000081526004016105b290611ffc565b60405180910390fd5b6105c58133610e95565b6105cd610f4d565b50565b6105d982610407565b6105e281610f57565b6105ec8383610f6b565b505050565b6105f961104b565b73ffffffffffffffffffffffffffffffffffffffff168173ffffffffffffffffffffffffffffffffffffffff1614610666576040517f08c379a000000000000000000000000000000000000000000000000000000000815260040161065d9061208e565b60405180910390fd5b6106708282611053565b5050565b600073ffffffffffffffffffffffffffffffffffffffff166002600085815260200190815260200160002060000160009054906101000a900473ffffffffffffffffffffffffffffffffffffffff1673ffffffffffffffffffffffffffffffffffffffff1603610719576040517f08c379a0000000000000000000000000000000000000000000000000000000008152600401610710906120fa565b60405180910390fd5b6002600084815260200190815260200160002060050160003373ffffffffffffffffffffffffffffffffffffffff1673ffffffffffffffffffffffffffffffffffffffff16815260200190815260200160002060009054906101000a900460ff166107b9576040517f08c379a00000000000000000000000000000000000000000000000000000000081526004016107b09061218c565b60405180910390fd5b600073ffffffffffffffffffffffffffffffffffffffff168173ffffffffffffffffffffffffffffffffffffffff161415801561080d57506002600084815260200190815260200160002060030154825110155b61084c576040517f08c379a0000000000000000000000000000000000000000000000000000000008152600401610843906121f8565b60405180910390fd5b60005b825181116109845760006108958560026000888152602001908152602001600020600401548587868151811061088857610887612218565b5b6020026020010151611135565b90506002600086815260200190815260200160002060050160008273ffffffffffffffffffffffffffffffffffffffff1673ffffffffffffffffffffffffffffffffffffffff16815260200190815260200160002060009054906101000a900460ff1680156109315750600073ffffffffffffffffffffffffffffffffffffffff168173ffffffffffffffffffffffffffffffffffffffff1614155b610970576040517f08c379a000000000000000000000000000000000000000000000000000000000815260040161096790612293565b60405180910390fd5b50808061097c906122e2565b91505061084f565b5061098f8382610e95565b6002600084815260200190815260200160002060040160008154809291906109b6906122e2565b9190505550505050565b60006001600084815260200190815260200160002060000160008373ffffffffffffffffffffffffffffffffffffffff1673ffffffffffffffffffffffffffffffffffffffff16815260200190815260200160002060009054906101000a900460ff16905092915050565b6000801b81565b6000426002600084815260200190815260200160002060010154610a56919061232a565b9050919050565b3360026000600354815260200190815260200160002060000160006101000a81548173ffffffffffffffffffffffffffffffffffffffff021916908373ffffffffffffffffffffffffffffffffffffffff1602179055508042610ac0919061235e565b60026000600354815260200190815260200160002060010181905550346002600060035481526020019081526020016000206002018190555060036000815480929190610b0c906122e2565b919050555050565b610b1d82610407565b610b2681610f57565b610b308383611053565b505050565b600060026000838152602001908152602001600020600201549050919050565b60008383905003610b9b576040517f08c379a0000000000000000000000000000000000000000000000000000000008152600401610b92906123de565b60405180910390fd5b3373ffffffffffffffffffffffffffffffffffffffff166002600086815260200190815260200160002060000160009054906101000a900473ffffffffffffffffffffffffffffffffffffffff1673ffffffffffffffffffffffffffffffffffffffff1614610c3f576040517f08c379a0000000000000000000000000000000000000000000000000000000008152600401610c369061244a565b60405180910390fd5b60005b838390508111610d8a57600073ffffffffffffffffffffffffffffffffffffffff16848483818110610c7757610c76612218565b5b9050602002016020810190610c8c919061246a565b73ffffffffffffffffffffffffffffffffffffffff1603610ce2576040517f08c379a0000000000000000000000000000000000000000000000000000000008152600401610cd9906124e3565b60405180910390fd5b60016002600060035481526020019081526020016000206005016000868685818110610d1157610d10612218565b5b9050602002016020810190610d26919061246a565b73ffffffffffffffffffffffffffffffffffffffff1673ffffffffffffffffffffffffffffffffffffffff16815260200190815260200160002060006101000a81548160ff0219169083151502179055508080610d82906122e2565b915050610c42565b5080600260008681526020019081526020016000206003018190555050505050565b60007f01ffc9a7000000000000000000000000000000000000000000000000000000007bffffffffffffffffffffffffffffffffffffffffffffffffffffffff1916827bffffffffffffffffffffffffffffffffffffffffffffffffffffffff1916149050919050565b600081604051602001610e29919061257b565b604051602081830303815290604052805190602001209050919050565b600260005403610e8b576040517f08c379a0000000000000000000000000000000000000000000000000000000008152600401610e82906125ed565b60405180910390fd5b6002600081905550565b4260026000848152602001908152602001600020600101541115610eee576040517f08c379a0000000000000000000000000000000000000000000000000000000008152600401610ee590612659565b60405180910390fd5b60006002600084815260200190815260200160002060020181905550610f4960026000848152602001908152602001600020600201548273ffffffffffffffffffffffffffffffffffffffff1661116990919063ffffffff16565b5050565b6001600081905550565b610f6881610f6361104b565b61125d565b50565b610f7582826109c0565b61104757600180600084815260200190815260200160002060000160008373ffffffffffffffffffffffffffffffffffffffff1673ffffffffffffffffffffffffffffffffffffffff16815260200190815260200160002060006101000a81548160ff021916908315150217905550610fec61104b565b73ffffffffffffffffffffffffffffffffffffffff168173ffffffffffffffffffffffffffffffffffffffff16837f2f8788117e7eff1d82e926ec794901d17c78024a50270940304540a733656f0d60405160405180910390a45b5050565b600033905090565b61105d82826109c0565b156111315760006001600084815260200190815260200160002060000160008373ffffffffffffffffffffffffffffffffffffffff1673ffffffffffffffffffffffffffffffffffffffff16815260200190815260200160002060006101000a81548160ff0219169083151502179055506110d661104b565b73ffffffffffffffffffffffffffffffffffffffff168173ffffffffffffffffffffffffffffffffffffffff16837ff6391f5c32d9c69d2a47ea670b442974b53935d1edc7fd64eb21e047a839171b60405160405180910390a45b5050565b600080611143868686610427565b9050600061115a84836112e290919063ffffffff16565b90508092505050949350505050565b804710156111ac576040517f08c379a00000000000000000000000000000000000000000000000000000000081526004016111a3906126c5565b60405180910390fd5b60008273ffffffffffffffffffffffffffffffffffffffff16826040516111d290612716565b60006040518083038185875af1925050503d806000811461120f576040519150601f19603f3d011682016040523d82523d6000602084013e611214565b606091505b5050905080611258576040517f08c379a000000000000000000000000000000000000000000000000000000000815260040161124f9061279d565b60405180910390fd5b505050565b61126782826109c0565b6112de5761127481611309565b6112828360001c6020611336565b6040516020016112939291906128bb565b6040516020818303038152906040526040517f08c379a00000000000000000000000000000000000000000000000000000000081526004016112d5919061292e565b60405180910390fd5b5050565b60008060006112f18585611572565b915091506112fe816115c3565b819250505092915050565b606061132f8273ffffffffffffffffffffffffffffffffffffffff16601460ff16611336565b9050919050565b6060600060028360026113499190612950565b611353919061235e565b67ffffffffffffffff81111561136c5761136b611ad1565b5b6040519080825280601f01601f19166020018201604052801561139e5781602001600182028036833780820191505090505b5090507f3000000000000000000000000000000000000000000000000000000000000000816000815181106113d6576113d5612218565b5b60200101907effffffffffffffffffffffffffffffffffffffffffffffffffffffffffffff1916908160001a9053507f78000000000000000000000000000000000000000000000000000000000000008160018151811061143a57611439612218565b5b60200101907effffffffffffffffffffffffffffffffffffffffffffffffffffffffffffff1916908160001a9053506000600184600261147a9190612950565b611484919061235e565b90505b6001811115611524577f3031323334353637383961626364656600000000000000000000000000000000600f8616601081106114c6576114c5612218565b5b1a60f81b8282815181106114dd576114dc612218565b5b60200101907effffffffffffffffffffffffffffffffffffffffffffffffffffffffffffff1916908160001a905350600485901c94508061151d90612992565b9050611487565b5060008414611568576040517f08c379a000000000000000000000000000000000000000000000000000000000815260040161155f90612a07565b60405180910390fd5b8091505092915050565b60008060418351036115b35760008060006020860151925060408601519150606086015160001a90506115a787828585611729565b945094505050506115bc565b60006002915091505b9250929050565b600060048111156115d7576115d6612a27565b5b8160048111156115ea576115e9612a27565b5b0315611726576001600481111561160457611603612a27565b5b81600481111561161757611616612a27565b5b03611657576040517f08c379a000000000000000000000000000000000000000000000000000000000815260040161164e90612aa2565b60405180910390fd5b6002600481111561166b5761166a612a27565b5b81600481111561167e5761167d612a27565b5b036116be576040517f08c379a00000000000000000000000000000000000000000000000000000000081526004016116b590612b0e565b60405180910390fd5b600360048111156116d2576116d1612a27565b5b8160048111156116e5576116e4612a27565b5b03611725576040517f08c379a000000000000000000000000000000000000000000000000000000000815260040161171c90612ba0565b60405180910390fd5b5b50565b6000807f7fffffffffffffffffffffffffffffff5d576e7357a4501ddfe92f46681b20a08360001c1115611764576000600391509150611802565b6000600187878787604051600081526020016040526040516117899493929190612bdc565b6020604051602081039080840390855afa1580156117ab573d6000803e3d6000fd5b505050602060405103519050600073ffffffffffffffffffffffffffffffffffffffff168173ffffffffffffffffffffffffffffffffffffffff16036117f957600060019250925050611802565b80600092509250505b94509492505050565b6000604051905090565b600080fd5b600080fd5b60007fffffffff0000000000000000000000000000000000000000000000000000000082169050919050565b6118548161181f565b811461185f57600080fd5b50565b6000813590506118718161184b565b92915050565b60006020828403121561188d5761188c611815565b5b600061189b84828501611862565b91505092915050565b60008115159050919050565b6118b9816118a4565b82525050565b60006020820190506118d460008301846118b0565b92915050565b6000819050919050565b6118ed816118da565b81146118f857600080fd5b50565b60008135905061190a816118e4565b92915050565b60006020828403121561192657611925611815565b5b6000611934848285016118fb565b91505092915050565b611946816118da565b82525050565b6000602082019050611961600083018461193d565b92915050565b6000819050919050565b61197a81611967565b811461198557600080fd5b50565b60008135905061199781611971565b92915050565b600073ffffffffffffffffffffffffffffffffffffffff82169050919050565b60006119c88261199d565b9050919050565b6119d8816119bd565b81146119e357600080fd5b50565b6000813590506119f5816119cf565b92915050565b600080600060608486031215611a1457611a13611815565b5b6000611a2286828701611988565b9350506020611a3386828701611988565b9250506040611a44868287016119e6565b9150509250925092565b600060208284031215611a6457611a63611815565b5b6000611a7284828501611988565b91505092915050565b60008060408385031215611a9257611a91611815565b5b6000611aa0858286016118fb565b9250506020611ab1858286016119e6565b9150509250929050565b600080fd5b6000601f19601f8301169050919050565b7f4e487b7100000000000000000000000000000000000000000000000000000000600052604160045260246000fd5b611b0982611ac0565b810181811067ffffffffffffffff82111715611b2857611b27611ad1565b5b80604052505050565b6000611b3b61180b565b9050611b478282611b00565b919050565b600067ffffffffffffffff821115611b6757611b66611ad1565b5b602082029050602081019050919050565b600080fd5b600080fd5b600067ffffffffffffffff821115611b9d57611b9c611ad1565b5b611ba682611ac0565b9050602081019050919050565b82818337600083830152505050565b6000611bd5611bd084611b82565b611b31565b905082815260208101848484011115611bf157611bf0611b7d565b5b611bfc848285611bb3565b509392505050565b600082601f830112611c1957611c18611abb565b5b8135611c29848260208601611bc2565b91505092915050565b6000611c45611c4084611b4c565b611b31565b90508083825260208201905060208402830185811115611c6857611c67611b78565b5b835b81811015611caf57803567ffffffffffffffff811115611c8d57611c8c611abb565b5b808601611c9a8982611c04565b85526020850194505050602081019050611c6a565b5050509392505050565b600082601f830112611cce57611ccd611abb565b5b8135611cde848260208601611c32565b91505092915050565b6000611cf28261199d565b9050919050565b611d0281611ce7565b8114611d0d57600080fd5b50565b600081359050611d1f81611cf9565b92915050565b600080600060608486031215611d3e57611d3d611815565b5b6000611d4c86828701611988565b935050602084013567ffffffffffffffff811115611d6d57611d6c61181a565b5b611d7986828701611cb9565b9250506040611d8a86828701611d10565b9150509250925092565b611d9d81611967565b82525050565b6000602082019050611db86000830184611d94565b92915050565b600080fd5b60008083601f840112611dd957611dd8611abb565b5b8235905067ffffffffffffffff811115611df657611df5611dbe565b5b602083019150836020820283011115611e1257611e11611b78565b5b9250929050565b60008060008060608587031215611e3357611e32611815565b5b6000611e4187828801611988565b945050602085013567ffffffffffffffff811115611e6257611e6161181a565b5b611e6e87828801611dc3565b93509350506040611e8187828801611988565b91505092959194509250565b600082825260208201905092915050565b7f496e76616c69642049642063616c6c6564000000000000000000000000000000600082015250565b6000611ed4601183611e8d565b9150611edf82611e9e565b602082019050919050565b60006020820190508181036000830152611f0381611ec7565b9050919050565b6000819050919050565b611f25611f2082611967565b611f0a565b82525050565b60008160601b9050919050565b6000611f4382611f2b565b9050919050565b6000611f5582611f38565b9050919050565b611f6d611f68826119bd565b611f4a565b82525050565b6000611f7f8286611f14565b602082019150611f8f8285611f14565b602082019150611f9f8284611f5c565b601482019150819050949350505050565b7f7065726d697373696f6e2064656e696564000000000000000000000000000000600082015250565b6000611fe6601183611e8d565b9150611ff182611fb0565b602082019050919050565b6000602082019050818103600083015261201581611fd9565b9050919050565b7f416363657373436f6e74726f6c3a2063616e206f6e6c792072656e6f756e636560008201527f20726f6c657320666f722073656c660000000000000000000000000000000000602082015250565b6000612078602f83611e8d565b91506120838261201c565b604082019050919050565b600060208201905081810360008301526120a78161206b565b9050919050565b7f496e76616c6964206964206265696e672063616c6c6564000000000000000000600082015250565b60006120e4601783611e8d565b91506120ef826120ae565b602082019050919050565b60006020820190508181036000830152612113816120d7565b9050919050565b7f596f7520646f206e6f742068617665207065726d697373696f6e20666f72207460008201527f6869732069640000000000000000000000000000000000000000000000000000602082015250565b6000612176602683611e8d565b91506121818261211a565b604082019050919050565b600060208201905081810360008301526121a581612169565b9050919050565b7f53656e64696e6720746f2077726f6e6720616464726573730000000000000000600082015250565b60006121e2601883611e8d565b91506121ed826121ac565b602082019050919050565b60006020820190508181036000830152612211816121d5565b9050919050565b7f4e487b7100000000000000000000000000000000000000000000000000000000600052603260045260246000fd5b7f496e76616c6964206164647265737320696e207369676e617475726500000000600082015250565b600061227d601c83611e8d565b915061228882612247565b602082019050919050565b600060208201905081810360008301526122ac81612270565b9050919050565b7f4e487b7100000000000000000000000000000000000000000000000000000000600052601160045260246000fd5b60006122ed82611967565b91507fffffffffffffffffffffffffffffffffffffffffffffffffffffffffffffffff820361231f5761231e6122b3565b5b600182019050919050565b600061233582611967565b915061234083611967565b9250828203905081811115612358576123576122b3565b5b92915050565b600061236982611967565b915061237483611967565b925082820190508082111561238c5761238b6122b3565b5b92915050565b7f4164647265737320617272617920697320300000000000000000000000000000600082015250565b60006123c8601283611e8d565b91506123d382612392565b602082019050919050565b600060208201905081810360008301526123f7816123bb565b9050919050565b7f596f7520646f206e6f742068617665207065726d697373696f6e000000000000600082015250565b6000612434601a83611e8d565b915061243f826123fe565b602082019050919050565b6000602082019050818103600083015261246381612427565b9050919050565b6000602082840312156124805761247f611815565b5b600061248e848285016119e6565b91505092915050565b7f3020616464726573732064657465637465640000000000000000000000000000600082015250565b60006124cd601283611e8d565b91506124d882612497565b602082019050919050565b600060208201905081810360008301526124fc816124c0565b9050919050565b600081905092915050565b7f19457468657265756d205369676e6564204d6573736167653a0a333200000000600082015250565b6000612544601c83612503565b915061254f8261250e565b601c82019050919050565b6000819050919050565b612575612570826118da565b61255a565b82525050565b600061258682612537565b91506125928284612564565b60208201915081905092915050565b7f5265656e7472616e637947756172643a207265656e7472616e742063616c6c00600082015250565b60006125d7601f83611e8d565b91506125e2826125a1565b602082019050919050565b60006020820190508181036000830152612606816125ca565b9050919050565b7f456e6f7567682074696d6520686173206e6f7420706173736564000000000000600082015250565b6000612643601a83611e8d565b915061264e8261260d565b602082019050919050565b6000602082019050818103600083015261267281612636565b9050919050565b7f416464726573733a20696e73756666696369656e742062616c616e6365000000600082015250565b60006126af601d83611e8d565b91506126ba82612679565b602082019050919050565b600060208201905081810360008301526126de816126a2565b9050919050565b600081905092915050565b50565b60006127006000836126e5565b915061270b826126f0565b600082019050919050565b6000612721826126f3565b9150819050919050565b7f416464726573733a20756e61626c6520746f2073656e642076616c75652c207260008201527f6563697069656e74206d61792068617665207265766572746564000000000000602082015250565b6000612787603a83611e8d565b91506127928261272b565b604082019050919050565b600060208201905081810360008301526127b68161277a565b9050919050565b7f416363657373436f6e74726f6c3a206163636f756e7420000000000000000000600082015250565b60006127f3601783612503565b91506127fe826127bd565b601782019050919050565b600081519050919050565b60005b83811015612832578082015181840152602081019050612817565b60008484015250505050565b600061284982612809565b6128538185612503565b9350612863818560208601612814565b80840191505092915050565b7f206973206d697373696e6720726f6c6520000000000000000000000000000000600082015250565b60006128a5601183612503565b91506128b08261286f565b601182019050919050565b60006128c6826127e6565b91506128d2828561283e565b91506128dd82612898565b91506128e9828461283e565b91508190509392505050565b600061290082612809565b61290a8185611e8d565b935061291a818560208601612814565b61292381611ac0565b840191505092915050565b6000602082019050818103600083015261294881846128f5565b905092915050565b600061295b82611967565b915061296683611967565b925082820261297481611967565b9150828204841483151761298b5761298a6122b3565b5b5092915050565b600061299d82611967565b9150600082036129b0576129af6122b3565b5b600182039050919050565b7f537472696e67733a20686578206c656e67746820696e73756666696369656e74600082015250565b60006129f1602083611e8d565b91506129fc826129bb565b602082019050919050565b60006020820190508181036000830152612a20816129e4565b9050919050565b7f4e487b7100000000000000000000000000000000000000000000000000000000600052602160045260246000fd5b7f45434453413a20696e76616c6964207369676e61747572650000000000000000600082015250565b6000612a8c601883611e8d565b9150612a9782612a56565b602082019050919050565b60006020820190508181036000830152612abb81612a7f565b9050919050565b7f45434453413a20696e76616c6964207369676e6174757265206c656e67746800600082015250565b6000612af8601f83611e8d565b9150612b0382612ac2565b602082019050919050565b60006020820190508181036000830152612b2781612aeb565b9050919050565b7f45434453413a20696e76616c6964207369676e6174757265202773272076616c60008201527f7565000000000000000000000000000000000000000000000000000000000000602082015250565b6000612b8a602283611e8d565b9150612b9582612b2e565b604082019050919050565b60006020820190508181036000830152612bb981612b7d565b9050919050565b600060ff82169050919050565b612bd681612bc0565b82525050565b6000608082019050612bf1600083018761193d565b612bfe6020830186612bcd565b612c0b604083018561193d565b612c18606083018461193d565b9594505050505056fea264697066735822122046f255d59b6027fdd5820cd84f4901e89fcec10025f6acf7540f788d512be6a164736f6c63430008110033",
  "linkReferences": {},
  "deployedLinkReferences": {}
}