{
  "_format": "hh-sol-artifact-1",
  "contractName": "TimeLock",
  "sourceName": "contracts/TimeLock.sol",
  "abi": [
    {
      "anonymous": false,
      "inputs": [
        {
          "indexed": true,
          "internalType": "bytes32",
          "name": "role",
          "type": "bytes32"
        },
        {
          "indexed": true,
          "internalType": "bytes32",
          "name": "previousAdminRole",
          "type": "bytes32"
        },
        {
          "indexed": true,
          "internalType": "bytes32",
          "name": "newAdminRole",
          "type": "bytes32"
        }
      ],
      "name": "RoleAdminChanged",
      "type": "event"
    },
    {
      "anonymous": false,
      "inputs": [
        {
          "indexed": true,
          "internalType": "bytes32",
          "name": "role",
          "type": "bytes32"
        },
        {
          "indexed": true,
          "internalType": "address",
          "name": "account",
          "type": "address"
        },
        {
          "indexed": true,
          "internalType": "address",
          "name": "sender",
          "type": "address"
        }
      ],
      "name": "RoleGranted",
      "type": "event"
    },
    {
      "anonymous": false,
      "inputs": [
        {
          "indexed": true,
          "internalType": "bytes32",
          "name": "role",
          "type": "bytes32"
        },
        {
          "indexed": true,
          "internalType": "address",
          "name": "account",
          "type": "address"
        },
        {
          "indexed": true,
          "internalType": "address",
          "name": "sender",
          "type": "address"
        }
      ],
      "name": "RoleRevoked",
      "type": "event"
    },
    {
      "inputs": [
        {
          "internalType": "address",
          "name": "",
          "type": "address"
        },
        {
          "internalType": "uint256",
          "name": "",
          "type": "uint256"
        }
      ],
      "name": "AddressIds",
      "outputs": [
        {
          "internalType": "uint256",
          "name": "",
          "type": "uint256"
        }
      ],
      "stateMutability": "view",
      "type": "function"
    },
    {
      "inputs": [
        {
          "internalType": "uint256",
          "name": "_id",
          "type": "uint256"
        }
      ],
      "name": "CheckAmountDeposited",
      "outputs": [
        {
          "internalType": "uint256",
          "name": "",
          "type": "uint256"
        }
      ],
      "stateMutability": "view",
      "type": "function"
    },
    {
      "inputs": [
        {
          "internalType": "address",
          "name": "_address",
          "type": "address"
        }
      ],
      "name": "CheckId",
      "outputs": [
        {
          "internalType": "uint256[]",
          "name": "",
          "type": "uint256[]"
        }
      ],
      "stateMutability": "view",
      "type": "function"
    },
    {
      "inputs": [
        {
          "internalType": "uint256",
          "name": "_id",
          "type": "uint256"
        },
        {
          "internalType": "uint256",
          "name": "_Nonce",
          "type": "uint256"
        },
        {
          "internalType": "address",
          "name": "_to",
          "type": "address"
        }
      ],
      "name": "CreateMessageToSign",
      "outputs": [
        {
          "internalType": "bytes32",
          "name": "",
          "type": "bytes32"
        }
      ],
      "stateMutability": "view",
      "type": "function"
    },
    {
      "inputs": [],
      "name": "DEFAULT_ADMIN_ROLE",
      "outputs": [
        {
          "internalType": "bytes32",
          "name": "",
          "type": "bytes32"
        }
      ],
      "stateMutability": "view",
      "type": "function"
    },
    {
      "inputs": [
        {
          "internalType": "uint256",
          "name": "_id",
          "type": "uint256"
        },
        {
          "internalType": "bytes[]",
          "name": "signatures",
          "type": "bytes[]"
        },
        {
          "internalType": "address payable",
          "name": "_ToAddress",
          "type": "address"
        }
      ],
      "name": "RecoveryCall",
      "outputs": [],
      "stateMutability": "nonpayable",
      "type": "function"
    },
    {
      "inputs": [
        {
          "internalType": "uint256",
          "name": "_id",
          "type": "uint256"
        },
        {
          "internalType": "address[]",
          "name": "_address",
          "type": "address[]"
        },
        {
          "internalType": "uint256",
          "name": "_MinimumSignatures",
          "type": "uint256"
        }
      ],
      "name": "SetupRecovery",
      "outputs": [],
      "stateMutability": "nonpayable",
      "type": "function"
    },
    {
      "inputs": [
        {
          "internalType": "uint256",
          "name": "_id",
          "type": "uint256"
        }
      ],
      "name": "TimeLeft",
      "outputs": [
        {
          "internalType": "uint256",
          "name": "",
          "type": "uint256"
        }
      ],
      "stateMutability": "view",
      "type": "function"
    },
    {
      "inputs": [],
      "name": "TrustedCaller",
      "outputs": [
        {
          "internalType": "bytes32",
          "name": "",
          "type": "bytes32"
        }
      ],
      "stateMutability": "view",
      "type": "function"
    },
    {
      "inputs": [
        {
          "internalType": "uint256",
          "name": "_SecondsToDeposit",
          "type": "uint256"
        }
      ],
      "name": "deposit",
      "outputs": [],
      "stateMutability": "payable",
      "type": "function"
    },
    {
      "inputs": [
        {
          "internalType": "bytes32",
          "name": "role",
          "type": "bytes32"
        }
      ],
      "name": "getRoleAdmin",
      "outputs": [
        {
          "internalType": "bytes32",
          "name": "",
          "type": "bytes32"
        }
      ],
      "stateMutability": "view",
      "type": "function"
    },
    {
      "inputs": [
        {
          "internalType": "bytes32",
          "name": "role",
          "type": "bytes32"
        },
        {
          "internalType": "address",
          "name": "account",
          "type": "address"
        }
      ],
      "name": "grantRole",
      "outputs": [],
      "stateMutability": "nonpayable",
      "type": "function"
    },
    {
      "inputs": [
        {
          "internalType": "bytes32",
          "name": "role",
          "type": "bytes32"
        },
        {
          "internalType": "address",
          "name": "account",
          "type": "address"
        }
      ],
      "name": "hasRole",
      "outputs": [
        {
          "internalType": "bool",
          "name": "",
          "type": "bool"
        }
      ],
      "stateMutability": "view",
      "type": "function"
    },
    {
      "inputs": [
        {
          "internalType": "bytes32",
          "name": "role",
          "type": "bytes32"
        },
        {
          "internalType": "address",
          "name": "account",
          "type": "address"
        }
      ],
      "name": "renounceRole",
      "outputs": [],
      "stateMutability": "nonpayable",
      "type": "function"
    },
    {
      "inputs": [
        {
          "internalType": "bytes32",
          "name": "role",
          "type": "bytes32"
        },
        {
          "internalType": "address",
          "name": "account",
          "type": "address"
        }
      ],
      "name": "revokeRole",
      "outputs": [],
      "stateMutability": "nonpayable",
      "type": "function"
    },
    {
      "inputs": [
        {
          "internalType": "bytes4",
          "name": "interfaceId",
          "type": "bytes4"
        }
      ],
      "name": "supportsInterface",
      "outputs": [
        {
          "internalType": "bool",
          "name": "",
          "type": "bool"
        }
      ],
      "stateMutability": "view",
      "type": "function"
    },
    {
      "inputs": [
        {
          "internalType": "uint256",
          "name": "_id",
          "type": "uint256"
        }
      ],
      "name": "withdraw",
      "outputs": [],
      "stateMutability": "nonpayable",
      "type": "function"
    }
  ],
  "bytecode": "0x6080604052600160045534801561001557600080fd5b506001600081905550612f9b8061002d6000396000f3fe6080604052600436106100fe5760003560e01c806391d1485411610095578063b6b55f2511610064578063b6b55f251461036b578063d547741f14610387578063d7e48ac5146103b0578063eddf6c54146103ed578063fc9e3bd51461042a576100fe565b806391d148541461029b57806395c11bfb146102d8578063a217fddf14610303578063b0714e771461032e576100fe565b80632f2ff15d116100d15780632f2ff15d146101e357806336568abe1461020c5780633c0af5791461023557806357cd212814610272576100fe565b806301ffc9a714610103578063248a9ca3146101405780632d1703281461017d5780632e1a7d4d146101ba575b600080fd5b34801561010f57600080fd5b5061012a60048036038101906101259190611aec565b610453565b6040516101379190611b34565b60405180910390f35b34801561014c57600080fd5b5061016760048036038101906101629190611b85565b6104cd565b6040516101749190611bc1565b60405180910390f35b34801561018957600080fd5b506101a4600480360381019061019f9190611c70565b6104ed565b6040516101b19190611bc1565b60405180910390f35b3480156101c657600080fd5b506101e160048036038101906101dc9190611cc3565b6105d5565b005b3480156101ef57600080fd5b5061020a60048036038101906102059190611cf0565b610696565b005b34801561021857600080fd5b50610233600480360381019061022e9190611cf0565b6106b7565b005b34801561024157600080fd5b5061025c60048036038101906102579190611d30565b61073a565b6040516102699190611e1b565b60405180910390f35b34801561027e57600080fd5b50610299600480360381019061029491906120a7565b6107d1565b005b3480156102a757600080fd5b506102c260048036038101906102bd9190611cf0565b610adc565b6040516102cf9190611b34565b60405180910390f35b3480156102e457600080fd5b506102ed610b47565b6040516102fa9190611bc1565b60405180910390f35b34801561030f57600080fd5b50610318610b6b565b6040516103259190611bc1565b60405180910390f35b34801561033a57600080fd5b5061035560048036038101906103509190611cc3565b610b72565b6040516103629190612125565b60405180910390f35b61038560048036038101906103809190611cc3565b610b9d565b005b34801561039357600080fd5b506103ae60048036038101906103a99190611cf0565b610d01565b005b3480156103bc57600080fd5b506103d760048036038101906103d29190612140565b610d22565b6040516103e49190612125565b60405180910390f35b3480156103f957600080fd5b50610414600480360381019061040f9190611cc3565b610d53565b6040516104219190612125565b60405180910390f35b34801561043657600080fd5b50610451600480360381019061044c91906121db565b610d73565b005b60007f7965db0b000000000000000000000000000000000000000000000000000000007bffffffffffffffffffffffffffffffffffffffffffffffffffffffff1916827bffffffffffffffffffffffffffffffffffffffffffffffffffffffff191614806104c657506104c582611011565b5b9050919050565b600060016000838152602001908152602001600020600101549050919050565b60008073ffffffffffffffffffffffffffffffffffffffff166002600086815260200190815260200160002060000160009054906101000a900473ffffffffffffffffffffffffffffffffffffffff1673ffffffffffffffffffffffffffffffffffffffff1603610593576040517f08c379a000000000000000000000000000000000000000000000000000000000815260040161058a906122ac565b60405180910390fd5b60008484846040516020016105aa93929190612335565b6040516020818303038152906040528051906020012090506105cb8161107b565b9150509392505050565b6105dd6110ab565b3373ffffffffffffffffffffffffffffffffffffffff166002600083815260200190815260200160002060000160009054906101000a900473ffffffffffffffffffffffffffffffffffffffff1673ffffffffffffffffffffffffffffffffffffffff1614610681576040517f08c379a0000000000000000000000000000000000000000000000000000000008152600401610678906123be565b60405180910390fd5b61068b81336110fa565b6106936111c2565b50565b61069f826104cd565b6106a8816111cc565b6106b283836111e0565b505050565b6106bf6112c0565b73ffffffffffffffffffffffffffffffffffffffff168173ffffffffffffffffffffffffffffffffffffffff161461072c576040517f08c379a000000000000000000000000000000000000000000000000000000000815260040161072390612450565b60405180910390fd5b61073682826112c8565b5050565b6060600360008373ffffffffffffffffffffffffffffffffffffffff1673ffffffffffffffffffffffffffffffffffffffff1681526020019081526020016000208054806020026020016040519081016040528092919081815260200182805480156107c557602002820191906000526020600020905b8154815260200190600101908083116107b1575b50505050509050919050565b600073ffffffffffffffffffffffffffffffffffffffff166002600085815260200190815260200160002060000160009054906101000a900473ffffffffffffffffffffffffffffffffffffffff1673ffffffffffffffffffffffffffffffffffffffff161415801561085b57506002600084815260200190815260200160002060030154825110155b61089a576040517f08c379a0000000000000000000000000000000000000000000000000000000008152600401610891906124bc565b60405180910390fd5b6108ba600260008581526020019081526020016000206005015433610adc565b6108f9576040517f08c379a00000000000000000000000000000000000000000000000000000000081526004016108f09061254e565b60405180910390fd5b600073ffffffffffffffffffffffffffffffffffffffff168173ffffffffffffffffffffffffffffffffffffffff1603610968576040517f08c379a000000000000000000000000000000000000000000000000000000000815260040161095f906125ba565b60405180910390fd5b60005b82518111610aa05760006109b1856002600088815260200190815260200160002060040154858786815181106109a4576109a36125da565b5b60200260200101516113aa565b90506002600086815260200190815260200160002060060160008273ffffffffffffffffffffffffffffffffffffffff1673ffffffffffffffffffffffffffffffffffffffff16815260200190815260200160002060009054906101000a900460ff168015610a4d5750600073ffffffffffffffffffffffffffffffffffffffff168173ffffffffffffffffffffffffffffffffffffffff1614155b610a8c576040517f08c379a0000000000000000000000000000000000000000000000000000000008152600401610a8390612655565b60405180910390fd5b508080610a98906126a4565b91505061096b565b50610aab83826110fa565b600260008481526020019081526020016000206004016000815480929190610ad2906126a4565b9190505550505050565b60006001600084815260200190815260200160002060000160008373ffffffffffffffffffffffffffffffffffffffff1673ffffffffffffffffffffffffffffffffffffffff16815260200190815260200160002060009054906101000a900460ff16905092915050565b7ff65839ab15f9633adb4e004a9dc671a2af65d87fbe26919267167ea5350c6f4f81565b6000801b81565b6000426002600084815260200190815260200160002060010154610b9691906126ec565b9050919050565b3360026000600454815260200190815260200160002060000160006101000a81548173ffffffffffffffffffffffffffffffffffffffff021916908373ffffffffffffffffffffffffffffffffffffffff1602179055508042610c009190612720565b600260006004548152602001908152602001600020600101819055503460026000600454815260200190815260200160002060020181905550600360003373ffffffffffffffffffffffffffffffffffffffff1673ffffffffffffffffffffffffffffffffffffffff1681526020019081526020016000206004549080600181540180825580915050600190039060005260206000200160009091909190915055600454604051602001610cb49190612754565b604051602081830303815290604052805190602001206002600060045481526020019081526020016000206005018190555060046000815480929190610cf9906126a4565b919050555050565b610d0a826104cd565b610d13816111cc565b610d1d83836112c8565b505050565b60036020528160005260406000208181548110610d3e57600080fd5b90600052602060002001600091509150505481565b600060026000838152602001908152602001600020600201549050919050565b60008383905003610db9576040517f08c379a0000000000000000000000000000000000000000000000000000000008152600401610db0906127bb565b60405180910390fd5b3373ffffffffffffffffffffffffffffffffffffffff166002600086815260200190815260200160002060000160009054906101000a900473ffffffffffffffffffffffffffffffffffffffff1673ffffffffffffffffffffffffffffffffffffffff1614610e5d576040517f08c379a0000000000000000000000000000000000000000000000000000000008152600401610e54906122ac565b60405180910390fd5b60005b838390508111610fef57600073ffffffffffffffffffffffffffffffffffffffff16848483818110610e9557610e946125da565b5b9050602002016020810190610eaa9190611d30565b73ffffffffffffffffffffffffffffffffffffffff1603610f00576040517f08c379a0000000000000000000000000000000000000000000000000000000008152600401610ef790612827565b60405180910390fd5b60016002600060045481526020019081526020016000206006016000868685818110610f2f57610f2e6125da565b5b9050602002016020810190610f449190611d30565b73ffffffffffffffffffffffffffffffffffffffff1673ffffffffffffffffffffffffffffffffffffffff16815260200190815260200160002060006101000a81548160ff021916908315150217905550610fdc6002600087815260200190815260200160002060050154858584818110610fc257610fc16125da565b5b9050602002016020810190610fd79190611d30565b610696565b8080610fe7906126a4565b915050610e60565b5080600260008681526020019081526020016000206003018190555050505050565b60007f01ffc9a7000000000000000000000000000000000000000000000000000000007bffffffffffffffffffffffffffffffffffffffffffffffffffffffff1916827bffffffffffffffffffffffffffffffffffffffffffffffffffffffff1916149050919050565b60008160405160200161108e91906128bf565b604051602081830303815290604052805190602001209050919050565b6002600054036110f0576040517f08c379a00000000000000000000000000000000000000000000000000000000081526004016110e790612931565b60405180910390fd5b6002600081905550565b6111026110ab565b426002600084815260200190815260200160002060010154111561115b576040517f08c379a00000000000000000000000000000000000000000000000000000000081526004016111529061299d565b60405180910390fd5b600060026000848152602001908152602001600020600201819055506111b660026000848152602001908152602001600020600201548273ffffffffffffffffffffffffffffffffffffffff166113de90919063ffffffff16565b6111be6111c2565b5050565b6001600081905550565b6111dd816111d86112c0565b6114d2565b50565b6111ea8282610adc565b6112bc57600180600084815260200190815260200160002060000160008373ffffffffffffffffffffffffffffffffffffffff1673ffffffffffffffffffffffffffffffffffffffff16815260200190815260200160002060006101000a81548160ff0219169083151502179055506112616112c0565b73ffffffffffffffffffffffffffffffffffffffff168173ffffffffffffffffffffffffffffffffffffffff16837f2f8788117e7eff1d82e926ec794901d17c78024a50270940304540a733656f0d60405160405180910390a45b5050565b600033905090565b6112d28282610adc565b156113a65760006001600084815260200190815260200160002060000160008373ffffffffffffffffffffffffffffffffffffffff1673ffffffffffffffffffffffffffffffffffffffff16815260200190815260200160002060006101000a81548160ff02191690831515021790555061134b6112c0565b73ffffffffffffffffffffffffffffffffffffffff168173ffffffffffffffffffffffffffffffffffffffff16837ff6391f5c32d9c69d2a47ea670b442974b53935d1edc7fd64eb21e047a839171b60405160405180910390a45b5050565b6000806113b88686866104ed565b905060006113cf848361155790919063ffffffff16565b90508092505050949350505050565b80471015611421576040517f08c379a000000000000000000000000000000000000000000000000000000000815260040161141890612a09565b60405180910390fd5b60008273ffffffffffffffffffffffffffffffffffffffff168260405161144790612a5a565b60006040518083038185875af1925050503d8060008114611484576040519150601f19603f3d011682016040523d82523d6000602084013e611489565b606091505b50509050806114cd576040517f08c379a00000000000000000000000000000000000000000000000000000000081526004016114c490612ae1565b60405180910390fd5b505050565b6114dc8282610adc565b611553576114e98161157e565b6114f78360001c60206115ab565b604051602001611508929190612bff565b6040516020818303038152906040526040517f08c379a000000000000000000000000000000000000000000000000000000000815260040161154a9190612c72565b60405180910390fd5b5050565b600080600061156685856117e7565b9150915061157381611838565b819250505092915050565b60606115a48273ffffffffffffffffffffffffffffffffffffffff16601460ff166115ab565b9050919050565b6060600060028360026115be9190612c94565b6115c89190612720565b67ffffffffffffffff8111156115e1576115e0611e53565b5b6040519080825280601f01601f1916602001820160405280156116135781602001600182028036833780820191505090505b5090507f30000000000000000000000000000000000000000000000000000000000000008160008151811061164b5761164a6125da565b5b60200101907effffffffffffffffffffffffffffffffffffffffffffffffffffffffffffff1916908160001a9053507f7800000000000000000000000000000000000000000000000000000000000000816001815181106116af576116ae6125da565b5b60200101907effffffffffffffffffffffffffffffffffffffffffffffffffffffffffffff1916908160001a905350600060018460026116ef9190612c94565b6116f99190612720565b90505b6001811115611799577f3031323334353637383961626364656600000000000000000000000000000000600f86166010811061173b5761173a6125da565b5b1a60f81b828281518110611752576117516125da565b5b60200101907effffffffffffffffffffffffffffffffffffffffffffffffffffffffffffff1916908160001a905350600485901c94508061179290612cd6565b90506116fc565b50600084146117dd576040517f08c379a00000000000000000000000000000000000000000000000000000000081526004016117d490612d4b565b60405180910390fd5b8091505092915050565b60008060418351036118285760008060006020860151925060408601519150606086015160001a905061181c8782858561199e565b94509450505050611831565b60006002915091505b9250929050565b6000600481111561184c5761184b612d6b565b5b81600481111561185f5761185e612d6b565b5b031561199b576001600481111561187957611878612d6b565b5b81600481111561188c5761188b612d6b565b5b036118cc576040517f08c379a00000000000000000000000000000000000000000000000000000000081526004016118c390612de6565b60405180910390fd5b600260048111156118e0576118df612d6b565b5b8160048111156118f3576118f2612d6b565b5b03611933576040517f08c379a000000000000000000000000000000000000000000000000000000000815260040161192a90612e52565b60405180910390fd5b6003600481111561194757611946612d6b565b5b81600481111561195a57611959612d6b565b5b0361199a576040517f08c379a000000000000000000000000000000000000000000000000000000000815260040161199190612ee4565b60405180910390fd5b5b50565b6000807f7fffffffffffffffffffffffffffffff5d576e7357a4501ddfe92f46681b20a08360001c11156119d9576000600391509150611a77565b6000600187878787604051600081526020016040526040516119fe9493929190612f20565b6020604051602081039080840390855afa158015611a20573d6000803e3d6000fd5b505050602060405103519050600073ffffffffffffffffffffffffffffffffffffffff168173ffffffffffffffffffffffffffffffffffffffff1603611a6e57600060019250925050611a77565b80600092509250505b94509492505050565b6000604051905090565b600080fd5b600080fd5b60007fffffffff0000000000000000000000000000000000000000000000000000000082169050919050565b611ac981611a94565b8114611ad457600080fd5b50565b600081359050611ae681611ac0565b92915050565b600060208284031215611b0257611b01611a8a565b5b6000611b1084828501611ad7565b91505092915050565b60008115159050919050565b611b2e81611b19565b82525050565b6000602082019050611b496000830184611b25565b92915050565b6000819050919050565b611b6281611b4f565b8114611b6d57600080fd5b50565b600081359050611b7f81611b59565b92915050565b600060208284031215611b9b57611b9a611a8a565b5b6000611ba984828501611b70565b91505092915050565b611bbb81611b4f565b82525050565b6000602082019050611bd66000830184611bb2565b92915050565b6000819050919050565b611bef81611bdc565b8114611bfa57600080fd5b50565b600081359050611c0c81611be6565b92915050565b600073ffffffffffffffffffffffffffffffffffffffff82169050919050565b6000611c3d82611c12565b9050919050565b611c4d81611c32565b8114611c5857600080fd5b50565b600081359050611c6a81611c44565b92915050565b600080600060608486031215611c8957611c88611a8a565b5b6000611c9786828701611bfd565b9350506020611ca886828701611bfd565b9250506040611cb986828701611c5b565b9150509250925092565b600060208284031215611cd957611cd8611a8a565b5b6000611ce784828501611bfd565b91505092915050565b60008060408385031215611d0757611d06611a8a565b5b6000611d1585828601611b70565b9250506020611d2685828601611c5b565b9150509250929050565b600060208284031215611d4657611d45611a8a565b5b6000611d5484828501611c5b565b91505092915050565b600081519050919050565b600082825260208201905092915050565b6000819050602082019050919050565b611d9281611bdc565b82525050565b6000611da48383611d89565b60208301905092915050565b6000602082019050919050565b6000611dc882611d5d565b611dd28185611d68565b9350611ddd83611d79565b8060005b83811015611e0e578151611df58882611d98565b9750611e0083611db0565b925050600181019050611de1565b5085935050505092915050565b60006020820190508181036000830152611e358184611dbd565b905092915050565b600080fd5b6000601f19601f8301169050919050565b7f4e487b7100000000000000000000000000000000000000000000000000000000600052604160045260246000fd5b611e8b82611e42565b810181811067ffffffffffffffff82111715611eaa57611ea9611e53565b5b80604052505050565b6000611ebd611a80565b9050611ec98282611e82565b919050565b600067ffffffffffffffff821115611ee957611ee8611e53565b5b602082029050602081019050919050565b600080fd5b600080fd5b600067ffffffffffffffff821115611f1f57611f1e611e53565b5b611f2882611e42565b9050602081019050919050565b82818337600083830152505050565b6000611f57611f5284611f04565b611eb3565b905082815260208101848484011115611f7357611f72611eff565b5b611f7e848285611f35565b509392505050565b600082601f830112611f9b57611f9a611e3d565b5b8135611fab848260208601611f44565b91505092915050565b6000611fc7611fc284611ece565b611eb3565b90508083825260208201905060208402830185811115611fea57611fe9611efa565b5b835b8181101561203157803567ffffffffffffffff81111561200f5761200e611e3d565b5b80860161201c8982611f86565b85526020850194505050602081019050611fec565b5050509392505050565b600082601f8301126120505761204f611e3d565b5b8135612060848260208601611fb4565b91505092915050565b600061207482611c12565b9050919050565b61208481612069565b811461208f57600080fd5b50565b6000813590506120a18161207b565b92915050565b6000806000606084860312156120c0576120bf611a8a565b5b60006120ce86828701611bfd565b935050602084013567ffffffffffffffff8111156120ef576120ee611a8f565b5b6120fb8682870161203b565b925050604061210c86828701612092565b9150509250925092565b61211f81611bdc565b82525050565b600060208201905061213a6000830184612116565b92915050565b6000806040838503121561215757612156611a8a565b5b600061216585828601611c5b565b925050602061217685828601611bfd565b9150509250929050565b600080fd5b60008083601f84011261219b5761219a611e3d565b5b8235905067ffffffffffffffff8111156121b8576121b7612180565b5b6020830191508360208202830111156121d4576121d3611efa565b5b9250929050565b600080600080606085870312156121f5576121f4611a8a565b5b600061220387828801611bfd565b945050602085013567ffffffffffffffff81111561222457612223611a8f565b5b61223087828801612185565b9350935050604061224387828801611bfd565b91505092959194509250565b600082825260208201905092915050565b7f496e76616c69642049642063616c6c6564000000000000000000000000000000600082015250565b600061229660118361224f565b91506122a182612260565b602082019050919050565b600060208201905081810360008301526122c581612289565b9050919050565b6000819050919050565b6122e76122e282611bdc565b6122cc565b82525050565b60008160601b9050919050565b6000612305826122ed565b9050919050565b6000612317826122fa565b9050919050565b61232f61232a82611c32565b61230c565b82525050565b600061234182866122d6565b60208201915061235182856122d6565b602082019150612361828461231e565b601482019150819050949350505050565b7f7065726d697373696f6e2064656e696564000000000000000000000000000000600082015250565b60006123a860118361224f565b91506123b382612372565b602082019050919050565b600060208201905081810360008301526123d78161239b565b9050919050565b7f416363657373436f6e74726f6c3a2063616e206f6e6c792072656e6f756e636560008201527f20726f6c657320666f722073656c660000000000000000000000000000000000602082015250565b600061243a602f8361224f565b9150612445826123de565b604082019050919050565b600060208201905081810360008301526124698161242d565b9050919050565b7f496e76616c6964206964206265696e672063616c6c6564000000000000000000600082015250565b60006124a660178361224f565b91506124b182612470565b602082019050919050565b600060208201905081810360008301526124d581612499565b9050919050565b7f596f7520646f206e6f742068617665207065726d697373696f6e20666f72207460008201527f6869732069640000000000000000000000000000000000000000000000000000602082015250565b600061253860268361224f565b9150612543826124dc565b604082019050919050565b600060208201905081810360008301526125678161252b565b9050919050565b7f53656e64696e6720746f2077726f6e6720616464726573730000000000000000600082015250565b60006125a460188361224f565b91506125af8261256e565b602082019050919050565b600060208201905081810360008301526125d381612597565b9050919050565b7f4e487b7100000000000000000000000000000000000000000000000000000000600052603260045260246000fd5b7f496e76616c6964206164647265737320696e207369676e617475726500000000600082015250565b600061263f601c8361224f565b915061264a82612609565b602082019050919050565b6000602082019050818103600083015261266e81612632565b9050919050565b7f4e487b7100000000000000000000000000000000000000000000000000000000600052601160045260246000fd5b60006126af82611bdc565b91507fffffffffffffffffffffffffffffffffffffffffffffffffffffffffffffffff82036126e1576126e0612675565b5b600182019050919050565b60006126f782611bdc565b915061270283611bdc565b925082820390508181111561271a57612719612675565b5b92915050565b600061272b82611bdc565b915061273683611bdc565b925082820190508082111561274e5761274d612675565b5b92915050565b600061276082846122d6565b60208201915081905092915050565b7f4164647265737320617272617920697320300000000000000000000000000000600082015250565b60006127a560128361224f565b91506127b08261276f565b602082019050919050565b600060208201905081810360008301526127d481612798565b9050919050565b7f3020616464726573732064657465637465640000000000000000000000000000600082015250565b600061281160128361224f565b915061281c826127db565b602082019050919050565b6000602082019050818103600083015261284081612804565b9050919050565b600081905092915050565b7f19457468657265756d205369676e6564204d6573736167653a0a333200000000600082015250565b6000612888601c83612847565b915061289382612852565b601c82019050919050565b6000819050919050565b6128b96128b482611b4f565b61289e565b82525050565b60006128ca8261287b565b91506128d682846128a8565b60208201915081905092915050565b7f5265656e7472616e637947756172643a207265656e7472616e742063616c6c00600082015250565b600061291b601f8361224f565b9150612926826128e5565b602082019050919050565b6000602082019050818103600083015261294a8161290e565b9050919050565b7f456e6f7567682074696d6520686173206e6f7420706173736564000000000000600082015250565b6000612987601a8361224f565b915061299282612951565b602082019050919050565b600060208201905081810360008301526129b68161297a565b9050919050565b7f416464726573733a20696e73756666696369656e742062616c616e6365000000600082015250565b60006129f3601d8361224f565b91506129fe826129bd565b602082019050919050565b60006020820190508181036000830152612a22816129e6565b9050919050565b600081905092915050565b50565b6000612a44600083612a29565b9150612a4f82612a34565b600082019050919050565b6000612a6582612a37565b9150819050919050565b7f416464726573733a20756e61626c6520746f2073656e642076616c75652c207260008201527f6563697069656e74206d61792068617665207265766572746564000000000000602082015250565b6000612acb603a8361224f565b9150612ad682612a6f565b604082019050919050565b60006020820190508181036000830152612afa81612abe565b9050919050565b7f416363657373436f6e74726f6c3a206163636f756e7420000000000000000000600082015250565b6000612b37601783612847565b9150612b4282612b01565b601782019050919050565b600081519050919050565b60005b83811015612b76578082015181840152602081019050612b5b565b60008484015250505050565b6000612b8d82612b4d565b612b978185612847565b9350612ba7818560208601612b58565b80840191505092915050565b7f206973206d697373696e6720726f6c6520000000000000000000000000000000600082015250565b6000612be9601183612847565b9150612bf482612bb3565b601182019050919050565b6000612c0a82612b2a565b9150612c168285612b82565b9150612c2182612bdc565b9150612c2d8284612b82565b91508190509392505050565b6000612c4482612b4d565b612c4e818561224f565b9350612c5e818560208601612b58565b612c6781611e42565b840191505092915050565b60006020820190508181036000830152612c8c8184612c39565b905092915050565b6000612c9f82611bdc565b9150612caa83611bdc565b9250828202612cb881611bdc565b91508282048414831517612ccf57612cce612675565b5b5092915050565b6000612ce182611bdc565b915060008203612cf457612cf3612675565b5b600182039050919050565b7f537472696e67733a20686578206c656e67746820696e73756666696369656e74600082015250565b6000612d3560208361224f565b9150612d4082612cff565b602082019050919050565b60006020820190508181036000830152612d6481612d28565b9050919050565b7f4e487b7100000000000000000000000000000000000000000000000000000000600052602160045260246000fd5b7f45434453413a20696e76616c6964207369676e61747572650000000000000000600082015250565b6000612dd060188361224f565b9150612ddb82612d9a565b602082019050919050565b60006020820190508181036000830152612dff81612dc3565b9050919050565b7f45434453413a20696e76616c6964207369676e6174757265206c656e67746800600082015250565b6000612e3c601f8361224f565b9150612e4782612e06565b602082019050919050565b60006020820190508181036000830152612e6b81612e2f565b9050919050565b7f45434453413a20696e76616c6964207369676e6174757265202773272076616c60008201527f7565000000000000000000000000000000000000000000000000000000000000602082015250565b6000612ece60228361224f565b9150612ed982612e72565b604082019050919050565b60006020820190508181036000830152612efd81612ec1565b9050919050565b600060ff82169050919050565b612f1a81612f04565b82525050565b6000608082019050612f356000830187611bb2565b612f426020830186612f11565b612f4f6040830185611bb2565b612f5c6060830184611bb2565b9594505050505056fea264697066735822122067ab85c7d51801beee71883a58eb7a71898a0eb15fa882b7c0866d61cc4df3ce64736f6c63430008110033",
  "linkReferences": {},
  "deployedLinkReferences": {}
}