{
  "_format": "hh-sol-artifact-1",
  "contractName": "TimeLock",
  "sourceName": "contracts/TimeLock.sol",
  "abi": [
    {
      "anonymous": false,
      "inputs": [
        {
          "indexed": true,
          "internalType": "bytes32",
          "name": "role",
          "type": "bytes32"
        },
        {
          "indexed": true,
          "internalType": "bytes32",
          "name": "previousAdminRole",
          "type": "bytes32"
        },
        {
          "indexed": true,
          "internalType": "bytes32",
          "name": "newAdminRole",
          "type": "bytes32"
        }
      ],
      "name": "RoleAdminChanged",
      "type": "event"
    },
    {
      "anonymous": false,
      "inputs": [
        {
          "indexed": true,
          "internalType": "bytes32",
          "name": "role",
          "type": "bytes32"
        },
        {
          "indexed": true,
          "internalType": "address",
          "name": "account",
          "type": "address"
        },
        {
          "indexed": true,
          "internalType": "address",
          "name": "sender",
          "type": "address"
        }
      ],
      "name": "RoleGranted",
      "type": "event"
    },
    {
      "anonymous": false,
      "inputs": [
        {
          "indexed": true,
          "internalType": "bytes32",
          "name": "role",
          "type": "bytes32"
        },
        {
          "indexed": true,
          "internalType": "address",
          "name": "account",
          "type": "address"
        },
        {
          "indexed": true,
          "internalType": "address",
          "name": "sender",
          "type": "address"
        }
      ],
      "name": "RoleRevoked",
      "type": "event"
    },
    {
      "stateMutability": "payable",
      "type": "fallback"
    },
    {
      "inputs": [
        {
          "internalType": "uint256",
          "name": "_id",
          "type": "uint256"
        },
        {
          "internalType": "address[]",
          "name": "_address",
          "type": "address[]"
        },
        {
          "internalType": "uint256",
          "name": "_MinimumSignatures",
          "type": "uint256"
        }
      ],
      "name": "AddSigners",
      "outputs": [],
      "stateMutability": "nonpayable",
      "type": "function"
    },
    {
      "inputs": [
        {
          "internalType": "uint256",
          "name": "_id",
          "type": "uint256"
        }
      ],
      "name": "CheckAmountDeposited",
      "outputs": [
        {
          "internalType": "uint256",
          "name": "",
          "type": "uint256"
        }
      ],
      "stateMutability": "view",
      "type": "function"
    },
    {
      "inputs": [
        {
          "internalType": "uint256",
          "name": "_id",
          "type": "uint256"
        }
      ],
      "name": "CheckDeposit",
      "outputs": [
        {
          "internalType": "address",
          "name": "",
          "type": "address"
        }
      ],
      "stateMutability": "view",
      "type": "function"
    },
    {
      "inputs": [
        {
          "internalType": "uint256",
          "name": "_id",
          "type": "uint256"
        },
        {
          "internalType": "address",
          "name": "_address",
          "type": "address"
        }
      ],
      "name": "CheckIsVerified",
      "outputs": [
        {
          "internalType": "bool",
          "name": "",
          "type": "bool"
        }
      ],
      "stateMutability": "view",
      "type": "function"
    },
    {
      "inputs": [
        {
          "internalType": "uint256",
          "name": "_id",
          "type": "uint256"
        },
        {
          "internalType": "uint256",
          "name": "_Nonce",
          "type": "uint256"
        },
        {
          "internalType": "address",
          "name": "_to",
          "type": "address"
        }
      ],
      "name": "CreateMessageToSign",
      "outputs": [
        {
          "internalType": "bytes32",
          "name": "",
          "type": "bytes32"
        }
      ],
      "stateMutability": "view",
      "type": "function"
    },
    {
      "inputs": [],
      "name": "DEFAULT_ADMIN_ROLE",
      "outputs": [
        {
          "internalType": "bytes32",
          "name": "",
          "type": "bytes32"
        }
      ],
      "stateMutability": "view",
      "type": "function"
    },
    {
      "inputs": [
        {
          "internalType": "uint256",
          "name": "",
          "type": "uint256"
        }
      ],
      "name": "DepositForEachId",
      "outputs": [
        {
          "internalType": "address",
          "name": "DepositAddress",
          "type": "address"
        },
        {
          "internalType": "uint256",
          "name": "LockedUntil",
          "type": "uint256"
        },
        {
          "internalType": "uint256",
          "name": "Value",
          "type": "uint256"
        },
        {
          "internalType": "uint256",
          "name": "MinimumSignatures",
          "type": "uint256"
        },
        {
          "internalType": "uint256",
          "name": "Nonce",
          "type": "uint256"
        }
      ],
      "stateMutability": "view",
      "type": "function"
    },
    {
      "inputs": [],
      "name": "Id",
      "outputs": [
        {
          "internalType": "uint256",
          "name": "",
          "type": "uint256"
        }
      ],
      "stateMutability": "view",
      "type": "function"
    },
    {
      "inputs": [
        {
          "internalType": "uint256",
          "name": "_id",
          "type": "uint256"
        },
        {
          "internalType": "bytes[]",
          "name": "signatures",
          "type": "bytes[]"
        },
        {
          "internalType": "address payable",
          "name": "_ToAddress",
          "type": "address"
        }
      ],
      "name": "RecoveryCall",
      "outputs": [],
      "stateMutability": "nonpayable",
      "type": "function"
    },
    {
      "inputs": [
        {
          "internalType": "uint256",
          "name": "_id",
          "type": "uint256"
        },
        {
          "internalType": "address[]",
          "name": "_address",
          "type": "address[]"
        },
        {
          "internalType": "uint256",
          "name": "_MinimumSignatures",
          "type": "uint256"
        }
      ],
      "name": "RemoveSigners",
      "outputs": [],
      "stateMutability": "nonpayable",
      "type": "function"
    },
    {
      "inputs": [
        {
          "internalType": "uint256",
          "name": "_id",
          "type": "uint256"
        }
      ],
      "name": "TimeLeft",
      "outputs": [
        {
          "internalType": "uint256",
          "name": "",
          "type": "uint256"
        }
      ],
      "stateMutability": "view",
      "type": "function"
    },
    {
      "inputs": [
        {
          "internalType": "uint256",
          "name": "_id",
          "type": "uint256"
        },
        {
          "internalType": "uint256",
          "name": "_MinimumSignatures",
          "type": "uint256"
        }
      ],
      "name": "UpdateSignatures",
      "outputs": [],
      "stateMutability": "nonpayable",
      "type": "function"
    },
    {
      "inputs": [
        {
          "internalType": "uint256",
          "name": "_id",
          "type": "uint256"
        }
      ],
      "name": "ViewMinimumSignatures",
      "outputs": [
        {
          "internalType": "uint256",
          "name": "",
          "type": "uint256"
        }
      ],
      "stateMutability": "view",
      "type": "function"
    },
    {
      "inputs": [
        {
          "internalType": "uint256",
          "name": "_SecondsToDeposit",
          "type": "uint256"
        }
      ],
      "name": "deposit",
      "outputs": [],
      "stateMutability": "payable",
      "type": "function"
    },
    {
      "inputs": [
        {
          "internalType": "bytes32",
          "name": "role",
          "type": "bytes32"
        }
      ],
      "name": "getRoleAdmin",
      "outputs": [
        {
          "internalType": "bytes32",
          "name": "",
          "type": "bytes32"
        }
      ],
      "stateMutability": "view",
      "type": "function"
    },
    {
      "inputs": [
        {
          "internalType": "bytes32",
          "name": "role",
          "type": "bytes32"
        },
        {
          "internalType": "address",
          "name": "account",
          "type": "address"
        }
      ],
      "name": "grantRole",
      "outputs": [],
      "stateMutability": "nonpayable",
      "type": "function"
    },
    {
      "inputs": [
        {
          "internalType": "bytes32",
          "name": "role",
          "type": "bytes32"
        },
        {
          "internalType": "address",
          "name": "account",
          "type": "address"
        }
      ],
      "name": "hasRole",
      "outputs": [
        {
          "internalType": "bool",
          "name": "",
          "type": "bool"
        }
      ],
      "stateMutability": "view",
      "type": "function"
    },
    {
      "inputs": [
        {
          "internalType": "bytes32",
          "name": "role",
          "type": "bytes32"
        },
        {
          "internalType": "address",
          "name": "account",
          "type": "address"
        }
      ],
      "name": "renounceRole",
      "outputs": [],
      "stateMutability": "nonpayable",
      "type": "function"
    },
    {
      "inputs": [
        {
          "internalType": "bytes32",
          "name": "role",
          "type": "bytes32"
        },
        {
          "internalType": "address",
          "name": "account",
          "type": "address"
        }
      ],
      "name": "revokeRole",
      "outputs": [],
      "stateMutability": "nonpayable",
      "type": "function"
    },
    {
      "inputs": [
        {
          "internalType": "bytes4",
          "name": "interfaceId",
          "type": "bytes4"
        }
      ],
      "name": "supportsInterface",
      "outputs": [
        {
          "internalType": "bool",
          "name": "",
          "type": "bool"
        }
      ],
      "stateMutability": "view",
      "type": "function"
    },
    {
      "inputs": [
        {
          "internalType": "uint256",
          "name": "_id",
          "type": "uint256"
        }
      ],
      "name": "withdraw",
      "outputs": [],
      "stateMutability": "nonpayable",
      "type": "function"
    },
    {
      "stateMutability": "payable",
      "type": "receive"
    }
  ],
  "bytecode": "0x6080604052600160035534801561001557600080fd5b506001600055611ccb8061002a6000396000f3fe60806040526004361061016e5760003560e01c80636a6e804e116100cb578063b0714e771161007f578063da5b75ba11610059578063da5b75ba146104a3578063e30ecf53146104f1578063eddf6c5414610577576101b3565b8063b0714e7714610450578063b6b55f2514610470578063d547741f14610483576101b3565b806371ceb24c116100b057806371ceb24c146103c557806391d14854146103f5578063a217fddf1461043b576101b3565b80636a6e804e1461035b5780636fbd1fc7146103a5576101b3565b80632e1a7d4d1161012257806336568abe1161010757806336568abe1461030557806339a090c91461032557806357cd21281461033b576101b3565b80632e1a7d4d146102c55780632f2ff15d146102e5576101b3565b806318aefe411161015357806318aefe4114610246578063248a9ca3146102665780632d170328146102a5576101b3565b806301ffc9a7146101f15780630d7c2a6014610226576101b3565b366101b3576101b16040518060400160405280600481526020017f48657265000000000000000000000000000000000000000000000000000000008152506105a8565b005b6101b16040518060400160405280600481526020017f68657265000000000000000000000000000000000000000000000000000000008152506105a8565b3480156101fd57600080fd5b5061021161020c3660046117e6565b61061c565b60405190151581526020015b60405180910390f35b34801561023257600080fd5b506101b1610241366004611828565b6106b5565b34801561025257600080fd5b506101b1610261366004611828565b610885565b34801561027257600080fd5b506102976102813660046118ad565b6000908152600160208190526040909120015490565b60405190815260200161021d565b3480156102b157600080fd5b506102976102c03660046118db565b61095f565b3480156102d157600080fd5b506101b16102e03660046118ad565b610a51565b3480156102f157600080fd5b506101b1610300366004611914565b610acd565b34801561031157600080fd5b506101b1610320366004611914565b610af8565b34801561033157600080fd5b5061029760035481565b34801561034757600080fd5b506101b161035636600461199b565b610b80565b34801561036757600080fd5b50610211610376366004611914565b60008281526002602090815260408083206001600160a01b038516845260050190915290205460ff1692915050565b3480156103b157600080fd5b506101b16103c0366004611acf565b610dec565b3480156103d157600080fd5b506102976103e03660046118ad565b60009081526002602052604090206003015490565b34801561040157600080fd5b50610211610410366004611914565b60009182526001602090815260408084206001600160a01b0393909316845291905290205460ff1690565b34801561044757600080fd5b50610297600081565b34801561045c57600080fd5b5061029761046b3660046118ad565b610ed5565b6101b161047e3660046118ad565b610ef2565b34801561048f57600080fd5b506101b161049e366004611914565b610f68565b3480156104af57600080fd5b506104d96104be3660046118ad565b6000908152600260205260409020546001600160a01b031690565b6040516001600160a01b03909116815260200161021d565b3480156104fd57600080fd5b5061054561050c3660046118ad565b6002602081905260009182526040909120805460018201549282015460038301546004909301546001600160a01b039092169392909185565b604080516001600160a01b0390961686526020860194909452928401919091526060830152608082015260a00161021d565b34801561058357600080fd5b506102976105923660046118ad565b6000908152600260208190526040909120015490565b610619816040516024016105bc9190611b15565b60408051601f198184030181529190526020810180517bffffffffffffffffffffffffffffffffffffffffffffffffffffffff167f41304fac00000000000000000000000000000000000000000000000000000000179052610f8e565b50565b60007fffffffff0000000000000000000000000000000000000000000000000000000082167f7965db0b0000000000000000000000000000000000000000000000000000000014806106af57507f01ffc9a7000000000000000000000000000000000000000000000000000000007fffffffff000000000000000000000000000000000000000000000000000000008316145b92915050565b60008481526002602052604090205484906001600160a01b031633146107165760405162461bcd60e51b815260206004820152601160248201527014195c9b5a5cdcda5bdb8811195b9a5959607a1b60448201526064015b60405180910390fd5b60008390036107675760405162461bcd60e51b815260206004820152601260248201527f4164647265737320617272617920697320300000000000000000000000000000604482015260640161070d565b60005b8381101561086957600085858381811061078657610786611b48565b905060200201602081019061079b9190611b5e565b6001600160a01b0316036107f15760405162461bcd60e51b815260206004820152601260248201527f3020616464726573732064657465637465640000000000000000000000000000604482015260640161070d565b600086815260026020526040812060019160059091019087878581811061081a5761081a611b48565b905060200201602081019061082f9190611b5e565b6001600160a01b031681526020810191909152604001600020805460ff19169115159190911790558061086181611b91565b91505061076a565b5050600093845260026020526040909320600301929092555050565b60008481526002602052604090205484906001600160a01b031633146108e15760405162461bcd60e51b815260206004820152601160248201527014195c9b5a5cdcda5bdb8811195b9a5959607a1b604482015260640161070d565b60005b838110156108695760008681526002602052604081206005018187878581811061091057610910611b48565b90506020020160208101906109259190611b5e565b6001600160a01b031681526020810191909152604001600020805460ff19169115159190911790558061095781611b91565b9150506108e4565b6000838152600260205260408120546001600160a01b03166109c35760405162461bcd60e51b815260206004820152601160248201527f496e76616c69642049642063616c6c6564000000000000000000000000000000604482015260640161070d565b604080516020808201879052818301869052606085811b6bffffffffffffffffffffffff191690830152825180830360540181526074830184528051908201207f19457468657265756d205369676e6564204d6573736167653a0a333200000000609484015260b08084018290528451808503909101815260d0909301909352815191012095945050505050565b60008181526002602052604090205481906001600160a01b03163314610aad5760405162461bcd60e51b815260206004820152601160248201527014195c9b5a5cdcda5bdb8811195b9a5959607a1b604482015260640161070d565b610ab5610faf565b610abf8233611008565b610ac96001600055565b5050565b60008281526001602081905260409091200154610ae981611091565b610af3838361109b565b505050565b6001600160a01b0381163314610b765760405162461bcd60e51b815260206004820152602f60248201527f416363657373436f6e74726f6c3a2063616e206f6e6c792072656e6f756e636560448201527f20726f6c657320666f722073656c660000000000000000000000000000000000606482015260840161070d565b610ac98282611122565b6000838152600260205260409020546001600160a01b0316610be45760405162461bcd60e51b815260206004820152601760248201527f496e76616c6964206964206265696e672063616c6c6564000000000000000000604482015260640161070d565b600083815260026020908152604080832033845260050190915290205460ff16610c765760405162461bcd60e51b815260206004820152602660248201527f596f7520646f206e6f742068617665207065726d697373696f6e20666f72207460448201527f6869732069640000000000000000000000000000000000000000000000000000606482015260840161070d565b6001600160a01b03811615801590610ca05750600083815260026020526040902060030154825110155b610cec5760405162461bcd60e51b815260206004820152601860248201527f53656e64696e6720746f2077726f6e6720616464726573730000000000000000604482015260640161070d565b60005b82518111610dbf576000610d3485600260008881526020019081526020016000206004015485878681518110610d2757610d27611b48565b60200260200101516111a5565b60008681526002602090815260408083206001600160a01b038516845260050190915290205490915060ff16610dac5760405162461bcd60e51b815260206004820152601c60248201527f496e76616c6964206164647265737320696e207369676e617475726500000000604482015260640161070d565b5080610db781611b91565b915050610cef565b506000838152600260205260408120600401805491610ddd83611b91565b9190505550610af38382611008565b60008281526002602052604090205482906001600160a01b03163314610e485760405162461bcd60e51b815260206004820152601160248201527014195c9b5a5cdcda5bdb8811195b9a5959607a1b604482015260640161070d565b6001821015610ebf5760405162461bcd60e51b815260206004820152602960248201527f4d696e696d756d2031207369676e6174757265732073686f756c64202062652060448201527f6d656e74696f6e65640000000000000000000000000000000000000000000000606482015260840161070d565b5060009182526002602052604090912060030155565b6000818152600260205260408120600101546106af904290611baa565b600354600090815260026020526040902080547fffffffffffffffffffffffff00000000000000000000000000000000000000001633179055610f358142611bbd565b60038054600090815260026020819052604080832060019081019590955583548352909120349101558054909101905550565b60008281526001602081905260409091200154610f8481611091565b610af38383611122565b80516a636f6e736f6c652e6c6f67602083016000808483855afa5050505050565b6002600054036110015760405162461bcd60e51b815260206004820152601f60248201527f5265656e7472616e637947756172643a207265656e7472616e742063616c6c00604482015260640161070d565b6002600055565b6000828152600260205260409020600101544210156110695760405162461bcd60e51b815260206004820152601a60248201527f456e6f7567682074696d6520686173206e6f7420706173736564000000000000604482015260640161070d565b6000828152600260208190526040822001819055610ac9906001600160a01b038316906111cc565b61061981336112e5565b60008281526001602090815260408083206001600160a01b038516845290915290205460ff16610ac95760008281526001602081815260408084206001600160a01b0386168086529252808420805460ff19169093179092559051339285917f2f8788117e7eff1d82e926ec794901d17c78024a50270940304540a733656f0d9190a45050565b60008281526001602090815260408083206001600160a01b038516845290915290205460ff1615610ac95760008281526001602090815260408083206001600160a01b0385168085529252808320805460ff1916905551339285917ff6391f5c32d9c69d2a47ea670b442974b53935d1edc7fd64eb21e047a839171b9190a45050565b6000806111b386868661095f565b905060006111c1828561135a565b979650505050505050565b8047101561121c5760405162461bcd60e51b815260206004820152601d60248201527f416464726573733a20696e73756666696369656e742062616c616e6365000000604482015260640161070d565b6000826001600160a01b03168260405160006040518083038185875af1925050503d8060008114611269576040519150601f19603f3d011682016040523d82523d6000602084013e61126e565b606091505b5050905080610af35760405162461bcd60e51b815260206004820152603a60248201527f416464726573733a20756e61626c6520746f2073656e642076616c75652c207260448201527f6563697069656e74206d61792068617665207265766572746564000000000000606482015260840161070d565b60008281526001602090815260408083206001600160a01b038516845290915290205460ff16610ac9576113188161137e565b611323836020611390565b604051602001611334929190611bd0565b60408051601f198184030181529082905262461bcd60e51b825261070d91600401611b15565b60008060006113698585611578565b91509150611376816115bd565b509392505050565b60606106af6001600160a01b03831660145b6060600061139f836002611c51565b6113aa906002611bbd565b67ffffffffffffffff8111156113c2576113c2611944565b6040519080825280601f01601f1916602001820160405280156113ec576020820181803683370190505b5090507f30000000000000000000000000000000000000000000000000000000000000008160008151811061142357611423611b48565b60200101906001600160f81b031916908160001a9053507f78000000000000000000000000000000000000000000000000000000000000008160018151811061146e5761146e611b48565b60200101906001600160f81b031916908160001a9053506000611492846002611c51565b61149d906001611bbd565b90505b6001811115611522577f303132333435363738396162636465660000000000000000000000000000000085600f16601081106114de576114de611b48565b1a60f81b8282815181106114f4576114f4611b48565b60200101906001600160f81b031916908160001a90535060049490941c9361151b81611c68565b90506114a0565b5083156115715760405162461bcd60e51b815260206004820181905260248201527f537472696e67733a20686578206c656e67746820696e73756666696369656e74604482015260640161070d565b9392505050565b60008082516041036115ae5760208301516040840151606085015160001a6115a287828585611722565b945094505050506115b6565b506000905060025b9250929050565b60008160048111156115d1576115d1611c7f565b036115d95750565b60018160048111156115ed576115ed611c7f565b0361163a5760405162461bcd60e51b815260206004820152601860248201527f45434453413a20696e76616c6964207369676e61747572650000000000000000604482015260640161070d565b600281600481111561164e5761164e611c7f565b0361169b5760405162461bcd60e51b815260206004820152601f60248201527f45434453413a20696e76616c6964207369676e6174757265206c656e67746800604482015260640161070d565b60038160048111156116af576116af611c7f565b036106195760405162461bcd60e51b815260206004820152602260248201527f45434453413a20696e76616c6964207369676e6174757265202773272076616c60448201527f7565000000000000000000000000000000000000000000000000000000000000606482015260840161070d565b6000807f7fffffffffffffffffffffffffffffff5d576e7357a4501ddfe92f46681b20a083111561175957506000905060036117dd565b6040805160008082526020820180845289905260ff881692820192909252606081018690526080810185905260019060a0016020604051602081039080840390855afa1580156117ad573d6000803e3d6000fd5b5050604051601f1901519150506001600160a01b0381166117d6576000600192509250506117dd565b9150600090505b94509492505050565b6000602082840312156117f857600080fd5b81357fffffffff000000000000000000000000000000000000000000000000000000008116811461157157600080fd5b6000806000806060858703121561183e57600080fd5b84359350602085013567ffffffffffffffff8082111561185d57600080fd5b818701915087601f83011261187157600080fd5b81358181111561188057600080fd5b8860208260051b850101111561189557600080fd5b95986020929092019750949560400135945092505050565b6000602082840312156118bf57600080fd5b5035919050565b6001600160a01b038116811461061957600080fd5b6000806000606084860312156118f057600080fd5b83359250602084013591506040840135611909816118c6565b809150509250925092565b6000806040838503121561192757600080fd5b823591506020830135611939816118c6565b809150509250929050565b634e487b7160e01b600052604160045260246000fd5b604051601f8201601f1916810167ffffffffffffffff8111828210171561198357611983611944565b604052919050565b8035611996816118c6565b919050565b6000806000606084860312156119b057600080fd5b8335925060208085013567ffffffffffffffff808211156119d057600080fd5b818701915087601f8301126119e457600080fd5b8135818111156119f6576119f6611944565b8060051b611a0585820161195a565b918252838101850191858101908b841115611a1f57600080fd5b86860192505b83831015611ab057823585811115611a3d5760008081fd5b8601603f81018d13611a4f5760008081fd5b87810135604087821115611a6557611a65611944565b611a77601f8301601f19168b0161195a565b8281528f82848601011115611a8c5760008081fd5b828285018c83013760009281018b0192909252508352509186019190860190611a25565b80985050505050505050611ac66040850161198b565b90509250925092565b60008060408385031215611ae257600080fd5b50508035926020909101359150565b60005b83811015611b0c578181015183820152602001611af4565b50506000910152565b6020815260008251806020840152611b34816040850160208701611af1565b601f01601f19169190910160400192915050565b634e487b7160e01b600052603260045260246000fd5b600060208284031215611b7057600080fd5b8135611571816118c6565b634e487b7160e01b600052601160045260246000fd5b600060018201611ba357611ba3611b7b565b5060010190565b818103818111156106af576106af611b7b565b808201808211156106af576106af611b7b565b7f416363657373436f6e74726f6c3a206163636f756e7420000000000000000000815260008351611c08816017850160208801611af1565b7f206973206d697373696e6720726f6c65200000000000000000000000000000006017918401918201528351611c45816028840160208801611af1565b01602801949350505050565b80820281158282048414176106af576106af611b7b565b600081611c7757611c77611b7b565b506000190190565b634e487b7160e01b600052602160045260246000fdfea26469706673582212202185bfdb5fc2ba1ccdfb01d3eaf56c151315b1d4a3ecd9d70324d128ad7c2d1664736f6c63430008110033",
  "linkReferences": {},
  "deployedLinkReferences": {}
}