{
  "_format": "hh-sol-artifact-1",
  "contractName": "TimeLock",
  "sourceName": "contracts/TimeLock.sol",
  "abi": [
    {
      "anonymous": false,
      "inputs": [
        {
          "indexed": true,
          "internalType": "bytes32",
          "name": "role",
          "type": "bytes32"
        },
        {
          "indexed": true,
          "internalType": "bytes32",
          "name": "previousAdminRole",
          "type": "bytes32"
        },
        {
          "indexed": true,
          "internalType": "bytes32",
          "name": "newAdminRole",
          "type": "bytes32"
        }
      ],
      "name": "RoleAdminChanged",
      "type": "event"
    },
    {
      "anonymous": false,
      "inputs": [
        {
          "indexed": true,
          "internalType": "bytes32",
          "name": "role",
          "type": "bytes32"
        },
        {
          "indexed": true,
          "internalType": "address",
          "name": "account",
          "type": "address"
        },
        {
          "indexed": true,
          "internalType": "address",
          "name": "sender",
          "type": "address"
        }
      ],
      "name": "RoleGranted",
      "type": "event"
    },
    {
      "anonymous": false,
      "inputs": [
        {
          "indexed": true,
          "internalType": "bytes32",
          "name": "role",
          "type": "bytes32"
        },
        {
          "indexed": true,
          "internalType": "address",
          "name": "account",
          "type": "address"
        },
        {
          "indexed": true,
          "internalType": "address",
          "name": "sender",
          "type": "address"
        }
      ],
      "name": "RoleRevoked",
      "type": "event"
    },
    {
      "stateMutability": "payable",
      "type": "fallback"
    },
    {
      "inputs": [
        {
          "internalType": "uint256",
          "name": "_id",
          "type": "uint256"
        },
        {
          "internalType": "address[]",
          "name": "_address",
          "type": "address[]"
        },
        {
          "internalType": "uint256",
          "name": "_MinimumSignatures",
          "type": "uint256"
        }
      ],
      "name": "AddSigners",
      "outputs": [],
      "stateMutability": "nonpayable",
      "type": "function"
    },
    {
      "inputs": [
        {
          "internalType": "uint256",
          "name": "_id",
          "type": "uint256"
        }
      ],
      "name": "CheckAmountDeposited",
      "outputs": [
        {
          "internalType": "uint256",
          "name": "",
          "type": "uint256"
        }
      ],
      "stateMutability": "view",
      "type": "function"
    },
    {
      "inputs": [
        {
          "internalType": "uint256",
          "name": "_id",
          "type": "uint256"
        }
      ],
      "name": "CheckDeposit",
      "outputs": [
        {
          "internalType": "address",
          "name": "",
          "type": "address"
        }
      ],
      "stateMutability": "view",
      "type": "function"
    },
    {
      "inputs": [
        {
          "internalType": "uint256",
          "name": "_id",
          "type": "uint256"
        },
        {
          "internalType": "address",
          "name": "_address",
          "type": "address"
        }
      ],
      "name": "CheckIsVerified",
      "outputs": [
        {
          "internalType": "bool",
          "name": "",
          "type": "bool"
        }
      ],
      "stateMutability": "view",
      "type": "function"
    },
    {
      "inputs": [
        {
          "internalType": "uint256",
          "name": "_id",
          "type": "uint256"
        },
        {
          "internalType": "uint256",
          "name": "_Nonce",
          "type": "uint256"
        },
        {
          "internalType": "address",
          "name": "_to",
          "type": "address"
        }
      ],
      "name": "CreateMessageToSign",
      "outputs": [
        {
          "internalType": "bytes32",
          "name": "",
          "type": "bytes32"
        }
      ],
      "stateMutability": "view",
      "type": "function"
    },
    {
      "inputs": [],
      "name": "DEFAULT_ADMIN_ROLE",
      "outputs": [
        {
          "internalType": "bytes32",
          "name": "",
          "type": "bytes32"
        }
      ],
      "stateMutability": "view",
      "type": "function"
    },
    {
      "inputs": [
        {
          "internalType": "uint256",
          "name": "",
          "type": "uint256"
        }
      ],
      "name": "DepositForEachId",
      "outputs": [
        {
          "internalType": "address",
          "name": "DepositAddress",
          "type": "address"
        },
        {
          "internalType": "uint256",
          "name": "LockedUntil",
          "type": "uint256"
        },
        {
          "internalType": "uint256",
          "name": "Value",
          "type": "uint256"
        },
        {
          "internalType": "uint256",
          "name": "MinimumSignatures",
          "type": "uint256"
        },
        {
          "internalType": "uint256",
          "name": "Nonce",
          "type": "uint256"
        }
      ],
      "stateMutability": "view",
      "type": "function"
    },
    {
      "inputs": [],
      "name": "Id",
      "outputs": [
        {
          "internalType": "uint256",
          "name": "",
          "type": "uint256"
        }
      ],
      "stateMutability": "view",
      "type": "function"
    },
    {
      "inputs": [
        {
          "internalType": "uint256",
          "name": "_id",
          "type": "uint256"
        },
        {
          "internalType": "bytes[]",
          "name": "signatures",
          "type": "bytes[]"
        },
        {
          "internalType": "address payable",
          "name": "_ToAddress",
          "type": "address"
        }
      ],
      "name": "RecoveryCall",
      "outputs": [],
      "stateMutability": "nonpayable",
      "type": "function"
    },
    {
      "inputs": [
        {
          "internalType": "uint256",
          "name": "_id",
          "type": "uint256"
        },
        {
          "internalType": "address[]",
          "name": "_address",
          "type": "address[]"
        },
        {
          "internalType": "uint256",
          "name": "_MinimumSignatures",
          "type": "uint256"
        }
      ],
      "name": "RemoveSigners",
      "outputs": [],
      "stateMutability": "nonpayable",
      "type": "function"
    },
    {
      "inputs": [
        {
          "internalType": "uint256",
          "name": "_id",
          "type": "uint256"
        }
      ],
      "name": "TimeLeft",
      "outputs": [
        {
          "internalType": "uint256",
          "name": "",
          "type": "uint256"
        }
      ],
      "stateMutability": "view",
      "type": "function"
    },
    {
      "inputs": [
        {
          "internalType": "uint256",
          "name": "_id",
          "type": "uint256"
        },
        {
          "internalType": "uint256",
          "name": "_MinimumSignatures",
          "type": "uint256"
        }
      ],
      "name": "UpdateSignatures",
      "outputs": [],
      "stateMutability": "nonpayable",
      "type": "function"
    },
    {
      "inputs": [
        {
          "internalType": "uint256",
          "name": "_id",
          "type": "uint256"
        }
      ],
      "name": "ViewMinimumSignatures",
      "outputs": [
        {
          "internalType": "uint256",
          "name": "",
          "type": "uint256"
        }
      ],
      "stateMutability": "view",
      "type": "function"
    },
    {
      "inputs": [
        {
          "internalType": "uint256",
          "name": "_SecondsToDeposit",
          "type": "uint256"
        }
      ],
      "name": "deposit",
      "outputs": [],
      "stateMutability": "payable",
      "type": "function"
    },
    {
      "inputs": [
        {
          "internalType": "bytes32",
          "name": "role",
          "type": "bytes32"
        }
      ],
      "name": "getRoleAdmin",
      "outputs": [
        {
          "internalType": "bytes32",
          "name": "",
          "type": "bytes32"
        }
      ],
      "stateMutability": "view",
      "type": "function"
    },
    {
      "inputs": [
        {
          "internalType": "bytes32",
          "name": "role",
          "type": "bytes32"
        },
        {
          "internalType": "address",
          "name": "account",
          "type": "address"
        }
      ],
      "name": "grantRole",
      "outputs": [],
      "stateMutability": "nonpayable",
      "type": "function"
    },
    {
      "inputs": [
        {
          "internalType": "bytes32",
          "name": "role",
          "type": "bytes32"
        },
        {
          "internalType": "address",
          "name": "account",
          "type": "address"
        }
      ],
      "name": "hasRole",
      "outputs": [
        {
          "internalType": "bool",
          "name": "",
          "type": "bool"
        }
      ],
      "stateMutability": "view",
      "type": "function"
    },
    {
      "inputs": [
        {
          "internalType": "bytes32",
          "name": "role",
          "type": "bytes32"
        },
        {
          "internalType": "address",
          "name": "account",
          "type": "address"
        }
      ],
      "name": "renounceRole",
      "outputs": [],
      "stateMutability": "nonpayable",
      "type": "function"
    },
    {
      "inputs": [
        {
          "internalType": "bytes32",
          "name": "role",
          "type": "bytes32"
        },
        {
          "internalType": "address",
          "name": "account",
          "type": "address"
        }
      ],
      "name": "revokeRole",
      "outputs": [],
      "stateMutability": "nonpayable",
      "type": "function"
    },
    {
      "inputs": [
        {
          "internalType": "bytes4",
          "name": "interfaceId",
          "type": "bytes4"
        }
      ],
      "name": "supportsInterface",
      "outputs": [
        {
          "internalType": "bool",
          "name": "",
          "type": "bool"
        }
      ],
      "stateMutability": "view",
      "type": "function"
    },
    {
      "inputs": [
        {
          "internalType": "uint256",
          "name": "_id",
          "type": "uint256"
        }
      ],
      "name": "withdraw",
      "outputs": [],
      "stateMutability": "nonpayable",
      "type": "function"
    },
    {
      "stateMutability": "payable",
      "type": "receive"
    }
  ],
  "bytecode": "0x6080604052600160035534801561001557600080fd5b506001600055611d6d8061002a6000396000f3fe60806040526004361061016e5760003560e01c80636a6e804e116100cb578063b0714e771161007f578063da5b75ba11610059578063da5b75ba146104a3578063e30ecf53146104f1578063eddf6c5414610577576101b3565b8063b0714e7714610450578063b6b55f2514610470578063d547741f14610483576101b3565b806371ceb24c116100b057806371ceb24c146103c557806391d14854146103f5578063a217fddf1461043b576101b3565b80636a6e804e1461035b5780636fbd1fc7146103a5576101b3565b80632e1a7d4d1161012257806336568abe1161010757806336568abe1461030557806339a090c91461032557806357cd21281461033b576101b3565b80632e1a7d4d146102c55780632f2ff15d146102e5576101b3565b806318aefe411161015357806318aefe4114610246578063248a9ca3146102665780632d170328146102a5576101b3565b806301ffc9a7146101f15780630d7c2a6014610226576101b3565b366101b3576101b16040518060400160405280600481526020017f48657265000000000000000000000000000000000000000000000000000000008152506105a8565b005b6101b16040518060400160405280600481526020017f68657265000000000000000000000000000000000000000000000000000000008152506105a8565b3480156101fd57600080fd5b5061021161020c366004611888565b61061c565b60405190151581526020015b60405180910390f35b34801561023257600080fd5b506101b16102413660046118ca565b6106b5565b34801561025257600080fd5b506101b16102613660046118ca565b610885565b34801561027257600080fd5b5061029761028136600461194f565b6000908152600160208190526040909120015490565b60405190815260200161021d565b3480156102b157600080fd5b506102976102c036600461197d565b61095f565b3480156102d157600080fd5b506101b16102e036600461194f565b610a0c565b3480156102f157600080fd5b506101b16103003660046119b6565b610a88565b34801561031157600080fd5b506101b16103203660046119b6565b610ab3565b34801561033157600080fd5b5061029760035481565b34801561034757600080fd5b506101b1610356366004611a3d565b610b3b565b34801561036757600080fd5b506102116103763660046119b6565b60008281526002602090815260408083206001600160a01b038516845260050190915290205460ff1692915050565b3480156103b157600080fd5b506101b16103c0366004611b71565b610e23565b3480156103d157600080fd5b506102976103e036600461194f565b60009081526002602052604090206003015490565b34801561040157600080fd5b506102116104103660046119b6565b60009182526001602090815260408084206001600160a01b0393909316845291905290205460ff1690565b34801561044757600080fd5b50610297600081565b34801561045c57600080fd5b5061029761046b36600461194f565b610f0c565b6101b161047e36600461194f565b610f29565b34801561048f57600080fd5b506101b161049e3660046119b6565b610f9f565b3480156104af57600080fd5b506104d96104be36600461194f565b6000908152600260205260409020546001600160a01b031690565b6040516001600160a01b03909116815260200161021d565b3480156104fd57600080fd5b5061054561050c36600461194f565b6002602081905260009182526040909120805460018201549282015460038301546004909301546001600160a01b039092169392909185565b604080516001600160a01b0390961686526020860194909452928401919091526060830152608082015260a00161021d565b34801561058357600080fd5b5061029761059236600461194f565b6000908152600260208190526040909120015490565b610619816040516024016105bc9190611bb7565b60408051601f198184030181529190526020810180517bffffffffffffffffffffffffffffffffffffffffffffffffffffffff167f41304fac00000000000000000000000000000000000000000000000000000000179052610fc5565b50565b60007fffffffff0000000000000000000000000000000000000000000000000000000082167f7965db0b0000000000000000000000000000000000000000000000000000000014806106af57507f01ffc9a7000000000000000000000000000000000000000000000000000000007fffffffff000000000000000000000000000000000000000000000000000000008316145b92915050565b60008481526002602052604090205484906001600160a01b031633146107165760405162461bcd60e51b815260206004820152601160248201527014195c9b5a5cdcda5bdb8811195b9a5959607a1b60448201526064015b60405180910390fd5b60008390036107675760405162461bcd60e51b815260206004820152601260248201527f4164647265737320617272617920697320300000000000000000000000000000604482015260640161070d565b60005b8381101561086957600085858381811061078657610786611bea565b905060200201602081019061079b9190611c00565b6001600160a01b0316036107f15760405162461bcd60e51b815260206004820152601260248201527f3020616464726573732064657465637465640000000000000000000000000000604482015260640161070d565b600086815260026020526040812060019160059091019087878581811061081a5761081a611bea565b905060200201602081019061082f9190611c00565b6001600160a01b031681526020810191909152604001600020805460ff19169115159190911790558061086181611c33565b91505061076a565b5050600093845260026020526040909320600301929092555050565b60008481526002602052604090205484906001600160a01b031633146108e15760405162461bcd60e51b815260206004820152601160248201527014195c9b5a5cdcda5bdb8811195b9a5959607a1b604482015260640161070d565b60005b838110156108695760008681526002602052604081206005018187878581811061091057610910611bea565b90506020020160208101906109259190611c00565b6001600160a01b031681526020810191909152604001600020805460ff19169115159190911790558061095781611c33565b9150506108e4565b6000838152600260205260408120546001600160a01b03166109c35760405162461bcd60e51b815260206004820152601160248201527f496e76616c69642049642063616c6c6564000000000000000000000000000000604482015260640161070d565b5060408051602080820195909552808201939093526bffffffffffffffffffffffff19606092831b16918301919091528051605481840301815260749092019052805191012090565b60008181526002602052604090205481906001600160a01b03163314610a685760405162461bcd60e51b815260206004820152601160248201527014195c9b5a5cdcda5bdb8811195b9a5959607a1b604482015260640161070d565b610a70610fe6565b610a7a823361103f565b610a846001600055565b5050565b60008281526001602081905260409091200154610aa4816111f0565b610aae83836111fa565b505050565b6001600160a01b0381163314610b315760405162461bcd60e51b815260206004820152602f60248201527f416363657373436f6e74726f6c3a2063616e206f6e6c792072656e6f756e636560448201527f20726f6c657320666f722073656c660000000000000000000000000000000000606482015260840161070d565b610a848282611281565b6000838152600260205260409020546001600160a01b0316610b9f5760405162461bcd60e51b815260206004820152601760248201527f496e76616c6964206964206265696e672063616c6c6564000000000000000000604482015260640161070d565b600083815260026020908152604080832033845260050190915290205460ff16610c315760405162461bcd60e51b815260206004820152602660248201527f596f7520646f206e6f742068617665207065726d697373696f6e20666f72207460448201527f6869732069640000000000000000000000000000000000000000000000000000606482015260840161070d565b6001600160a01b03811615801590610c5b5750600083815260026020526040902060030154825110155b610ca75760405162461bcd60e51b815260206004820152601860248201527f53656e64696e6720746f2077726f6e6720616464726573730000000000000000604482015260640161070d565b60005b8251811015610db8576000610cf085600260008881526020019081526020016000206004015485878681518110610ce357610ce3611bea565b6020026020010151611304565b9050610d306040518060400160405280601b81526020017f486572656f6f6f6f6f6f6f6f6f6f6f6f6f6f6f6f6f6f6f6f6f6f7200000000008152506105a8565b60008581526002602090815260408083206001600160a01b038516845260050190915290205460ff16610da55760405162461bcd60e51b815260206004820152601c60248201527f496e76616c6964206164647265737320696e207369676e617475726500000000604482015260640161070d565b5080610db081611c33565b915050610caa565b506000838152600260205260408120600401805491610dd683611c33565b9190505550610e196040518060400160405280600b81526020017f52656163686564486572650000000000000000000000000000000000000000008152506105a8565b610aae838261103f565b60008281526002602052604090205482906001600160a01b03163314610e7f5760405162461bcd60e51b815260206004820152601160248201527014195c9b5a5cdcda5bdb8811195b9a5959607a1b604482015260640161070d565b6001821015610ef65760405162461bcd60e51b815260206004820152602960248201527f4d696e696d756d2031207369676e6174757265732073686f756c64202062652060448201527f6d656e74696f6e65640000000000000000000000000000000000000000000000606482015260840161070d565b5060009182526002602052604090912060030155565b6000818152600260205260408120600101546106af904290611c4c565b600354600090815260026020526040902080547fffffffffffffffffffffffff00000000000000000000000000000000000000001633179055610f6c8142611c5f565b60038054600090815260026020819052604080832060019081019590955583548352909120349101558054909101905550565b60008281526001602081905260409091200154610fbb816111f0565b610aae8383611281565b80516a636f6e736f6c652e6c6f67602083016000808483855afa5050505050565b6002600054036110385760405162461bcd60e51b815260206004820152601f60248201527f5265656e7472616e637947756172643a207265656e7472616e742063616c6c00604482015260640161070d565b6002600055565b611047610fe6565b6000828152600260205260409020600101544210156110a85760405162461bcd60e51b815260206004820152601a60248201527f456e6f7567682074696d6520686173206e6f7420706173736564000000000000604482015260640161070d565b600082815260026020819052604090912001544781111561110b5760405162461bcd60e51b815260206004820152601d60248201527f416464726573733a20696e73756666696369656e742062616c616e6365000000604482015260640161070d565b6000838152600260208190526040808320909101829055516001600160a01b0384169083908381818185875af1925050503d8060008114611168576040519150601f19603f3d011682016040523d82523d6000602084013e61116d565b606091505b50509050806111e45760405162461bcd60e51b815260206004820152603a60248201527f416464726573733a20756e61626c6520746f2073656e642076616c75652c207260448201527f6563697069656e74206d61792068617665207265766572746564000000000000606482015260840161070d565b5050610a846001600055565b6106198133611387565b60008281526001602090815260408083206001600160a01b038516845290915290205460ff16610a845760008281526001602081815260408084206001600160a01b0386168086529252808420805460ff19169093179092559051339285917f2f8788117e7eff1d82e926ec794901d17c78024a50270940304540a733656f0d9190a45050565b60008281526001602090815260408083206001600160a01b038516845290915290205460ff1615610a845760008281526001602090815260408083206001600160a01b0385168085529252808320805460ff1916905551339285917ff6391f5c32d9c69d2a47ea670b442974b53935d1edc7fd64eb21e047a839171b9190a45050565b60008061131286868661095f565b9050600061136d826040517f19457468657265756d205369676e6564204d6573736167653a0a3332000000006020820152603c8101829052600090605c01604051602081830303815290604052805190602001209050919050565b9050600061137b82866113fc565b98975050505050505050565b60008281526001602090815260408083206001600160a01b038516845290915290205460ff16610a84576113ba81611420565b6113c5836020611432565b6040516020016113d6929190611c72565b60408051601f198184030181529082905262461bcd60e51b825261070d91600401611bb7565b600080600061140b858561161a565b915091506114188161165f565b509392505050565b60606106af6001600160a01b03831660145b60606000611441836002611cf3565b61144c906002611c5f565b67ffffffffffffffff811115611464576114646119e6565b6040519080825280601f01601f19166020018201604052801561148e576020820181803683370190505b5090507f3000000000000000000000000000000000000000000000000000000000000000816000815181106114c5576114c5611bea565b60200101906001600160f81b031916908160001a9053507f78000000000000000000000000000000000000000000000000000000000000008160018151811061151057611510611bea565b60200101906001600160f81b031916908160001a9053506000611534846002611cf3565b61153f906001611c5f565b90505b60018111156115c4577f303132333435363738396162636465660000000000000000000000000000000085600f166010811061158057611580611bea565b1a60f81b82828151811061159657611596611bea565b60200101906001600160f81b031916908160001a90535060049490941c936115bd81611d0a565b9050611542565b5083156116135760405162461bcd60e51b815260206004820181905260248201527f537472696e67733a20686578206c656e67746820696e73756666696369656e74604482015260640161070d565b9392505050565b60008082516041036116505760208301516040840151606085015160001a611644878285856117c4565b94509450505050611658565b506000905060025b9250929050565b600081600481111561167357611673611d21565b0361167b5750565b600181600481111561168f5761168f611d21565b036116dc5760405162461bcd60e51b815260206004820152601860248201527f45434453413a20696e76616c6964207369676e61747572650000000000000000604482015260640161070d565b60028160048111156116f0576116f0611d21565b0361173d5760405162461bcd60e51b815260206004820152601f60248201527f45434453413a20696e76616c6964207369676e6174757265206c656e67746800604482015260640161070d565b600381600481111561175157611751611d21565b036106195760405162461bcd60e51b815260206004820152602260248201527f45434453413a20696e76616c6964207369676e6174757265202773272076616c60448201527f7565000000000000000000000000000000000000000000000000000000000000606482015260840161070d565b6000807f7fffffffffffffffffffffffffffffff5d576e7357a4501ddfe92f46681b20a08311156117fb575060009050600361187f565b6040805160008082526020820180845289905260ff881692820192909252606081018690526080810185905260019060a0016020604051602081039080840390855afa15801561184f573d6000803e3d6000fd5b5050604051601f1901519150506001600160a01b0381166118785760006001925092505061187f565b9150600090505b94509492505050565b60006020828403121561189a57600080fd5b81357fffffffff000000000000000000000000000000000000000000000000000000008116811461161357600080fd5b600080600080606085870312156118e057600080fd5b84359350602085013567ffffffffffffffff808211156118ff57600080fd5b818701915087601f83011261191357600080fd5b81358181111561192257600080fd5b8860208260051b850101111561193757600080fd5b95986020929092019750949560400135945092505050565b60006020828403121561196157600080fd5b5035919050565b6001600160a01b038116811461061957600080fd5b60008060006060848603121561199257600080fd5b833592506020840135915060408401356119ab81611968565b809150509250925092565b600080604083850312156119c957600080fd5b8235915060208301356119db81611968565b809150509250929050565b634e487b7160e01b600052604160045260246000fd5b604051601f8201601f1916810167ffffffffffffffff81118282101715611a2557611a256119e6565b604052919050565b8035611a3881611968565b919050565b600080600060608486031215611a5257600080fd5b8335925060208085013567ffffffffffffffff80821115611a7257600080fd5b818701915087601f830112611a8657600080fd5b813581811115611a9857611a986119e6565b8060051b611aa78582016119fc565b918252838101850191858101908b841115611ac157600080fd5b86860192505b83831015611b5257823585811115611adf5760008081fd5b8601603f81018d13611af15760008081fd5b87810135604087821115611b0757611b076119e6565b611b19601f8301601f19168b016119fc565b8281528f82848601011115611b2e5760008081fd5b828285018c83013760009281018b0192909252508352509186019190860190611ac7565b80985050505050505050611b6860408501611a2d565b90509250925092565b60008060408385031215611b8457600080fd5b50508035926020909101359150565b60005b83811015611bae578181015183820152602001611b96565b50506000910152565b6020815260008251806020840152611bd6816040850160208701611b93565b601f01601f19169190910160400192915050565b634e487b7160e01b600052603260045260246000fd5b600060208284031215611c1257600080fd5b813561161381611968565b634e487b7160e01b600052601160045260246000fd5b600060018201611c4557611c45611c1d565b5060010190565b818103818111156106af576106af611c1d565b808201808211156106af576106af611c1d565b7f416363657373436f6e74726f6c3a206163636f756e7420000000000000000000815260008351611caa816017850160208801611b93565b7f206973206d697373696e6720726f6c65200000000000000000000000000000006017918401918201528351611ce7816028840160208801611b93565b01602801949350505050565b80820281158282048414176106af576106af611c1d565b600081611d1957611d19611c1d565b506000190190565b634e487b7160e01b600052602160045260246000fdfea264697066735822122092239a2de4d60c0997f0912cdcd6dcfec5dd6437194bd9b48d919442e86e491f64736f6c63430008110033",
  "linkReferences": {},
  "deployedLinkReferences": {}
}