{
  "_format": "hh-sol-artifact-1",
  "contractName": "TimeLock",
  "sourceName": "contracts/TimeLock.sol",
  "abi": [
    {
      "anonymous": false,
      "inputs": [
        {
          "indexed": true,
          "internalType": "bytes32",
          "name": "role",
          "type": "bytes32"
        },
        {
          "indexed": true,
          "internalType": "bytes32",
          "name": "previousAdminRole",
          "type": "bytes32"
        },
        {
          "indexed": true,
          "internalType": "bytes32",
          "name": "newAdminRole",
          "type": "bytes32"
        }
      ],
      "name": "RoleAdminChanged",
      "type": "event"
    },
    {
      "anonymous": false,
      "inputs": [
        {
          "indexed": true,
          "internalType": "bytes32",
          "name": "role",
          "type": "bytes32"
        },
        {
          "indexed": true,
          "internalType": "address",
          "name": "account",
          "type": "address"
        },
        {
          "indexed": true,
          "internalType": "address",
          "name": "sender",
          "type": "address"
        }
      ],
      "name": "RoleGranted",
      "type": "event"
    },
    {
      "anonymous": false,
      "inputs": [
        {
          "indexed": true,
          "internalType": "bytes32",
          "name": "role",
          "type": "bytes32"
        },
        {
          "indexed": true,
          "internalType": "address",
          "name": "account",
          "type": "address"
        },
        {
          "indexed": true,
          "internalType": "address",
          "name": "sender",
          "type": "address"
        }
      ],
      "name": "RoleRevoked",
      "type": "event"
    },
    {
      "stateMutability": "payable",
      "type": "fallback"
    },
    {
      "inputs": [
        {
          "internalType": "uint256",
          "name": "_id",
          "type": "uint256"
        },
        {
          "internalType": "address[]",
          "name": "_address",
          "type": "address[]"
        },
        {
          "internalType": "uint256",
          "name": "_MinimumSignatures",
          "type": "uint256"
        }
      ],
      "name": "AddSigners",
      "outputs": [],
      "stateMutability": "nonpayable",
      "type": "function"
    },
    {
      "inputs": [
        {
          "internalType": "uint256",
          "name": "_id",
          "type": "uint256"
        }
      ],
      "name": "CheckAmountDeposited",
      "outputs": [
        {
          "internalType": "uint256",
          "name": "",
          "type": "uint256"
        }
      ],
      "stateMutability": "view",
      "type": "function"
    },
    {
      "inputs": [
        {
          "internalType": "uint256",
          "name": "_id",
          "type": "uint256"
        },
        {
          "internalType": "address",
          "name": "_address",
          "type": "address"
        }
      ],
      "name": "CheckIsVerified",
      "outputs": [
        {
          "internalType": "bool",
          "name": "",
          "type": "bool"
        }
      ],
      "stateMutability": "view",
      "type": "function"
    },
    {
      "inputs": [
        {
          "internalType": "uint256",
          "name": "_id",
          "type": "uint256"
        },
        {
          "internalType": "uint256",
          "name": "_Nonce",
          "type": "uint256"
        },
        {
          "internalType": "address",
          "name": "_to",
          "type": "address"
        }
      ],
      "name": "CreateMessageToSign",
      "outputs": [
        {
          "internalType": "bytes32",
          "name": "",
          "type": "bytes32"
        }
      ],
      "stateMutability": "view",
      "type": "function"
    },
    {
      "inputs": [],
      "name": "DEFAULT_ADMIN_ROLE",
      "outputs": [
        {
          "internalType": "bytes32",
          "name": "",
          "type": "bytes32"
        }
      ],
      "stateMutability": "view",
      "type": "function"
    },
    {
      "inputs": [
        {
          "internalType": "uint256",
          "name": "_id",
          "type": "uint256"
        },
        {
          "internalType": "bytes[]",
          "name": "signatures",
          "type": "bytes[]"
        },
        {
          "internalType": "address payable",
          "name": "_ToAddress",
          "type": "address"
        }
      ],
      "name": "RecoveryCall",
      "outputs": [],
      "stateMutability": "nonpayable",
      "type": "function"
    },
    {
      "inputs": [
        {
          "internalType": "uint256",
          "name": "_id",
          "type": "uint256"
        },
        {
          "internalType": "address[]",
          "name": "_address",
          "type": "address[]"
        },
        {
          "internalType": "uint256",
          "name": "_MinimumSignatures",
          "type": "uint256"
        }
      ],
      "name": "RemoveSigners",
      "outputs": [],
      "stateMutability": "nonpayable",
      "type": "function"
    },
    {
      "inputs": [
        {
          "internalType": "uint256",
          "name": "_id",
          "type": "uint256"
        }
      ],
      "name": "TimeLeft",
      "outputs": [
        {
          "internalType": "uint256",
          "name": "",
          "type": "uint256"
        }
      ],
      "stateMutability": "view",
      "type": "function"
    },
    {
      "inputs": [
        {
          "internalType": "uint256",
          "name": "_id",
          "type": "uint256"
        },
        {
          "internalType": "uint256",
          "name": "_MinimumSignatures",
          "type": "uint256"
        }
      ],
      "name": "UpdateSignatures",
      "outputs": [],
      "stateMutability": "nonpayable",
      "type": "function"
    },
    {
      "inputs": [
        {
          "internalType": "uint256",
          "name": "_id",
          "type": "uint256"
        }
      ],
      "name": "ViewMinimumSignatures",
      "outputs": [
        {
          "internalType": "uint256",
          "name": "",
          "type": "uint256"
        }
      ],
      "stateMutability": "view",
      "type": "function"
    },
    {
      "inputs": [
        {
          "internalType": "uint256",
          "name": "_SecondsToDeposit",
          "type": "uint256"
        }
      ],
      "name": "deposit",
      "outputs": [],
      "stateMutability": "payable",
      "type": "function"
    },
    {
      "inputs": [
        {
          "internalType": "bytes32",
          "name": "role",
          "type": "bytes32"
        }
      ],
      "name": "getRoleAdmin",
      "outputs": [
        {
          "internalType": "bytes32",
          "name": "",
          "type": "bytes32"
        }
      ],
      "stateMutability": "view",
      "type": "function"
    },
    {
      "inputs": [
        {
          "internalType": "bytes32",
          "name": "role",
          "type": "bytes32"
        },
        {
          "internalType": "address",
          "name": "account",
          "type": "address"
        }
      ],
      "name": "grantRole",
      "outputs": [],
      "stateMutability": "nonpayable",
      "type": "function"
    },
    {
      "inputs": [
        {
          "internalType": "bytes32",
          "name": "role",
          "type": "bytes32"
        },
        {
          "internalType": "address",
          "name": "account",
          "type": "address"
        }
      ],
      "name": "hasRole",
      "outputs": [
        {
          "internalType": "bool",
          "name": "",
          "type": "bool"
        }
      ],
      "stateMutability": "view",
      "type": "function"
    },
    {
      "inputs": [
        {
          "internalType": "bytes32",
          "name": "role",
          "type": "bytes32"
        },
        {
          "internalType": "address",
          "name": "account",
          "type": "address"
        }
      ],
      "name": "renounceRole",
      "outputs": [],
      "stateMutability": "nonpayable",
      "type": "function"
    },
    {
      "inputs": [
        {
          "internalType": "bytes32",
          "name": "role",
          "type": "bytes32"
        },
        {
          "internalType": "address",
          "name": "account",
          "type": "address"
        }
      ],
      "name": "revokeRole",
      "outputs": [],
      "stateMutability": "nonpayable",
      "type": "function"
    },
    {
      "inputs": [
        {
          "internalType": "bytes4",
          "name": "interfaceId",
          "type": "bytes4"
        }
      ],
      "name": "supportsInterface",
      "outputs": [
        {
          "internalType": "bool",
          "name": "",
          "type": "bool"
        }
      ],
      "stateMutability": "view",
      "type": "function"
    },
    {
      "inputs": [
        {
          "internalType": "uint256",
          "name": "_id",
          "type": "uint256"
        }
      ],
      "name": "withdraw",
      "outputs": [],
      "stateMutability": "nonpayable",
      "type": "function"
    },
    {
      "stateMutability": "payable",
      "type": "receive"
    }
  ],
  "bytecode": "0x6080604052600160035534801561001557600080fd5b5060016000819055506130ed8061002d6000396000f3fe60806040526004361061010d5760003560e01c80636a6e804e11610095578063a217fddf11610064578063a217fddf146103b7578063b0714e77146103e2578063b6b55f251461041f578063d547741f1461043b578063eddf6c54146104645761011e565b80636a6e804e146102d75780636fbd1fc71461031457806371ceb24c1461033d57806391d148541461037a5761011e565b80632d170328116100dc5780632d170328146101f65780632e1a7d4d146102335780632f2ff15d1461025c57806336568abe1461028557806357cd2128146102ae5761011e565b806301ffc9a71461012a5780630d7c2a601461016757806318aefe4114610190578063248a9ca3146101b95761011e565b3661011e5761011c600a6104a1565b005b610128600a6104a1565b005b34801561013657600080fd5b50610151600480360381019061014c9190611c67565b610558565b60405161015e9190611caf565b60405180910390f35b34801561017357600080fd5b5061018e60048036038101906101899190611d65565b6105d2565b005b34801561019c57600080fd5b506101b760048036038101906101b29190611d65565b61082b565b005b3480156101c557600080fd5b506101e060048036038101906101db9190611e0f565b6109a8565b6040516101ed9190611e4b565b60405180910390f35b34801561020257600080fd5b5061021d60048036038101906102189190611ec4565b6109c8565b60405161022a9190611e4b565b60405180910390f35b34801561023f57600080fd5b5061025a60048036038101906102559190611f17565b610ab0565b005b34801561026857600080fd5b50610283600480360381019061027e9190611f44565b610b73565b005b34801561029157600080fd5b506102ac60048036038101906102a79190611f44565b610b94565b005b3480156102ba57600080fd5b506102d560048036038101906102d091906121e4565b610c17565b005b3480156102e357600080fd5b506102fe60048036038101906102f99190612253565b610f2a565b60405161030b9190611caf565b60405180910390f35b34801561032057600080fd5b5061033b60048036038101906103369190612293565b610f95565b005b34801561034957600080fd5b50610364600480360381019061035f9190611f17565b61109e565b60405161037191906122e2565b60405180910390f35b34801561038657600080fd5b506103a1600480360381019061039c9190611f44565b6110be565b6040516103ae9190611caf565b60405180910390f35b3480156103c357600080fd5b506103cc611129565b6040516103d99190611e4b565b60405180910390f35b3480156103ee57600080fd5b5061040960048036038101906104049190611f17565b611130565b60405161041691906122e2565b60405180910390f35b61043960048036038101906104349190611f17565b6104a1565b005b34801561044757600080fd5b50610462600480360381019061045d9190611f44565b61115b565b005b34801561047057600080fd5b5061048b60048036038101906104869190611f17565b61117c565b60405161049891906122e2565b60405180910390f35b3360026000600354815260200190815260200160002060000160006101000a81548173ffffffffffffffffffffffffffffffffffffffff021916908373ffffffffffffffffffffffffffffffffffffffff1602179055508042610504919061232c565b6002600060035481526020019081526020016000206001018190555034600260006003548152602001908152602001600020600201819055506003600081548092919061055090612360565b919050555050565b60007f7965db0b000000000000000000000000000000000000000000000000000000007bffffffffffffffffffffffffffffffffffffffffffffffffffffffff1916827bffffffffffffffffffffffffffffffffffffffffffffffffffffffff191614806105cb57506105ca8261119c565b5b9050919050565b833373ffffffffffffffffffffffffffffffffffffffff166002600083815260200190815260200160002060000160009054906101000a900473ffffffffffffffffffffffffffffffffffffffff1673ffffffffffffffffffffffffffffffffffffffff1614610677576040517f08c379a000000000000000000000000000000000000000000000000000000000815260040161066e90612405565b60405180910390fd5b600084849050036106bd576040517f08c379a00000000000000000000000000000000000000000000000000000000081526004016106b490612471565b60405180910390fd5b60005b84849050811161080857600073ffffffffffffffffffffffffffffffffffffffff168585838181106106f5576106f4612491565b5b905060200201602081019061070a91906124c0565b73ffffffffffffffffffffffffffffffffffffffff1603610760576040517f08c379a000000000000000000000000000000000000000000000000000000000815260040161075790612539565b60405180910390fd5b6001600260006003548152602001908152602001600020600501600087878581811061078f5761078e612491565b5b90506020020160208101906107a491906124c0565b73ffffffffffffffffffffffffffffffffffffffff1673ffffffffffffffffffffffffffffffffffffffff16815260200190815260200160002060006101000a81548160ff021916908315150217905550808061080090612360565b9150506106c0565b508160026000878152602001908152602001600020600301819055505050505050565b833373ffffffffffffffffffffffffffffffffffffffff166002600083815260200190815260200160002060000160009054906101000a900473ffffffffffffffffffffffffffffffffffffffff1673ffffffffffffffffffffffffffffffffffffffff16146108d0576040517f08c379a00000000000000000000000000000000000000000000000000000000081526004016108c790612405565b60405180910390fd5b60005b848490508111610985576000600260006003548152602001908152602001600020600501600087878581811061090c5761090b612491565b5b905060200201602081019061092191906124c0565b73ffffffffffffffffffffffffffffffffffffffff1673ffffffffffffffffffffffffffffffffffffffff16815260200190815260200160002060006101000a81548160ff021916908315150217905550808061097d90612360565b9150506108d3565b508160026000878152602001908152602001600020600301819055505050505050565b600060016000838152602001908152602001600020600101549050919050565b60008073ffffffffffffffffffffffffffffffffffffffff166002600086815260200190815260200160002060000160009054906101000a900473ffffffffffffffffffffffffffffffffffffffff1673ffffffffffffffffffffffffffffffffffffffff1603610a6e576040517f08c379a0000000000000000000000000000000000000000000000000000000008152600401610a65906125a5565b60405180910390fd5b6000848484604051602001610a859392919061262e565b604051602081830303815290604052805190602001209050610aa681611206565b9150509392505050565b803373ffffffffffffffffffffffffffffffffffffffff166002600083815260200190815260200160002060000160009054906101000a900473ffffffffffffffffffffffffffffffffffffffff1673ffffffffffffffffffffffffffffffffffffffff1614610b55576040517f08c379a0000000000000000000000000000000000000000000000000000000008152600401610b4c90612405565b60405180910390fd5b610b5d611236565b610b678233611285565b610b6f61133d565b5050565b610b7c826109a8565b610b8581611347565b610b8f838361135b565b505050565b610b9c61143b565b73ffffffffffffffffffffffffffffffffffffffff168173ffffffffffffffffffffffffffffffffffffffff1614610c09576040517f08c379a0000000000000000000000000000000000000000000000000000000008152600401610c00906126dd565b60405180910390fd5b610c138282611443565b5050565b600073ffffffffffffffffffffffffffffffffffffffff166002600085815260200190815260200160002060000160009054906101000a900473ffffffffffffffffffffffffffffffffffffffff1673ffffffffffffffffffffffffffffffffffffffff1603610cbc576040517f08c379a0000000000000000000000000000000000000000000000000000000008152600401610cb390612749565b60405180910390fd5b6002600084815260200190815260200160002060050160003373ffffffffffffffffffffffffffffffffffffffff1673ffffffffffffffffffffffffffffffffffffffff16815260200190815260200160002060009054906101000a900460ff16610d5c576040517f08c379a0000000000000000000000000000000000000000000000000000000008152600401610d53906127db565b60405180910390fd5b600073ffffffffffffffffffffffffffffffffffffffff168173ffffffffffffffffffffffffffffffffffffffff1614158015610db057506002600084815260200190815260200160002060030154825110155b610def576040517f08c379a0000000000000000000000000000000000000000000000000000000008152600401610de690612847565b60405180910390fd5b60005b82518111610eee576000610e3885600260008881526020019081526020016000206004015485878681518110610e2b57610e2a612491565b5b6020026020010151611525565b90506002600086815260200190815260200160002060050160008273ffffffffffffffffffffffffffffffffffffffff1673ffffffffffffffffffffffffffffffffffffffff16815260200190815260200160002060009054906101000a900460ff16610eda576040517f08c379a0000000000000000000000000000000000000000000000000000000008152600401610ed1906128b3565b60405180910390fd5b508080610ee690612360565b915050610df2565b50600260008481526020019081526020016000206004016000815480929190610f1690612360565b9190505550610f258382611285565b505050565b60006002600084815260200190815260200160002060050160008373ffffffffffffffffffffffffffffffffffffffff1673ffffffffffffffffffffffffffffffffffffffff16815260200190815260200160002060009054906101000a900460ff16905092915050565b813373ffffffffffffffffffffffffffffffffffffffff166002600083815260200190815260200160002060000160009054906101000a900473ffffffffffffffffffffffffffffffffffffffff1673ffffffffffffffffffffffffffffffffffffffff161461103a576040517f08c379a000000000000000000000000000000000000000000000000000000000815260040161103190612405565b60405180910390fd5b600182101561107e576040517f08c379a000000000000000000000000000000000000000000000000000000000815260040161107590612945565b60405180910390fd5b816002600085815260200190815260200160002060030181905550505050565b600060026000838152602001908152602001600020600301549050919050565b60006001600084815260200190815260200160002060000160008373ffffffffffffffffffffffffffffffffffffffff1673ffffffffffffffffffffffffffffffffffffffff16815260200190815260200160002060009054906101000a900460ff16905092915050565b6000801b81565b60004260026000848152602001908152602001600020600101546111549190612965565b9050919050565b611164826109a8565b61116d81611347565b6111778383611443565b505050565b600060026000838152602001908152602001600020600201549050919050565b60007f01ffc9a7000000000000000000000000000000000000000000000000000000007bffffffffffffffffffffffffffffffffffffffffffffffffffffffff1916827bffffffffffffffffffffffffffffffffffffffffffffffffffffffff1916149050919050565b6000816040516020016112199190612a11565b604051602081830303815290604052805190602001209050919050565b60026000540361127b576040517f08c379a000000000000000000000000000000000000000000000000000000000815260040161127290612a83565b60405180910390fd5b6002600081905550565b42600260008481526020019081526020016000206001015411156112de576040517f08c379a00000000000000000000000000000000000000000000000000000000081526004016112d590612aef565b60405180910390fd5b6000600260008481526020019081526020016000206002018190555061133960026000848152602001908152602001600020600201548273ffffffffffffffffffffffffffffffffffffffff1661155990919063ffffffff16565b5050565b6001600081905550565b6113588161135361143b565b61164d565b50565b61136582826110be565b61143757600180600084815260200190815260200160002060000160008373ffffffffffffffffffffffffffffffffffffffff1673ffffffffffffffffffffffffffffffffffffffff16815260200190815260200160002060006101000a81548160ff0219169083151502179055506113dc61143b565b73ffffffffffffffffffffffffffffffffffffffff168173ffffffffffffffffffffffffffffffffffffffff16837f2f8788117e7eff1d82e926ec794901d17c78024a50270940304540a733656f0d60405160405180910390a45b5050565b600033905090565b61144d82826110be565b156115215760006001600084815260200190815260200160002060000160008373ffffffffffffffffffffffffffffffffffffffff1673ffffffffffffffffffffffffffffffffffffffff16815260200190815260200160002060006101000a81548160ff0219169083151502179055506114c661143b565b73ffffffffffffffffffffffffffffffffffffffff168173ffffffffffffffffffffffffffffffffffffffff16837ff6391f5c32d9c69d2a47ea670b442974b53935d1edc7fd64eb21e047a839171b60405160405180910390a45b5050565b6000806115338686866109c8565b9050600061154a84836116d290919063ffffffff16565b90508092505050949350505050565b8047101561159c576040517f08c379a000000000000000000000000000000000000000000000000000000000815260040161159390612b5b565b60405180910390fd5b60008273ffffffffffffffffffffffffffffffffffffffff16826040516115c290612bac565b60006040518083038185875af1925050503d80600081146115ff576040519150601f19603f3d011682016040523d82523d6000602084013e611604565b606091505b5050905080611648576040517f08c379a000000000000000000000000000000000000000000000000000000000815260040161163f90612c33565b60405180910390fd5b505050565b61165782826110be565b6116ce57611664816116f9565b6116728360001c6020611726565b604051602001611683929190612d51565b6040516020818303038152906040526040517f08c379a00000000000000000000000000000000000000000000000000000000081526004016116c59190612dc4565b60405180910390fd5b5050565b60008060006116e18585611962565b915091506116ee816119b3565b819250505092915050565b606061171f8273ffffffffffffffffffffffffffffffffffffffff16601460ff16611726565b9050919050565b6060600060028360026117399190612de6565b611743919061232c565b67ffffffffffffffff81111561175c5761175b611f95565b5b6040519080825280601f01601f19166020018201604052801561178e5781602001600182028036833780820191505090505b5090507f3000000000000000000000000000000000000000000000000000000000000000816000815181106117c6576117c5612491565b5b60200101907effffffffffffffffffffffffffffffffffffffffffffffffffffffffffffff1916908160001a9053507f78000000000000000000000000000000000000000000000000000000000000008160018151811061182a57611829612491565b5b60200101907effffffffffffffffffffffffffffffffffffffffffffffffffffffffffffff1916908160001a9053506000600184600261186a9190612de6565b611874919061232c565b90505b6001811115611914577f3031323334353637383961626364656600000000000000000000000000000000600f8616601081106118b6576118b5612491565b5b1a60f81b8282815181106118cd576118cc612491565b5b60200101907effffffffffffffffffffffffffffffffffffffffffffffffffffffffffffff1916908160001a905350600485901c94508061190d90612e28565b9050611877565b5060008414611958576040517f08c379a000000000000000000000000000000000000000000000000000000000815260040161194f90612e9d565b60405180910390fd5b8091505092915050565b60008060418351036119a35760008060006020860151925060408601519150606086015160001a905061199787828585611b19565b945094505050506119ac565b60006002915091505b9250929050565b600060048111156119c7576119c6612ebd565b5b8160048111156119da576119d9612ebd565b5b0315611b1657600160048111156119f4576119f3612ebd565b5b816004811115611a0757611a06612ebd565b5b03611a47576040517f08c379a0000000000000000000000000000000000000000000000000000000008152600401611a3e90612f38565b60405180910390fd5b60026004811115611a5b57611a5a612ebd565b5b816004811115611a6e57611a6d612ebd565b5b03611aae576040517f08c379a0000000000000000000000000000000000000000000000000000000008152600401611aa590612fa4565b60405180910390fd5b60036004811115611ac257611ac1612ebd565b5b816004811115611ad557611ad4612ebd565b5b03611b15576040517f08c379a0000000000000000000000000000000000000000000000000000000008152600401611b0c90613036565b60405180910390fd5b5b50565b6000807f7fffffffffffffffffffffffffffffff5d576e7357a4501ddfe92f46681b20a08360001c1115611b54576000600391509150611bf2565b600060018787878760405160008152602001604052604051611b799493929190613072565b6020604051602081039080840390855afa158015611b9b573d6000803e3d6000fd5b505050602060405103519050600073ffffffffffffffffffffffffffffffffffffffff168173ffffffffffffffffffffffffffffffffffffffff1603611be957600060019250925050611bf2565b80600092509250505b94509492505050565b6000604051905090565b600080fd5b600080fd5b60007fffffffff0000000000000000000000000000000000000000000000000000000082169050919050565b611c4481611c0f565b8114611c4f57600080fd5b50565b600081359050611c6181611c3b565b92915050565b600060208284031215611c7d57611c7c611c05565b5b6000611c8b84828501611c52565b91505092915050565b60008115159050919050565b611ca981611c94565b82525050565b6000602082019050611cc46000830184611ca0565b92915050565b6000819050919050565b611cdd81611cca565b8114611ce857600080fd5b50565b600081359050611cfa81611cd4565b92915050565b600080fd5b600080fd5b600080fd5b60008083601f840112611d2557611d24611d00565b5b8235905067ffffffffffffffff811115611d4257611d41611d05565b5b602083019150836020820283011115611d5e57611d5d611d0a565b5b9250929050565b60008060008060608587031215611d7f57611d7e611c05565b5b6000611d8d87828801611ceb565b945050602085013567ffffffffffffffff811115611dae57611dad611c0a565b5b611dba87828801611d0f565b93509350506040611dcd87828801611ceb565b91505092959194509250565b6000819050919050565b611dec81611dd9565b8114611df757600080fd5b50565b600081359050611e0981611de3565b92915050565b600060208284031215611e2557611e24611c05565b5b6000611e3384828501611dfa565b91505092915050565b611e4581611dd9565b82525050565b6000602082019050611e606000830184611e3c565b92915050565b600073ffffffffffffffffffffffffffffffffffffffff82169050919050565b6000611e9182611e66565b9050919050565b611ea181611e86565b8114611eac57600080fd5b50565b600081359050611ebe81611e98565b92915050565b600080600060608486031215611edd57611edc611c05565b5b6000611eeb86828701611ceb565b9350506020611efc86828701611ceb565b9250506040611f0d86828701611eaf565b9150509250925092565b600060208284031215611f2d57611f2c611c05565b5b6000611f3b84828501611ceb565b91505092915050565b60008060408385031215611f5b57611f5a611c05565b5b6000611f6985828601611dfa565b9250506020611f7a85828601611eaf565b9150509250929050565b6000601f19601f8301169050919050565b7f4e487b7100000000000000000000000000000000000000000000000000000000600052604160045260246000fd5b611fcd82611f84565b810181811067ffffffffffffffff82111715611fec57611feb611f95565b5b80604052505050565b6000611fff611bfb565b905061200b8282611fc4565b919050565b600067ffffffffffffffff82111561202b5761202a611f95565b5b602082029050602081019050919050565b600080fd5b600067ffffffffffffffff82111561205c5761205b611f95565b5b61206582611f84565b9050602081019050919050565b82818337600083830152505050565b600061209461208f84612041565b611ff5565b9050828152602081018484840111156120b0576120af61203c565b5b6120bb848285612072565b509392505050565b600082601f8301126120d8576120d7611d00565b5b81356120e8848260208601612081565b91505092915050565b60006121046120ff84612010565b611ff5565b9050808382526020820190506020840283018581111561212757612126611d0a565b5b835b8181101561216e57803567ffffffffffffffff81111561214c5761214b611d00565b5b80860161215989826120c3565b85526020850194505050602081019050612129565b5050509392505050565b600082601f83011261218d5761218c611d00565b5b813561219d8482602086016120f1565b91505092915050565b60006121b182611e66565b9050919050565b6121c1816121a6565b81146121cc57600080fd5b50565b6000813590506121de816121b8565b92915050565b6000806000606084860312156121fd576121fc611c05565b5b600061220b86828701611ceb565b935050602084013567ffffffffffffffff81111561222c5761222b611c0a565b5b61223886828701612178565b9250506040612249868287016121cf565b9150509250925092565b6000806040838503121561226a57612269611c05565b5b600061227885828601611ceb565b925050602061228985828601611eaf565b9150509250929050565b600080604083850312156122aa576122a9611c05565b5b60006122b885828601611ceb565b92505060206122c985828601611ceb565b9150509250929050565b6122dc81611cca565b82525050565b60006020820190506122f760008301846122d3565b92915050565b7f4e487b7100000000000000000000000000000000000000000000000000000000600052601160045260246000fd5b600061233782611cca565b915061234283611cca565b925082820190508082111561235a576123596122fd565b5b92915050565b600061236b82611cca565b91507fffffffffffffffffffffffffffffffffffffffffffffffffffffffffffffffff820361239d5761239c6122fd565b5b600182019050919050565b600082825260208201905092915050565b7f5065726d697373696f6e2044656e696564000000000000000000000000000000600082015250565b60006123ef6011836123a8565b91506123fa826123b9565b602082019050919050565b6000602082019050818103600083015261241e816123e2565b9050919050565b7f4164647265737320617272617920697320300000000000000000000000000000600082015250565b600061245b6012836123a8565b915061246682612425565b602082019050919050565b6000602082019050818103600083015261248a8161244e565b9050919050565b7f4e487b7100000000000000000000000000000000000000000000000000000000600052603260045260246000fd5b6000602082840312156124d6576124d5611c05565b5b60006124e484828501611eaf565b91505092915050565b7f3020616464726573732064657465637465640000000000000000000000000000600082015250565b60006125236012836123a8565b915061252e826124ed565b602082019050919050565b6000602082019050818103600083015261255281612516565b9050919050565b7f496e76616c69642049642063616c6c6564000000000000000000000000000000600082015250565b600061258f6011836123a8565b915061259a82612559565b602082019050919050565b600060208201905081810360008301526125be81612582565b9050919050565b6000819050919050565b6125e06125db82611cca565b6125c5565b82525050565b60008160601b9050919050565b60006125fe826125e6565b9050919050565b6000612610826125f3565b9050919050565b61262861262382611e86565b612605565b82525050565b600061263a82866125cf565b60208201915061264a82856125cf565b60208201915061265a8284612617565b601482019150819050949350505050565b7f416363657373436f6e74726f6c3a2063616e206f6e6c792072656e6f756e636560008201527f20726f6c657320666f722073656c660000000000000000000000000000000000602082015250565b60006126c7602f836123a8565b91506126d28261266b565b604082019050919050565b600060208201905081810360008301526126f6816126ba565b9050919050565b7f496e76616c6964206964206265696e672063616c6c6564000000000000000000600082015250565b60006127336017836123a8565b915061273e826126fd565b602082019050919050565b6000602082019050818103600083015261276281612726565b9050919050565b7f596f7520646f206e6f742068617665207065726d697373696f6e20666f72207460008201527f6869732069640000000000000000000000000000000000000000000000000000602082015250565b60006127c56026836123a8565b91506127d082612769565b604082019050919050565b600060208201905081810360008301526127f4816127b8565b9050919050565b7f53656e64696e6720746f2077726f6e6720616464726573730000000000000000600082015250565b60006128316018836123a8565b915061283c826127fb565b602082019050919050565b6000602082019050818103600083015261286081612824565b9050919050565b7f496e76616c6964206164647265737320696e207369676e617475726500000000600082015250565b600061289d601c836123a8565b91506128a882612867565b602082019050919050565b600060208201905081810360008301526128cc81612890565b9050919050565b7f4d696e696d756d2031207369676e6174757265732073686f756c64202062652060008201527f6d656e74696f6e65640000000000000000000000000000000000000000000000602082015250565b600061292f6029836123a8565b915061293a826128d3565b604082019050919050565b6000602082019050818103600083015261295e81612922565b9050919050565b600061297082611cca565b915061297b83611cca565b9250828203905081811115612993576129926122fd565b5b92915050565b600081905092915050565b7f19457468657265756d205369676e6564204d6573736167653a0a333200000000600082015250565b60006129da601c83612999565b91506129e5826129a4565b601c82019050919050565b6000819050919050565b612a0b612a0682611dd9565b6129f0565b82525050565b6000612a1c826129cd565b9150612a2882846129fa565b60208201915081905092915050565b7f5265656e7472616e637947756172643a207265656e7472616e742063616c6c00600082015250565b6000612a6d601f836123a8565b9150612a7882612a37565b602082019050919050565b60006020820190508181036000830152612a9c81612a60565b9050919050565b7f456e6f7567682074696d6520686173206e6f7420706173736564000000000000600082015250565b6000612ad9601a836123a8565b9150612ae482612aa3565b602082019050919050565b60006020820190508181036000830152612b0881612acc565b9050919050565b7f416464726573733a20696e73756666696369656e742062616c616e6365000000600082015250565b6000612b45601d836123a8565b9150612b5082612b0f565b602082019050919050565b60006020820190508181036000830152612b7481612b38565b9050919050565b600081905092915050565b50565b6000612b96600083612b7b565b9150612ba182612b86565b600082019050919050565b6000612bb782612b89565b9150819050919050565b7f416464726573733a20756e61626c6520746f2073656e642076616c75652c207260008201527f6563697069656e74206d61792068617665207265766572746564000000000000602082015250565b6000612c1d603a836123a8565b9150612c2882612bc1565b604082019050919050565b60006020820190508181036000830152612c4c81612c10565b9050919050565b7f416363657373436f6e74726f6c3a206163636f756e7420000000000000000000600082015250565b6000612c89601783612999565b9150612c9482612c53565b601782019050919050565b600081519050919050565b60005b83811015612cc8578082015181840152602081019050612cad565b60008484015250505050565b6000612cdf82612c9f565b612ce98185612999565b9350612cf9818560208601612caa565b80840191505092915050565b7f206973206d697373696e6720726f6c6520000000000000000000000000000000600082015250565b6000612d3b601183612999565b9150612d4682612d05565b601182019050919050565b6000612d5c82612c7c565b9150612d688285612cd4565b9150612d7382612d2e565b9150612d7f8284612cd4565b91508190509392505050565b6000612d9682612c9f565b612da081856123a8565b9350612db0818560208601612caa565b612db981611f84565b840191505092915050565b60006020820190508181036000830152612dde8184612d8b565b905092915050565b6000612df182611cca565b9150612dfc83611cca565b9250828202612e0a81611cca565b91508282048414831517612e2157612e206122fd565b5b5092915050565b6000612e3382611cca565b915060008203612e4657612e456122fd565b5b600182039050919050565b7f537472696e67733a20686578206c656e67746820696e73756666696369656e74600082015250565b6000612e876020836123a8565b9150612e9282612e51565b602082019050919050565b60006020820190508181036000830152612eb681612e7a565b9050919050565b7f4e487b7100000000000000000000000000000000000000000000000000000000600052602160045260246000fd5b7f45434453413a20696e76616c6964207369676e61747572650000000000000000600082015250565b6000612f226018836123a8565b9150612f2d82612eec565b602082019050919050565b60006020820190508181036000830152612f5181612f15565b9050919050565b7f45434453413a20696e76616c6964207369676e6174757265206c656e67746800600082015250565b6000612f8e601f836123a8565b9150612f9982612f58565b602082019050919050565b60006020820190508181036000830152612fbd81612f81565b9050919050565b7f45434453413a20696e76616c6964207369676e6174757265202773272076616c60008201527f7565000000000000000000000000000000000000000000000000000000000000602082015250565b60006130206022836123a8565b915061302b82612fc4565b604082019050919050565b6000602082019050818103600083015261304f81613013565b9050919050565b600060ff82169050919050565b61306c81613056565b82525050565b60006080820190506130876000830187611e3c565b6130946020830186613063565b6130a16040830185611e3c565b6130ae6060830184611e3c565b9594505050505056fea26469706673582212205e6f73fa42d4f5261bf2491f8e559f64d1b3c21c004c804b6856472aa1b1865164736f6c63430008110033",
  "linkReferences": {},
  "deployedLinkReferences": {}
}