{
  "_format": "hh-sol-artifact-1",
  "contractName": "MockSelfDestruct",
  "sourceName": "contracts/MockSelfDestruct.sol",
  "abi": [
    {
      "inputs": [],
      "name": "deposit",
      "outputs": [],
      "stateMutability": "payable",
      "type": "function"
    },
    {
      "inputs": [
        {
          "internalType": "address payable",
          "name": "_to",
          "type": "address"
        }
      ],
      "name": "selfdestructs",
      "outputs": [],
      "stateMutability": "payable",
      "type": "function"
    }
  ],
  "bytecode": "0x608060405234801561001057600080fd5b506101f0806100206000396000f3fe6080604052600436106100295760003560e01c80633340eb791461002e578063d0e30db014610041575b600080fd5b61004161003c36600461012f565b610043565b005b6100816040518060400160405280601381526020017f496e736964652053656c6664657374727563740000000000000000000000000081525061009a565b8073ffffffffffffffffffffffffffffffffffffffff16ff5b61010b816040516024016100ae919061016c565b60408051601f198184030181529190526020810180517bffffffffffffffffffffffffffffffffffffffffffffffffffffffff167f41304fac0000000000000000000000000000000000000000000000000000000017905261010e565b50565b80516a636f6e736f6c652e6c6f67602083016000808483855afa5050505050565b60006020828403121561014157600080fd5b813573ffffffffffffffffffffffffffffffffffffffff8116811461016557600080fd5b9392505050565b600060208083528351808285015260005b818110156101995785810183015185820160400152820161017d565b506000604082860101526040601f19601f830116850101925050509291505056fea264697066735822122055fb773b89820c8ee25bdc978e24f6043e7f6858f016ec5791ed4aa22912b10a64736f6c63430008110033",
  "linkReferences": {},
  "deployedLinkReferences": {}
}