{
  "_format": "hh-sol-artifact-1",
  "contractName": "MockSelfDestruct",
  "sourceName": "contracts/MockSelfDestruct.sol",
  "abi": [
    {
      "inputs": [],
      "name": "deposit",
      "outputs": [],
      "stateMutability": "payable",
      "type": "function"
    },
    {
      "inputs": [
        {
          "internalType": "address payable",
          "name": "_to",
          "type": "address"
        }
      ],
      "name": "selfdestructs",
      "outputs": [],
      "stateMutability": "payable",
      "type": "function"
    }
  ],
  "bytecode": "0x608060405234801561001057600080fd5b5060c68061001f6000396000f3fe60806040526004361060265760003560e01c80633340eb7914602b578063d0e30db014603a575b600080fd5b603a60363660046055565b603c565b005b8073ffffffffffffffffffffffffffffffffffffffff16ff5b600060208284031215606657600080fd5b813573ffffffffffffffffffffffffffffffffffffffff81168114608957600080fd5b939250505056fea2646970667358221220624cfe409616e8af31450caa4139ba1c0ce5d2f8185e6072ef57c202f8e0a8cf64736f6c63430008110033",
  "linkReferences": {},
  "deployedLinkReferences": {}
}