{
  "_format": "hh-sol-artifact-1",
  "contractName": "MockRecoveryCall",
  "sourceName": "contracts/MockRecoveryCall.sol",
  "abi": [
    {
      "inputs": [],
      "name": "MessageToSign",
      "outputs": [
        {
          "internalType": "bytes32",
          "name": "",
          "type": "bytes32"
        }
      ],
      "stateMutability": "view",
      "type": "function"
    },
    {
      "inputs": [
        {
          "internalType": "bytes",
          "name": "_signature",
          "type": "bytes"
        }
      ],
      "name": "Verify",
      "outputs": [
        {
          "internalType": "address",
          "name": "",
          "type": "address"
        }
      ],
      "stateMutability": "view",
      "type": "function"
    }
  ],
  "bytecode": "0x6080604052600160005534801561001557600080fd5b506104fb806100256000396000f3fe608060405234801561001057600080fd5b50600436106100365760003560e01c80630c15d72e1461003b5780639525e9f914610056575b600080fd5b61004361008e565b6040519081526020015b60405180910390f35b6100696100643660046103fe565b6100c4565b60405173ffffffffffffffffffffffffffffffffffffffff909116815260200161004d565b6000806000546040516020016100a691815260200190565b60408051601f19818403018152919052805160209091012092915050565b6000806100cf61008e565b9050600061012a826040517f19457468657265756d205369676e6564204d6573736167653a0a3332000000006020820152603c8101829052600090605c01604051602081830303815290604052805190602001209050919050565b905060006101388286610141565b95945050505050565b60008060006101508585610165565b9150915061015d816101aa565b509392505050565b600080825160410361019b5760208301516040840151606085015160001a61018f87828585610317565b945094505050506101a3565b506000905060025b9250929050565b60008160048111156101be576101be6104af565b036101c65750565b60018160048111156101da576101da6104af565b0361022c5760405162461bcd60e51b815260206004820152601860248201527f45434453413a20696e76616c6964207369676e6174757265000000000000000060448201526064015b60405180910390fd5b6002816004811115610240576102406104af565b0361028d5760405162461bcd60e51b815260206004820152601f60248201527f45434453413a20696e76616c6964207369676e6174757265206c656e677468006044820152606401610223565b60038160048111156102a1576102a16104af565b036103145760405162461bcd60e51b815260206004820152602260248201527f45434453413a20696e76616c6964207369676e6174757265202773272076616c60448201527f75650000000000000000000000000000000000000000000000000000000000006064820152608401610223565b50565b6000807f7fffffffffffffffffffffffffffffff5d576e7357a4501ddfe92f46681b20a083111561034e57506000905060036103df565b6040805160008082526020820180845289905260ff881692820192909252606081018690526080810185905260019060a0016020604051602081039080840390855afa1580156103a2573d6000803e3d6000fd5b5050604051601f19015191505073ffffffffffffffffffffffffffffffffffffffff81166103d8576000600192509250506103df565b9150600090505b94509492505050565b634e487b7160e01b600052604160045260246000fd5b60006020828403121561041057600080fd5b813567ffffffffffffffff8082111561042857600080fd5b818401915084601f83011261043c57600080fd5b81358181111561044e5761044e6103e8565b604051601f8201601f19908116603f01168101908382118183101715610476576104766103e8565b8160405282815287602084870101111561048f57600080fd5b826020860160208301376000928101602001929092525095945050505050565b634e487b7160e01b600052602160045260246000fdfea2646970667358221220600c24c15f49f31977fcfc414a829503f5167e9a49d9367d322fd6cc1e8aa1e664736f6c63430008110033",
  "linkReferences": {},
  "deployedLinkReferences": {}
}